{
  "_format": "hh-sol-artifact-1",
  "contractName": "Game",
  "sourceName": "contracts/game/Game.sol",
  "abi": [
    {
      "inputs": [
        {
          "internalType": "address",
          "name": "_landToken",
          "type": "address"
        },
        {
          "internalType": "address",
          "name": "_settingAddress",
          "type": "address"
        },
        {
          "internalType": "address",
          "name": "_houseAddress",
          "type": "address"
        },
        {
          "internalType": "address",
          "name": "_helperAddress",
          "type": "address"
        },
        {
          "internalType": "address",
          "name": "_validatorAddress",
          "type": "address"
        }
      ],
      "stateMutability": "nonpayable",
      "type": "constructor"
    },
    {
      "anonymous": false,
      "inputs": [
        {
          "indexed": true,
          "internalType": "address",
          "name": "user",
          "type": "address"
        },
        {
          "indexed": true,
          "internalType": "uint256",
          "name": "tokenId",
          "type": "uint256"
        }
      ],
      "name": "Activate",
      "type": "event"
    },
    {
      "anonymous": false,
      "inputs": [
        {
          "indexed": true,
          "internalType": "address",
          "name": "user",
          "type": "address"
        },
        {
          "indexed": true,
          "internalType": "uint256",
          "name": "tokenId",
          "type": "uint256"
        },
        {
          "indexed": false,
          "internalType": "uint256",
          "name": "lumber",
          "type": "uint256"
        },
        {
          "indexed": false,
          "internalType": "uint256",
          "name": "power",
          "type": "uint256"
        }
      ],
      "name": "BurnLumber",
      "type": "event"
    },
    {
      "anonymous": false,
      "inputs": [
        {
          "indexed": true,
          "internalType": "address",
          "name": "user",
          "type": "address"
        },
        {
          "indexed": true,
          "internalType": "uint256",
          "name": "tokenId",
          "type": "uint256"
        },
        {
          "indexed": false,
          "internalType": "uint256",
          "name": "addonId",
          "type": "uint256"
        }
      ],
      "name": "BuyAddon",
      "type": "event"
    },
    {
      "anonymous": false,
      "inputs": [
        {
          "indexed": true,
          "internalType": "address",
          "name": "user",
          "type": "address"
        },
        {
          "indexed": true,
          "internalType": "uint256",
          "name": "tokenId",
          "type": "uint256"
        }
      ],
      "name": "BuyFireplace",
      "type": "event"
    },
    {
      "anonymous": false,
      "inputs": [
        {
          "indexed": true,
          "internalType": "address",
          "name": "user",
          "type": "address"
        },
        {
          "indexed": true,
          "internalType": "uint256",
          "name": "tokenId",
          "type": "uint256"
        }
      ],
      "name": "BuyHarvester",
      "type": "event"
    },
    {
      "anonymous": false,
      "inputs": [
        {
          "indexed": true,
          "internalType": "address",
          "name": "user",
          "type": "address"
        },
        {
          "indexed": false,
          "internalType": "uint256",
          "name": "landtoken",
          "type": "uint256"
        },
        {
          "indexed": false,
          "internalType": "uint256",
          "name": "power",
          "type": "uint256"
        }
      ],
      "name": "BuyPower",
      "type": "event"
    },
    {
      "anonymous": false,
      "inputs": [
        {
          "indexed": true,
          "internalType": "address",
          "name": "user",
          "type": "address"
        },
        {
          "indexed": true,
          "internalType": "uint256",
          "name": "tokenId",
          "type": "uint256"
        },
        {
          "indexed": false,
          "internalType": "uint256",
          "name": "facilityType",
          "type": "uint256"
        }
      ],
      "name": "BuyResourceOverdrive",
      "type": "event"
    },
    {
      "anonymous": false,
      "inputs": [
        {
          "indexed": true,
          "internalType": "address",
          "name": "user",
          "type": "address"
        },
        {
          "indexed": true,
          "internalType": "uint256",
          "name": "tokenId",
          "type": "uint256"
        }
      ],
      "name": "BuyTokenOverdrive",
      "type": "event"
    },
    {
      "anonymous": false,
      "inputs": [
        {
          "indexed": true,
          "internalType": "address",
          "name": "user",
          "type": "address"
        },
        {
          "indexed": true,
          "internalType": "uint256",
          "name": "tokenId",
          "type": "uint256"
        },
        {
          "indexed": false,
          "internalType": "uint256",
          "name": "_type",
          "type": "uint256"
        }
      ],
      "name": "BuyToolshed",
      "type": "event"
    },
    {
      "anonymous": false,
      "inputs": [
        {
          "indexed": true,
          "internalType": "address",
          "name": "user",
          "type": "address"
        },
        {
          "indexed": true,
          "internalType": "uint256",
          "name": "tokenId",
          "type": "uint256"
        }
      ],
      "name": "ConcreteFoundation",
      "type": "event"
    },
    {
      "anonymous": false,
      "inputs": [
        {
          "indexed": true,
          "internalType": "address",
          "name": "user",
          "type": "address"
        },
        {
          "indexed": true,
          "internalType": "uint256",
          "name": "tokenId",
          "type": "uint256"
        }
      ],
      "name": "FertilizeGarden",
      "type": "event"
    },
    {
      "anonymous": false,
      "inputs": [
        {
          "indexed": true,
          "internalType": "address",
          "name": "user",
          "type": "address"
        },
        {
          "indexed": true,
          "internalType": "uint256",
          "name": "tokenId",
          "type": "uint256"
        },
        {
          "indexed": false,
          "internalType": "uint256",
          "name": "_type",
          "type": "uint256"
        }
      ],
      "name": "Fortify",
      "type": "event"
    },
    {
      "anonymous": false,
      "inputs": [
        {
          "indexed": true,
          "internalType": "address",
          "name": "user",
          "type": "address"
        },
        {
          "indexed": true,
          "internalType": "uint256",
          "name": "tokenId",
          "type": "uint256"
        },
        {
          "indexed": false,
          "internalType": "uint256",
          "name": "lumberAmount",
          "type": "uint256"
        }
      ],
      "name": "FrontloadFirepit",
      "type": "event"
    },
    {
      "anonymous": false,
      "inputs": [
        {
          "indexed": true,
          "internalType": "address",
          "name": "user",
          "type": "address"
        },
        {
          "indexed": false,
          "internalType": "uint256",
          "name": "lumberAmount",
          "type": "uint256"
        },
        {
          "indexed": false,
          "internalType": "uint256",
          "name": "powerAmount",
          "type": "uint256"
        }
      ],
      "name": "GatherLumber",
      "type": "event"
    },
    {
      "anonymous": false,
      "inputs": [
        {
          "indexed": true,
          "internalType": "address",
          "name": "user",
          "type": "address"
        },
        {
          "indexed": true,
          "internalType": "uint256",
          "name": "tokenId",
          "type": "uint256"
        },
        {
          "indexed": false,
          "internalType": "uint256[5]",
          "name": "harvestedResource",
          "type": "uint256[5]"
        }
      ],
      "name": "Harvest",
      "type": "event"
    },
    {
      "anonymous": false,
      "inputs": [
        {
          "indexed": true,
          "internalType": "address",
          "name": "user",
          "type": "address"
        },
        {
          "indexed": true,
          "internalType": "uint256",
          "name": "tokenId",
          "type": "uint256"
        }
      ],
      "name": "OffSale",
      "type": "event"
    },
    {
      "anonymous": false,
      "inputs": [
        {
          "indexed": true,
          "internalType": "address",
          "name": "user",
          "type": "address"
        },
        {
          "indexed": true,
          "internalType": "uint256",
          "name": "tokenId",
          "type": "uint256"
        },
        {
          "indexed": true,
          "internalType": "uint256",
          "name": "price",
          "type": "uint256"
        }
      ],
      "name": "OnSale",
      "type": "event"
    },
    {
      "anonymous": false,
      "inputs": [
        {
          "indexed": true,
          "internalType": "address",
          "name": "previousOwner",
          "type": "address"
        },
        {
          "indexed": true,
          "internalType": "address",
          "name": "newOwner",
          "type": "address"
        }
      ],
      "name": "OwnershipTransferred",
      "type": "event"
    },
    {
      "anonymous": false,
      "inputs": [
        {
          "indexed": true,
          "internalType": "address",
          "name": "user",
          "type": "address"
        },
        {
          "indexed": true,
          "internalType": "uint256",
          "name": "tokenId",
          "type": "uint256"
        },
        {
          "indexed": false,
          "internalType": "uint256",
          "name": "amount",
          "type": "uint256"
        }
      ],
      "name": "Repair",
      "type": "event"
    },
    {
      "anonymous": false,
      "inputs": [
        {
          "indexed": true,
          "internalType": "address",
          "name": "user",
          "type": "address"
        },
        {
          "indexed": true,
          "internalType": "uint256",
          "name": "tokenId",
          "type": "uint256"
        }
      ],
      "name": "RepairByHandyman",
      "type": "event"
    },
    {
      "anonymous": false,
      "inputs": [
        {
          "indexed": true,
          "internalType": "address",
          "name": "user",
          "type": "address"
        },
        {
          "indexed": true,
          "internalType": "uint256",
          "name": "tokenId",
          "type": "uint256"
        },
        {
          "indexed": false,
          "internalType": "uint256",
          "name": "addonId",
          "type": "uint256"
        }
      ],
      "name": "SalvageAddon",
      "type": "event"
    },
    {
      "anonymous": false,
      "inputs": [
        {
          "indexed": true,
          "internalType": "address",
          "name": "user",
          "type": "address"
        },
        {
          "indexed": true,
          "internalType": "uint256",
          "name": "tokenId",
          "type": "uint256"
        },
        {
          "indexed": false,
          "internalType": "uint256",
          "name": "_fromType",
          "type": "uint256"
        },
        {
          "indexed": false,
          "internalType": "uint256",
          "name": "_toType",
          "type": "uint256"
        }
      ],
      "name": "SwitchToolshed",
      "type": "event"
    },
    {
      "anonymous": false,
      "inputs": [
        {
          "indexed": true,
          "internalType": "address",
          "name": "user",
          "type": "address"
        },
        {
          "indexed": false,
          "internalType": "uint256[5]",
          "name": "updatedResource",
          "type": "uint256[5]"
        }
      ],
      "name": "UpdateResource",
      "type": "event"
    },
    {
      "anonymous": false,
      "inputs": [
        {
          "indexed": true,
          "internalType": "address",
          "name": "user",
          "type": "address"
        },
        {
          "indexed": true,
          "internalType": "uint256",
          "name": "tokenId",
          "type": "uint256"
        },
        {
          "indexed": false,
          "internalType": "uint256",
          "name": "_type",
          "type": "uint256"
        },
        {
          "indexed": false,
          "internalType": "uint256",
          "name": "level",
          "type": "uint256"
        }
      ],
      "name": "UpgradeFacility",
      "type": "event"
    },
    {
      "inputs": [
        {
          "internalType": "address",
          "name": "user",
          "type": "address"
        },
        {
          "internalType": "uint256",
          "name": "tokenId",
          "type": "uint256"
        },
        {
          "internalType": "uint256",
          "name": "powerAmount",
          "type": "uint256"
        }
      ],
      "name": "activateHouse",
      "outputs": [],
      "stateMutability": "nonpayable",
      "type": "function"
    },
    {
      "inputs": [
        {
          "internalType": "address",
          "name": "user",
          "type": "address"
        },
        {
          "internalType": "uint256[5]",
          "name": "resource",
          "type": "uint256[5]"
        }
      ],
      "name": "addResourceByAdmin",
      "outputs": [],
      "stateMutability": "nonpayable",
      "type": "function"
    },
    {
      "inputs": [
        {
          "internalType": "address",
          "name": "user",
          "type": "address"
        },
        {
          "internalType": "uint256",
          "name": "tokenId",
          "type": "uint256"
        },
        {
          "internalType": "uint256",
          "name": "lumber",
          "type": "uint256"
        },
        {
          "internalType": "uint256",
          "name": "generatedPower",
          "type": "uint256"
        },
        {
          "internalType": "uint256",
          "name": "powerAmount",
          "type": "uint256"
        }
      ],
      "name": "burnLumberToMakePower",
      "outputs": [],
      "stateMutability": "nonpayable",
      "type": "function"
    },
    {
      "inputs": [
        {
          "internalType": "address",
          "name": "user",
          "type": "address"
        },
        {
          "internalType": "uint256",
          "name": "tokenId",
          "type": "uint256"
        },
        {
          "internalType": "uint256",
          "name": "addonId",
          "type": "uint256"
        },
        {
          "internalType": "uint256[5]",
          "name": "cost",
          "type": "uint256[5]"
        },
        {
          "internalType": "uint256",
          "name": "powerAmount",
          "type": "uint256"
        }
      ],
      "name": "buyAddon",
      "outputs": [],
      "stateMutability": "nonpayable",
      "type": "function"
    },
    {
      "inputs": [
        {
          "internalType": "address",
          "name": "user",
          "type": "address"
        },
        {
          "internalType": "uint256",
          "name": "tokenId",
          "type": "uint256"
        },
        {
          "internalType": "uint256[5]",
          "name": "cost",
          "type": "uint256[5]"
        },
        {
          "internalType": "uint256",
          "name": "powerAmount",
          "type": "uint256"
        }
      ],
      "name": "buyConcreteFoundation",
      "outputs": [],
      "stateMutability": "nonpayable",
      "type": "function"
    },
    {
      "inputs": [
        {
          "internalType": "address",
          "name": "user",
          "type": "address"
        },
        {
          "internalType": "uint256",
          "name": "tokenId",
          "type": "uint256"
        },
        {
          "internalType": "uint256[5]",
          "name": "cost",
          "type": "uint256[5]"
        },
        {
          "internalType": "uint256",
          "name": "powerAmount",
          "type": "uint256"
        }
      ],
      "name": "buyFireplace",
      "outputs": [],
      "stateMutability": "nonpayable",
      "type": "function"
    },
    {
      "inputs": [
        {
          "internalType": "address",
          "name": "user",
          "type": "address"
        },
        {
          "internalType": "uint256",
          "name": "tokenId",
          "type": "uint256"
        },
        {
          "internalType": "uint256[5]",
          "name": "cost",
          "type": "uint256[5]"
        },
        {
          "internalType": "uint256",
          "name": "powerAmount",
          "type": "uint256"
        }
      ],
      "name": "buyHarvester",
      "outputs": [],
      "stateMutability": "nonpayable",
      "type": "function"
    },
    {
      "inputs": [
        {
          "internalType": "uint256",
          "name": "amount",
          "type": "uint256"
        },
        {
          "internalType": "uint256",
          "name": "tokenId",
          "type": "uint256"
        }
      ],
      "name": "buyPowerWithLandtoken",
      "outputs": [],
      "stateMutability": "payable",
      "type": "function"
    },
    {
      "inputs": [
        {
          "internalType": "address",
          "name": "user",
          "type": "address"
        },
        {
          "internalType": "uint256",
          "name": "tokenId",
          "type": "uint256"
        },
        {
          "internalType": "uint256",
          "name": "facilityType",
          "type": "uint256"
        },
        {
          "internalType": "uint256",
          "name": "powerAmount",
          "type": "uint256"
        }
      ],
      "name": "buyResourceOverdrive",
      "outputs": [],
      "stateMutability": "nonpayable",
      "type": "function"
    },
    {
      "inputs": [
        {
          "internalType": "address",
          "name": "user",
          "type": "address"
        },
        {
          "internalType": "uint256",
          "name": "tokenId",
          "type": "uint256"
        },
        {
          "internalType": "uint256",
          "name": "powerAmount",
          "type": "uint256"
        }
      ],
      "name": "buyTokenOverdrive",
      "outputs": [],
      "stateMutability": "nonpayable",
      "type": "function"
    },
    {
      "inputs": [
        {
          "internalType": "address",
          "name": "user",
          "type": "address"
        },
        {
          "internalType": "uint256",
          "name": "tokenId",
          "type": "uint256"
        },
        {
          "internalType": "uint256",
          "name": "_type",
          "type": "uint256"
        },
        {
          "internalType": "uint256[5]",
          "name": "cost",
          "type": "uint256[5]"
        },
        {
          "internalType": "uint256",
          "name": "powerAmount",
          "type": "uint256"
        }
      ],
      "name": "buyToolshed",
      "outputs": [],
      "stateMutability": "nonpayable",
      "type": "function"
    },
    {
      "inputs": [
        {
          "internalType": "address",
          "name": "user",
          "type": "address"
        },
        {
          "internalType": "uint256",
          "name": "tokenId",
          "type": "uint256"
        },
        {
          "internalType": "uint256[5]",
          "name": "cost",
          "type": "uint256[5]"
        },
        {
          "internalType": "uint256",
          "name": "powerAmount",
          "type": "uint256"
        }
      ],
      "name": "fertilizeGarden",
      "outputs": [],
      "stateMutability": "nonpayable",
      "type": "function"
    },
    {
      "inputs": [
        {
          "internalType": "address",
          "name": "user",
          "type": "address"
        },
        {
          "internalType": "uint256",
          "name": "tokenId",
          "type": "uint256"
        },
        {
          "internalType": "uint256",
          "name": "_type",
          "type": "uint256"
        },
        {
          "internalType": "uint256[5]",
          "name": "cost",
          "type": "uint256[5]"
        },
        {
          "internalType": "uint256",
          "name": "powerAmount",
          "type": "uint256"
        }
      ],
      "name": "fortify",
      "outputs": [],
      "stateMutability": "nonpayable",
      "type": "function"
    },
    {
      "inputs": [
        {
          "internalType": "address",
          "name": "user",
          "type": "address"
        },
        {
          "internalType": "uint256",
          "name": "tokenId",
          "type": "uint256"
        },
        {
          "internalType": "uint256",
          "name": "lumberAmount",
          "type": "uint256"
        },
        {
          "internalType": "uint256",
          "name": "powerAmount",
          "type": "uint256"
        }
      ],
      "name": "frontLoadFirepit",
      "outputs": [],
      "stateMutability": "nonpayable",
      "type": "function"
    },
    {
      "inputs": [
        {
          "internalType": "address",
          "name": "user",
          "type": "address"
        },
        {
          "internalType": "uint256",
          "name": "tokenId",
          "type": "uint256"
        },
        {
          "internalType": "uint256",
          "name": "amount",
          "type": "uint256"
        },
        {
          "internalType": "uint256",
          "name": "powerAmount",
          "type": "uint256"
        }
      ],
      "name": "gatherLumberWithPower",
      "outputs": [],
      "stateMutability": "nonpayable",
      "type": "function"
    },
    {
      "inputs": [
        {
          "internalType": "address",
          "name": "user",
          "type": "address"
        }
      ],
      "name": "getLastGatherLumberTime",
      "outputs": [
        {
          "internalType": "uint256[3]",
          "name": "",
          "type": "uint256[3]"
        }
      ],
      "stateMutability": "view",
      "type": "function"
    },
    {
      "inputs": [
        {
          "internalType": "address",
          "name": "user",
          "type": "address"
        },
        {
          "internalType": "uint256",
          "name": "tokenId",
          "type": "uint256"
        }
      ],
      "name": "getResource",
      "outputs": [
        {
          "internalType": "uint256[5]",
          "name": "",
          "type": "uint256[5]"
        }
      ],
      "stateMutability": "view",
      "type": "function"
    },
    {
      "inputs": [
        {
          "internalType": "address",
          "name": "user",
          "type": "address"
        },
        {
          "internalType": "uint256",
          "name": "tokenId",
          "type": "uint256"
        },
        {
          "internalType": "bool[5]",
          "name": "harvestingReward",
          "type": "bool[5]"
        },
        {
          "internalType": "uint256[5]",
          "name": "resourceReward",
          "type": "uint256[5]"
        },
        {
          "internalType": "uint256",
          "name": "harvestTokenAmount",
          "type": "uint256"
        },
        {
          "internalType": "uint256",
          "name": "deadTime",
          "type": "uint256"
        },
        {
          "internalType": "uint256",
          "name": "powerCost",
          "type": "uint256"
        },
        {
          "internalType": "uint256",
          "name": "powerAmount",
          "type": "uint256"
        }
      ],
      "name": "harvest",
      "outputs": [],
      "stateMutability": "nonpayable",
      "type": "function"
    },
    {
      "inputs": [
        {
          "internalType": "uint256",
          "name": "tokenId",
          "type": "uint256"
        }
      ],
      "name": "hireHandyman",
      "outputs": [],
      "stateMutability": "payable",
      "type": "function"
    },
    {
      "inputs": [
        {
          "internalType": "address",
          "name": "user",
          "type": "address"
        },
        {
          "internalType": "uint256",
          "name": "tokenId",
          "type": "uint256"
        }
      ],
      "name": "offSale",
      "outputs": [],
      "stateMutability": "nonpayable",
      "type": "function"
    },
    {
      "inputs": [
        {
          "internalType": "address",
          "name": "user",
          "type": "address"
        },
        {
          "internalType": "uint256",
          "name": "tokenId",
          "type": "uint256"
        },
        {
          "internalType": "uint256",
          "name": "amount",
          "type": "uint256"
        }
      ],
      "name": "onSale",
      "outputs": [],
      "stateMutability": "nonpayable",
      "type": "function"
    },
    {
      "inputs": [],
      "name": "owner",
      "outputs": [
        {
          "internalType": "address",
          "name": "",
          "type": "address"
        }
      ],
      "stateMutability": "view",
      "type": "function"
    },
    {
      "inputs": [],
      "name": "renounceOwnership",
      "outputs": [],
      "stateMutability": "nonpayable",
      "type": "function"
    },
    {
      "inputs": [
        {
          "internalType": "address",
          "name": "user",
          "type": "address"
        },
        {
          "internalType": "uint256",
          "name": "tokenId",
          "type": "uint256"
        },
        {
          "internalType": "uint256",
          "name": "percent",
          "type": "uint256"
        },
        {
          "internalType": "uint256",
          "name": "curDurability",
          "type": "uint256"
        },
        {
          "internalType": "uint256[5]",
          "name": "repairCost",
          "type": "uint256[5]"
        },
        {
          "internalType": "uint256",
          "name": "powerAmount",
          "type": "uint256"
        }
      ],
      "name": "repair",
      "outputs": [],
      "stateMutability": "nonpayable",
      "type": "function"
    },
    {
      "inputs": [
        {
          "internalType": "address",
          "name": "user",
          "type": "address"
        },
        {
          "internalType": "uint256",
          "name": "tokenId",
          "type": "uint256"
        },
        {
          "internalType": "uint256",
          "name": "addonId",
          "type": "uint256"
        },
        {
          "internalType": "uint256[5]",
          "name": "salvageCost",
          "type": "uint256[5]"
        },
        {
          "internalType": "uint256[5]",
          "name": "sellCost",
          "type": "uint256[5]"
        },
        {
          "internalType": "uint256",
          "name": "powerAmount",
          "type": "uint256"
        }
      ],
      "name": "salvageAddon",
      "outputs": [],
      "stateMutability": "nonpayable",
      "type": "function"
    },
    {
      "inputs": [
        {
          "internalType": "address",
          "name": "_settingAddress",
          "type": "address"
        },
        {
          "internalType": "address",
          "name": "_houseAddress",
          "type": "address"
        },
        {
          "internalType": "address",
          "name": "_helperAddress",
          "type": "address"
        },
        {
          "internalType": "address",
          "name": "_stakeAddress",
          "type": "address"
        },
        {
          "internalType": "address",
          "name": "_validatorAddress",
          "type": "address"
        },
        {
          "internalType": "address",
          "name": "_backendAddress",
          "type": "address"
        }
      ],
      "name": "setContractAddress",
      "outputs": [],
      "stateMutability": "nonpayable",
      "type": "function"
    },
    {
      "inputs": [
        {
          "internalType": "address",
          "name": "_marketplaceAddress",
          "type": "address"
        }
      ],
      "name": "setMarketplaceContract",
      "outputs": [],
      "stateMutability": "nonpayable",
      "type": "function"
    },
    {
      "inputs": [
        {
          "internalType": "address",
          "name": "user",
          "type": "address"
        },
        {
          "internalType": "uint256",
          "name": "tokenId",
          "type": "uint256"
        },
        {
          "internalType": "uint256",
          "name": "_type",
          "type": "uint256"
        },
        {
          "internalType": "uint256",
          "name": "activeToolshedType",
          "type": "uint256"
        },
        {
          "internalType": "uint256[5]",
          "name": "cost",
          "type": "uint256[5]"
        },
        {
          "internalType": "uint256",
          "name": "powerAmount",
          "type": "uint256"
        }
      ],
      "name": "switchToolshed",
      "outputs": [],
      "stateMutability": "nonpayable",
      "type": "function"
    },
    {
      "inputs": [
        {
          "internalType": "address",
          "name": "newOwner",
          "type": "address"
        }
      ],
      "name": "transferOwnership",
      "outputs": [],
      "stateMutability": "nonpayable",
      "type": "function"
    },
    {
      "inputs": [
        {
          "internalType": "address",
          "name": "user",
          "type": "address"
        },
        {
          "internalType": "uint256",
          "name": "tokenId",
          "type": "uint256"
        },
        {
          "internalType": "uint256",
          "name": "facilityType",
          "type": "uint256"
        },
        {
          "internalType": "uint256[5]",
          "name": "cost",
          "type": "uint256[5]"
        },
        {
          "internalType": "uint256",
          "name": "facilityLevel",
          "type": "uint256"
        },
        {
          "internalType": "uint256",
          "name": "powerAmount",
          "type": "uint256"
        }
      ],
      "name": "upgradeFacility",
      "outputs": [],
      "stateMutability": "nonpayable",
      "type": "function"
    },
    {
      "inputs": [
        {
          "internalType": "address",
          "name": "",
          "type": "address"
        },
        {
          "internalType": "uint256",
          "name": "",
          "type": "uint256"
        }
      ],
      "name": "userResources",
      "outputs": [
        {
          "internalType": "uint256",
          "name": "",
          "type": "uint256"
        }
      ],
      "stateMutability": "view",
      "type": "function"
    },
    {
      "inputs": [
        {
          "internalType": "uint256",
          "name": "amount",
          "type": "uint256"
        }
      ],
      "name": "withdrawLandToken",
      "outputs": [],
      "stateMutability": "nonpayable",
      "type": "function"
    }
  ],
  "bytecode": "0x60806040523480156200001157600080fd5b50604051620035243803806200352483398101604081905262000034916200011f565b838383838383836200004633620000b2565b600180546001600160a01b03199081166001600160a01b0395861617909155600280548216938516939093179092556003805483169184169190911790556007805482169383169390931790925560068054909216991698909817909755506200018e95505050505050565b600080546001600160a01b038381166001600160a01b0319831681178455604051919092169283917f8be0079c531659141344cd1fd0a4f28419497f9722a3daafe3b4186f6b6457e09190a35050565b80516001600160a01b03811681146200011a57600080fd5b919050565b600080600080600060a0868803121562000137578081fd5b620001428662000102565b9450620001526020870162000102565b9350620001626040870162000102565b9250620001726060870162000102565b9150620001826080870162000102565b90509295509295909350565b613386806200019e6000396000f3fe6080604052600436106101e35760003560e01c80637ca061d211610102578063cfa6988011610095578063e8aa7e3311610064578063e8aa7e331461057e578063f2fde38b1461059e578063f44bb616146105be578063f49a8960146105de57600080fd5b8063cfa698801461050b578063dd1e6ade1461052b578063df1295c11461054b578063e45a6c201461055e57600080fd5b80639c323a0c116100d15780639c323a0c1461047e578063ad1e828b1461049e578063b0b8c27a146104be578063bc578276146104de57600080fd5b80637ca061d2146103f657806387b5dd85146104165780638da5cb5b14610436578063912ddf2c1461045e57600080fd5b806362e1a8061161017a578063742a0aeb11610149578063742a0aeb146103765780637b5cfdf8146103965780637b693232146103b65780637befd7ab146103d657600080fd5b806362e1a806146102dd5780636ebbc336146103135780637018579614610333578063715018a61461036157600080fd5b80633cf87325116101b65780633cf873251461025d57806344e9b4f51461027d5780634bcaa5431461029d5780635aef27f8146102bd57600080fd5b8063014fd0ca146101e857806306bec8521461020a5780630e1948751461021d5780631102610e1461023d575b600080fd5b3480156101f457600080fd5b50610208610203366004612ebd565b6105fe565b005b610208610218366004613149565b6106d5565b34801561022957600080fd5b50610208610238366004613035565b610918565b34801561024957600080fd5b50610208610258366004612cc7565b610a0c565b34801561026957600080fd5b50610208610278366004612e78565b610a58565b34801561028957600080fd5b50610208610298366004613119565b610b28565b3480156102a957600080fd5b506102086102b8366004612ce8565b610ca3565b3480156102c957600080fd5b506102086102d8366004612ffd565b610d3b565b3480156102e957600080fd5b506102fd6102f8366004612cc7565b610e50565b60405161030a919061316a565b60405180910390f35b34801561031f57600080fd5b5061020861032e366004612d5b565b610ea2565b34801561033f57600080fd5b5061035361034e366004612d8e565b610f74565b60405190815260200161030a565b34801561036d57600080fd5b50610208610f99565b34801561038257600080fd5b50610208610391366004612ffd565b610fcf565b3480156103a257600080fd5b506102086103b1366004612f52565b6110f2565b3480156103c257600080fd5b506102086103d1366004612e78565b6111c9565b3480156103e257600080fd5b506102086103f1366004612d8e565b6112a0565b34801561040257600080fd5b50610208610411366004612eef565b6113e6565b34801561042257600080fd5b50610208610431366004612ebd565b6114ce565b34801561044257600080fd5b506000546040516001600160a01b03909116815260200161030a565b34801561046a57600080fd5b50610208610479366004612ffd565b6115b6565b34801561048a57600080fd5b5061020861049936600461308f565b61175f565b3480156104aa57600080fd5b506102086104b9366004612db7565b611836565b3480156104ca57600080fd5b506102086104d9366004612e78565b611ad2565b3480156104ea57600080fd5b506104fe6104f9366004612d8e565b611ba9565b60405161030a919061319b565b34801561051757600080fd5b50610208610526366004612f52565b611c9f565b34801561053757600080fd5b50610208610546366004612fa2565b611d76565b610208610559366004613119565b611e60565b34801561056a57600080fd5b50610208610579366004612e78565b612010565b34801561058a57600080fd5b50610208610599366004612ebd565b6120e7565b3480156105aa57600080fd5b506102086105b9366004612cc7565b612237565b3480156105ca57600080fd5b506102086105d9366004613035565b6122d2565b3480156105ea57600080fd5b506102086105f9366004612f52565b6123b0565b6008546001600160a01b031633146106315760405162461bcd60e51b8152600401610628906131eb565b60405180910390fd5b61063c83838361248e565b600254604051635930621560e11b8152600481018490526001600160a01b039091169063b260c42a90602401600060405180830381600087803b15801561068257600080fd5b505af1158015610696573d6000803e3d6000fd5b50506040518492506001600160a01b03861691507ffbd0a3f6e9a0dd5f834515748047e83de8064477489a0a0d6b59c64bbecc992a90600090a3505050565b60025433600090815260046020819052604080832054905163c021137960e01b815291820185905260248201529091829182916001600160a01b03169063c02113799060440160206040518083038186803b15801561073357600080fd5b505afa158015610747573d6000803e3d6000fd5b505050506040513d601f19601f8201168201806040525081019061076b9190613131565b6007546040516357133d1560e11b81526004810187905260248101889052604481018390523360648201529192506001600160a01b03169063ae267a2a90608401604080518083038186803b1580156107c357600080fd5b505afa1580156107d7573d6000803e3d6000fd5b505050506040513d601f19601f820116820180604052508101906107fb91906130ec565b90935091508261080c575050505050565b6006546040516323b872dd60e01b8152336004820152306024820152604481018790526001600160a01b03909116906323b872dd90606401602060405180830381600087803b15801561085e57600080fd5b505af1158015610872573d6000803e3d6000fd5b505050506040513d601f19601f8201168201806040525081019061089691906130d0565b506108a233858361248e565b6108d6336040518060a00160405280858152602001600081526020016000815260200160008152602001600081525061250d565b604080518681526020810184905233917f07bc214b106688dd0965ef995b060d8c78060c04dfe021ae8804f26cd6463994910160405180910390a25050505050565b6008546001600160a01b031633146109425760405162461bcd60e51b8152600401610628906131eb565b61094e8686848461262b565b6002546001600160a01b031663c782702b8661096a87876132c3565b6040516001600160e01b031960e085901b16815260048101929092526024820152604401600060405180830381600087803b1580156109a857600080fd5b505af11580156109bc573d6000803e3d6000fd5b5050505084866001600160a01b03167f5a88f555591cc7e4de4755fb1b1f1399fac7969e5ff44858f366aa270ce7425a866040516109fc91815260200190565b60405180910390a3505050505050565b6000546001600160a01b03163314610a365760405162461bcd60e51b815260040161062890613216565b600980546001600160a01b0319166001600160a01b0392909216919091179055565b6008546001600160a01b03163314610a825760405162461bcd60e51b8152600401610628906131eb565b610a8e8484848461262b565b60025460405163f2406fd960e01b8152600481018590526001600160a01b039091169063f2406fd990602401600060405180830381600087803b158015610ad457600080fd5b505af1158015610ae8573d6000803e3d6000fd5b50506040518592506001600160a01b03871691507f7d73dd1d228945d647d7b3f1931d3f08e0761b57ce63f7707ebafbd2f2e534fe90600090a350505050565b6000546001600160a01b03163314610b525760405162461bcd60e51b815260040161062890613216565b6006546040516370a0823160e01b815230600482015282916001600160a01b0316906370a082319060240160206040518083038186803b158015610b9557600080fd5b505afa158015610ba9573d6000803e3d6000fd5b505050506040513d601f19601f82011682018060405250810190610bcd9190613131565b1015610c1b5760405162461bcd60e51b815260206004820152601b60248201527f4e6f7420656e6f756768206f6620746f6b656e2062616c616e636500000000006044820152606401610628565b60065460405163a9059cbb60e01b8152336004820152602481018390526001600160a01b039091169063a9059cbb90604401602060405180830381600087803b158015610c6757600080fd5b505af1158015610c7b573d6000803e3d6000fd5b505050506040513d601f19601f82011682018060405250810190610c9f91906130d0565b5050565b6000546001600160a01b03163314610ccd5760405162461bcd60e51b815260040161062890613216565b600180546001600160a01b03199081166001600160a01b03988916179091556002805482169688169690961790955560038054861694871694909417909355600780548516918616919091179055600a80548416918516919091179055600880549092169216919091179055565b6008546001600160a01b03163314610d655760405162461bcd60e51b8152600401610628906131eb565b60006040518060a0016040528060008152602001848152602001600081526020016000815260200160008152509050610da08585838561262b565b600254604051630656df1f60e01b815260048101869052602481018590526001600160a01b0390911690630656df1f90604401600060405180830381600087803b158015610ded57600080fd5b505af1158015610e01573d6000803e3d6000fd5b5050505083856001600160a01b03167fc6ef636afa15d38d8bc37b5373eee0731eb8749918e6d7fa7827bd074870a88185604051610e4191815260200190565b60405180910390a35050505050565b610e58612c1a565b6001600160a01b03821660009081526005602052604090819020815160608101928390529160039082845b815481526020019060010190808311610e835750505050509050919050565b6000546001600160a01b03163314610ecc5760405162461bcd60e51b815260040161062890613216565b60005b6005811015610f6f57670de0b6b3a7640000828260058110610f0157634e487b7160e01b600052603260045260246000fd5b6020020151610f1091906132db565b6001600160a01b03841660009081526004602052604090208260058110610f4757634e487b7160e01b600052603260045260246000fd5b016000828254610f5791906132c3565b90915550819050610f6781613311565b915050610ecf565b505050565b60046020528160005260406000208160058110610f9057600080fd5b01549150829050565b6000546001600160a01b03163314610fc35760405162461bcd60e51b815260040161062890613216565b610fcd60006129ca565b565b6008546001600160a01b03163314610ff95760405162461bcd60e51b8152600401610628906131eb565b61104384846040518060a00160405280670de0b6b3a7640000600f61101e91906132db565b815260200160008152602001600081526020016000815260200160008152508461262b565b600254604051630edf63cd60e41b815260048101859052602481018490526001600160a01b039091169063edf63cd090604401600060405180830381600087803b15801561109057600080fd5b505af11580156110a4573d6000803e3d6000fd5b5050505082846001600160a01b03167fc2328c1040bd829a83c80d17c293ba966db14f64769e79bf01e6e24248039980846040516110e491815260200190565b60405180910390a350505050565b6008546001600160a01b0316331461111c5760405162461bcd60e51b8152600401610628906131eb565b6111288585848461262b565b6002546040516342d691a560e01b815260048101869052602481018590526001600160a01b03909116906342d691a590604401600060405180830381600087803b15801561117557600080fd5b505af1158015611189573d6000803e3d6000fd5b5050505083856001600160a01b03167fc588ed82990f1dc2b9b0e0a8a4ba46a4f8cad2f1d3edafdf8d9bb50373825b9d85604051610e4191815260200190565b6008546001600160a01b031633146111f35760405162461bcd60e51b8152600401610628906131eb565b6111ff8484848461262b565b60025460405163f041c79960e01b815260048101859052600160248201526001600160a01b039091169063f041c79990604401600060405180830381600087803b15801561124c57600080fd5b505af1158015611260573d6000803e3d6000fd5b50506040518592506001600160a01b03871691507ff49d4362475613cf4329a3136ed482d4a935fd569065df2eebecb75aec44ec2690600090a350505050565b6008546001600160a01b031633146112ca5760405162461bcd60e51b8152600401610628906131eb565b600254604051639bac0b6360e01b815260048101839052600060248201526001600160a01b0390911690639bac0b6390604401600060405180830381600087803b15801561131757600080fd5b505af115801561132b573d6000803e3d6000fd5b5050600954604051637132917160e01b8152600481018590526001600160a01b0390911692506371329171915060240160206040518083038186803b15801561137357600080fd5b505afa158015611387573d6000803e3d6000fd5b505050506040513d601f19601f820116820180604052508101906113ab9190613131565b5060405181906001600160a01b038416907f6a70ef5e3ae6ca2a87f56abe5fb27baf70a2dfdd7a3884810c61fa7d76b4585c90600090a35050565b6008546001600160a01b031633146114105760405162461bcd60e51b8152600401610628906131eb565b61141c8686848461262b565b600254604051636821b20560e11b81526004810187905260006024820152604481018690526001600160a01b039091169063d043640a90606401600060405180830381600087803b15801561147057600080fd5b505af1158015611484573d6000803e3d6000fd5b50505050611492868461250d565b84866001600160a01b03167f51679ec55bd8602a2cf63d10ede7bbd699039737cbe5d6d13522fcbbc512878f866040516109fc91815260200190565b6008546001600160a01b031633146114f85760405162461bcd60e51b8152600401610628906131eb565b61151d83836040518060a00160405280670de0b6b3a7640000600f61101e91906132db565b6002546040516338bb54c360e01b8152600481018490526001600160a01b03909116906338bb54c390602401600060405180830381600087803b15801561156357600080fd5b505af1158015611577573d6000803e3d6000fd5b50506040518492506001600160a01b03861691507fb362926bde493bd4971896f4436a1e325e2a23dbaab2f01ecee34564dc51f60890600090a3505050565b6008546001600160a01b031633146115e05760405162461bcd60e51b8152600401610628906131eb565b600082600160009054906101000a90046001600160a01b03166001600160a01b0316633d24e8c16040518163ffffffff1660e01b815260040160206040518083038186803b15801561163157600080fd5b505afa158015611645573d6000803e3d6000fd5b505050506040513d601f19601f820116820180604052508101906116699190613131565b61167391906132db565b905060006040518060a00160405280670de0b6b3a76400008461169691906132db565b8152602001600081526020016000815260200160008152602001600081525090506116c38686838661262b565b6116cc84612a1a565b611713866040518060a0016040528060008152602001670de0b6b3a7640000886116f691906132db565b81526020016000815260200160008152602001600081525061250d565b60408051858152602081018490526001600160a01b038816917f271d92af994165fae73a2bd6e3654aebd2827b552af9f2b66bd8f401c2c6a357910160405180910390a2505050505050565b6008546001600160a01b031633146117895760405162461bcd60e51b8152600401610628906131eb565b6117bf85856040518060a0016040528060008152602001878152602001600081526020016000815260200160008152508461262b565b6117f3856040518060a00160405280858152602001600081526020016000815260200160008152602001600081525061250d565b604080518481526020810184905285916001600160a01b038816917fd442f694842308359fdc8dbb4740da04dc6f1722f5a222c2e69b9190c4c7051e9101610e41565b6008546001600160a01b031633146118605760405162461bcd60e51b8152600401610628906131eb565b611868612c38565b836118a3576118a389896040518060a0016040528087815260200160008152602001600081526020016000815260200160008152508561262b565b60025460405163787110db60e11b81526001600160a01b039091169063f0e221b6906118d7908b908b908a9060040161324b565b600060405180830381600087803b1580156118f157600080fd5b505af1158015611905573d6000803e3d6000fd5b505050508660016005811061192a57634e487b7160e01b600052603260045260246000fd5b60200201518061193b575060408701515b80611947575060608701515b80611953575060808701515b156119f65760015b60058110156119eb5787816005811061198457634e487b7160e01b600052603260045260246000fd5b6020020151156119d9578681600581106119ae57634e487b7160e01b600052603260045260246000fd5b60200201518282600581106119d357634e487b7160e01b600052603260045260246000fd5b60200201525b806119e381613311565b91505061195b565b506119f6898261250d565b865115611a855760065460405163a9059cbb60e01b81526001600160a01b038b81166004830152602482018890529091169063a9059cbb90604401602060405180830381600087803b158015611a4b57600080fd5b505af1158015611a5f573d6000803e3d6000fd5b505050506040513d601f19601f82011682018060405250810190611a8391906130d0565b505b87896001600160a01b03167fc88a79bc9b9cac445480897158f1015592d6c19a511d5d971e9e2497d7ab2dbc83604051611abf919061319b565b60405180910390a3505050505050505050565b6008546001600160a01b03163314611afc5760405162461bcd60e51b8152600401610628906131eb565b611b088484848461262b565b60025460405163e978691f60e01b815260048101859052600160248201526001600160a01b039091169063e978691f90604401600060405180830381600087803b158015611b5557600080fd5b505af1158015611b69573d6000803e3d6000fd5b50506040518592506001600160a01b03871691507fa13f99de58a6beca3943c75ae7c2ada216549edccea95a17cbab20691f3dc39f90600090a350505050565b611bb1612c38565b611bb9612c38565b6001600160a01b03841660009081526004602052604090819020815160a08101928390529160059082845b815481526020019060010190808311611be45750506002546001600160a01b0389811660009081526004602081905260409182902054915163c021137960e01b81529081018b90526024810191909152959650169363c0211379935060440191505060206040518083038186803b158015611c5e57600080fd5b505afa158015611c72573d6000803e3d6000fd5b505050506040513d601f19601f82011682018060405250810190611c969190613131565b81529392505050565b6008546001600160a01b03163314611cc95760405162461bcd60e51b8152600401610628906131eb565b611cd58585848461262b565b600254604051634400f16b60e01b815260048101869052602481018590526001600160a01b0390911690634400f16b90604401600060405180830381600087803b158015611d2257600080fd5b505af1158015611d36573d6000803e3d6000fd5b5050505083856001600160a01b03167ff6471b0635d797282654d2bc3ff6aa6095ee2406ee5f6936a43f7792587dec7385604051610e4191815260200190565b6008546001600160a01b03163314611da05760405162461bcd60e51b8152600401610628906131eb565b611dac8686858461262b565b60025460405163c647f86960e01b815260048101879052602481018690526001600160a01b039091169063c647f86990604401600060405180830381600087803b158015611df957600080fd5b505af1158015611e0d573d6000803e3d6000fd5b5050505084866001600160a01b03167ff1810633c9b1f1b03cc887e918a38ccaf7541d2a0f3632c912d6fad87e054f9586856001611e4b91906132c3565b604080519283526020830191909152016109fc565b600754604051630b77f84960e01b81526004810183905233602482015260009182916001600160a01b0390911690630b77f84990604401604080518083038186803b158015611eae57600080fd5b505afa158015611ec2573d6000803e3d6000fd5b505050506040513d601f19601f82011682018060405250810190611ee691906130ec565b909250905081611ef557505050565b6006546040516323b872dd60e01b8152336004820152306024820152604481018390526001600160a01b03909116906323b872dd90606401602060405180830381600087803b158015611f4757600080fd5b505af1158015611f5b573d6000803e3d6000fd5b505050506040513d601f19601f82011682018060405250810190611f7f91906130d0565b506002546040516381696c6b60e01b8152600481018590526001600160a01b03909116906381696c6b90602401600060405180830381600087803b158015611fc657600080fd5b505af1158015611fda573d6000803e3d6000fd5b50506040518592503391507f918447c336b06e3bf32798a9edea28e49095a6d13ede436f5d8b4bb528548c6690600090a3505050565b6008546001600160a01b0316331461203a5760405162461bcd60e51b8152600401610628906131eb565b6120468484848461262b565b60025460405163648353bd60e11b815260048101859052600160248201526001600160a01b039091169063c906a77a90604401600060405180830381600087803b15801561209357600080fd5b505af11580156120a7573d6000803e3d6000fd5b50506040518592506001600160a01b03871691507fc999021d98c296bae973c2df1d012d5703973a98398e50c28bd14f98902aad1c90600090a350505050565b6008546001600160a01b031633146121115760405162461bcd60e51b8152600401610628906131eb565b600254604051639bac0b6360e01b815260048101849052600160248201526001600160a01b0390911690639bac0b6390604401600060405180830381600087803b15801561215e57600080fd5b505af1158015612172573d6000803e3d6000fd5b5050600954604051635109291960e11b815260048101869052602481018590526001600160a01b03909116925063a2125232915060440160206040518083038186803b1580156121c157600080fd5b505afa1580156121d5573d6000803e3d6000fd5b505050506040513d601f19601f820116820180604052508101906121f99190613131565b508082846001600160a01b03167f699afe974fce60a056af44e546f299e7b89c18582cdd879d47aaa81145fcadf860405160405180910390a4505050565b6000546001600160a01b031633146122615760405162461bcd60e51b815260040161062890613216565b6001600160a01b0381166122c65760405162461bcd60e51b815260206004820152602660248201527f4f776e61626c653a206e6577206f776e657220697320746865207a65726f206160448201526564647265737360d01b6064820152608401610628565b6122cf816129ca565b50565b6008546001600160a01b031633146122fc5760405162461bcd60e51b8152600401610628906131eb565b6123088686848461262b565b600254604051634400f16b60e01b815260048101879052602481018690526001600160a01b0390911690634400f16b90604401600060405180830381600087803b15801561235557600080fd5b505af1158015612369573d6000803e3d6000fd5b505060408051868152602081018890528893506001600160a01b038a1692507f7e31a94b02aa034dee3d9efa5edc27916e93189ce423c1a1cbd40bdcb30d4fef91016109fc565b6008546001600160a01b031633146123da5760405162461bcd60e51b8152600401610628906131eb565b6123e68585848461262b565b600254604051636821b20560e11b81526004810186905260016024820152604481018590526001600160a01b039091169063d043640a90606401600060405180830381600087803b15801561243a57600080fd5b505af115801561244e573d6000803e3d6000fd5b5050505083856001600160a01b03167fd942786485f5792625f73e26de6c82016c479eecb45d03717ac9f3ebbbcd920685604051610e4191815260200190565b6001600160a01b0383166000908152600460205260408120829101556002546040516301f6106f60e11b8152600481018490526001600160a01b03909116906303ec20de90602401600060405180830381600087803b1580156124f057600080fd5b505af1158015612504573d6000803e3d6000fd5b50505050505050565b60005b60058110156125d757600082826005811061253b57634e487b7160e01b600052603260045260246000fd5b602002015111156125c55781816005811061256657634e487b7160e01b600052603260045260246000fd5b602002015160046000856001600160a01b03166001600160a01b0316815260200190815260200160002082600581106125af57634e487b7160e01b600052603260045260246000fd5b0160008282546125bf91906132c3565b90915550505b806125cf81613311565b915050612510565b506001600160a01b0382166000818152600460205260409081902090517f87c77f9793ba00a008d93d781c3d6a55b69a2be075ebd5102aaab8bd410cad809161261f916131c3565b60405180910390a25050565b81516002546001600160a01b0386811660009081526004602081905260409182902054915163c021137960e01b8152908101889052602481019190915291169063c02113799060440160206040518083038186803b15801561268c57600080fd5b505afa1580156126a0573d6000803e3d6000fd5b505050506040513d601f19601f820116820180604052508101906126c49190613131565b10156127075760405162461bcd60e51b815260206004820152601260248201527124b739bab33334b1b4b2b73a103837bbb2b960711b6044820152606401610628565b6020808301516001600160a01b03861660009081526004909252604090912060010154101561276e5760405162461bcd60e51b815260206004820152601360248201527224b739bab33334b1b4b2b73a10363ab6b132b960691b6044820152606401610628565b6040808301516001600160a01b03861660009081526004602052919091206002015410156127d35760405162461bcd60e51b8152602060048201526012602482015271496e73756666696369656e7420627269636b60701b6044820152606401610628565b60608201516001600160a01b038516600090815260046020526040902060030154101561283a5760405162461bcd60e51b8152602060048201526015602482015274496e73756666696369656e7420636f6e637265746560581b6044820152606401610628565b60808201516001600160a01b03851660009081526004602081905260409091200154101561289f5760405162461bcd60e51b8152602060048201526012602482015271125b9cdd59999a58da595b9d081cdd19595b60721b6044820152606401610628565b6128aa84848361248e565b60005b60058110156129745760008382600581106128d857634e487b7160e01b600052603260045260246000fd5b602002015111156129625782816005811061290357634e487b7160e01b600052603260045260246000fd5b602002015160046000876001600160a01b03166001600160a01b03168152602001908152602001600020826005811061294c57634e487b7160e01b600052603260045260246000fd5b01600082825461295c91906132fa565b90915550505b8061296c81613311565b9150506128ad565b506001600160a01b0384166000818152600460205260409081902090517f87c77f9793ba00a008d93d781c3d6a55b69a2be075ebd5102aaab8bd410cad80916129bc916131c3565b60405180910390a250505050565b600080546001600160a01b038381166001600160a01b0319831681178455604051919092169283917f8be0079c531659141344cd1fd0a4f28419497f9722a3daafe3b4186f6b6457e09190a35050565b336000805b6003811015612a86576001600160a01b03831660009081526005602052604090208160038110612a5f57634e487b7160e01b600052603260045260246000fd5b015415612a745781612a7081613311565b9250505b80612a7e81613311565b915050612a1f565b6003612a9283866132c3565b1115612bb25760006003612aa684876132c3565b612ab091906132fa565b9050600091505b6003612ac382846132c3565b1015612b56576001600160a01b0384166000908152600560205260409020612aeb82846132c3565b60038110612b0957634e487b7160e01b600052603260045260246000fd5b01546001600160a01b03851660009081526005602052604090208360038110612b4257634e487b7160e01b600052603260045260246000fd5b015581612b4e81613311565b925050612ab7565b6003821015612bac576001600160a01b038416600090815260056020526040902042908360038110612b9857634e487b7160e01b600052603260045260246000fd5b015581612ba481613311565b925050612b56565b50612c14565b5060005b83811015612c14576001600160a01b03831660009081526005602052604090204290612be284846132c3565b60038110612c0057634e487b7160e01b600052603260045260246000fd5b015580612c0c81613311565b915050612bb6565b50505050565b60405180606001604052806003906020820280368337509192915050565b6040518060a001604052806005906020820280368337509192915050565b80356001600160a01b0381168114612c6d57600080fd5b919050565b600082601f830112612c82578081fd5b612c8a61328c565b80838560a086011115612c9b578384fd5b835b6005811015612cbc578135845260209384019390910190600101612c9d565b509095945050505050565b600060208284031215612cd8578081fd5b612ce182612c56565b9392505050565b60008060008060008060c08789031215612d00578182fd5b612d0987612c56565b9550612d1760208801612c56565b9450612d2560408801612c56565b9350612d3360608801612c56565b9250612d4160808801612c56565b9150612d4f60a08801612c56565b90509295509295509295565b60008060c08385031215612d6d578182fd5b612d7683612c56565b9150612d858460208501612c72565b90509250929050565b60008060408385031215612da0578182fd5b612da983612c56565b946020939093013593505050565b600080600080600080600080610200898b031215612dd3578182fd5b612ddc89612c56565b97506020808a013597508a605f8b0112612df4578283fd5b612dfc61328c565b8060408c0160e08d018e811115612e11578687fd5b865b6005811015612e39578235612e2781613342565b85529385019391850191600101612e13565b50829a50612e478f82612c72565b9c9f9b9e50999c6101808101359b6101a08201359b506101c08201359a506101e09091013598509650505050505050565b6000806000806101008587031215612e8e578384fd5b612e9785612c56565b935060208501359250612ead8660408701612c72565b9396929550929360e00135925050565b600080600060608486031215612ed1578283fd5b612eda84612c56565b95602085013595506040909401359392505050565b6000806000806000806101c08789031215612f08578182fd5b612f1187612c56565b95506020870135945060408701359350612f2e8860608901612c72565b9250612f3e886101008901612c72565b91506101a087013590509295509295509295565b60008060008060006101208688031215612f6a578283fd5b612f7386612c56565b94506020860135935060408601359250612f908760608801612c72565b94979396509194610100013592915050565b6000806000806000806101408789031215612fbb578384fd5b612fc487612c56565b95506020870135945060408701359350612fe18860608901612c72565b9250610100870135915061012087013590509295509295509295565b60008060008060808587031215613012578182fd5b61301b85612c56565b966020860135965060408601359560600135945092505050565b600080600080600080610140878903121561304e578384fd5b61305787612c56565b955060208701359450604087013593506060870135925061307b8860808901612c72565b915061012087013590509295509295509295565b600080600080600060a086880312156130a6578283fd5b6130af86612c56565b97602087013597506040870135966060810135965060800135945092505050565b6000602082840312156130e1578081fd5b8151612ce181613342565b600080604083850312156130fe578182fd5b825161310981613342565b6020939093015192949293505050565b60006020828403121561312a578081fd5b5035919050565b600060208284031215613142578081fd5b5051919050565b6000806040838503121561315b578182fd5b50508035926020909101359150565b60608101818360005b6003811015613192578151835260209283019290910190600101613173565b50505092915050565b60a08101818360005b60058110156131925781518352602092830192909101906001016131a4565b60a08101818360005b60058110156131925781548352602090920191600191820191016131cc565b60208082526011908201527014195c9b5a5cdcda5bdb8819195b9a5959607a1b604082015260600190565b6020808252818101527f4f776e61626c653a2063616c6c6572206973206e6f7420746865206f776e6572604082015260600190565b83815260e0810160208083018560005b600581101561327a57815115158352918301919083019060010161325b565b505050508260c0830152949350505050565b60405160a0810167ffffffffffffffff811182821017156132bd57634e487b7160e01b600052604160045260246000fd5b60405290565b600082198211156132d6576132d661332c565b500190565b60008160001904831182151516156132f5576132f561332c565b500290565b60008282101561330c5761330c61332c565b500390565b60006000198214156133255761332561332c565b5060010190565b634e487b7160e01b600052601160045260246000fd5b80151581146122cf57600080fdfea2646970667358221220aba7b2120ef7a5bc746be07129a2a56ef4d97b127969a769bf0eae670120d73c64736f6c63430008040033",
  "linkReferences": {},
  "deployedLinkReferences": {}
}