{
  "_format": "hh-sol-artifact-1",
  "contractName": "Helper",
  "sourceName": "contracts/core/Helper.sol",
  "abi": [
    {
      "inputs": [
        {
          "internalType": "address",
          "name": "_settingAddress",
          "type": "address"
        },
        {
          "internalType": "address",
          "name": "_houseAddress",
          "type": "address"
        }
      ],
      "stateMutability": "nonpayable",
      "type": "constructor"
    },
    {
      "anonymous": false,
      "inputs": [
        {
          "indexed": true,
          "internalType": "address",
          "name": "previousOwner",
          "type": "address"
        },
        {
          "indexed": true,
          "internalType": "address",
          "name": "newOwner",
          "type": "address"
        }
      ],
      "name": "OwnershipTransferred",
      "type": "event"
    },
    {
      "inputs": [
        {
          "internalType": "uint256",
          "name": "",
          "type": "uint256"
        }
      ],
      "name": "baseAddonFortDependency",
      "outputs": [
        {
          "internalType": "uint256",
          "name": "",
          "type": "uint256"
        }
      ],
      "stateMutability": "view",
      "type": "function"
    },
    {
      "inputs": [
        {
          "internalType": "uint256",
          "name": "",
          "type": "uint256"
        }
      ],
      "name": "baseAddonMultiplier",
      "outputs": [
        {
          "internalType": "uint256",
          "name": "",
          "type": "uint256"
        }
      ],
      "stateMutability": "view",
      "type": "function"
    },
    {
      "inputs": [
        {
          "internalType": "uint256",
          "name": "depositedBalance",
          "type": "uint256"
        },
        {
          "internalType": "uint256",
          "name": "maxTokenReward",
          "type": "uint256"
        },
        {
          "internalType": "bool[12]",
          "name": "hasAddon",
          "type": "bool[12]"
        },
        {
          "internalType": "bool",
          "name": "isRare",
          "type": "bool"
        },
        {
          "internalType": "bool",
          "name": "hasTokenBoost",
          "type": "bool"
        },
        {
          "internalType": "bool",
          "name": "hasConcreteFoundation",
          "type": "bool"
        },
        {
          "internalType": "uint256[3]",
          "name": "lastFortificationTime",
          "type": "uint256[3]"
        },
        {
          "internalType": "uint256[4]",
          "name": "timeData",
          "type": "uint256[4]"
        },
        {
          "internalType": "uint256",
          "name": "lastDurability",
          "type": "uint256"
        }
      ],
      "name": "calculateTokenReward",
      "outputs": [
        {
          "internalType": "uint256",
          "name": "",
          "type": "uint256"
        }
      ],
      "stateMutability": "view",
      "type": "function"
    },
    {
      "inputs": [
        {
          "internalType": "uint256",
          "name": "tokenId",
          "type": "uint256"
        }
      ],
      "name": "getCurrentMaxDurability",
      "outputs": [
        {
          "internalType": "uint256",
          "name": "",
          "type": "uint256"
        }
      ],
      "stateMutability": "view",
      "type": "function"
    },
    {
      "inputs": [
        {
          "internalType": "uint256",
          "name": "timestamp",
          "type": "uint256"
        },
        {
          "internalType": "uint256",
          "name": "durabilityReductionPercent",
          "type": "uint256"
        },
        {
          "internalType": "uint256[3]",
          "name": "lastFortificationTime",
          "type": "uint256[3]"
        },
        {
          "internalType": "uint256[4]",
          "name": "timeData",
          "type": "uint256[4]"
        },
        {
          "internalType": "uint256",
          "name": "lastDurability",
          "type": "uint256"
        }
      ],
      "name": "getDurabilityAtBreakpoint",
      "outputs": [
        {
          "internalType": "uint256",
          "name": "",
          "type": "uint256"
        }
      ],
      "stateMutability": "pure",
      "type": "function"
    },
    {
      "inputs": [
        {
          "internalType": "uint256",
          "name": "tokenId",
          "type": "uint256"
        },
        {
          "internalType": "uint256",
          "name": "timestamp",
          "type": "uint256"
        }
      ],
      "name": "getDurabilityAtTimestamp",
      "outputs": [
        {
          "internalType": "uint256",
          "name": "",
          "type": "uint256"
        }
      ],
      "stateMutability": "view",
      "type": "function"
    },
    {
      "inputs": [
        {
          "internalType": "uint256",
          "name": "tokenId",
          "type": "uint256"
        },
        {
          "internalType": "bool[5]",
          "name": "harvestingReward",
          "type": "bool[5]"
        }
      ],
      "name": "getHarvestCost",
      "outputs": [
        {
          "internalType": "uint256",
          "name": "",
          "type": "uint256"
        }
      ],
      "stateMutability": "view",
      "type": "function"
    },
    {
      "inputs": [
        {
          "internalType": "uint256",
          "name": "tokenId",
          "type": "uint256"
        }
      ],
      "name": "getHouseDetails",
      "outputs": [
        {
          "internalType": "uint256",
          "name": "",
          "type": "uint256"
        },
        {
          "internalType": "uint256",
          "name": "",
          "type": "uint256"
        },
        {
          "internalType": "uint256",
          "name": "",
          "type": "uint256"
        },
        {
          "internalType": "uint256[5]",
          "name": "",
          "type": "uint256[5]"
        },
        {
          "internalType": "uint256",
          "name": "",
          "type": "uint256"
        },
        {
          "internalType": "uint256",
          "name": "",
          "type": "uint256"
        }
      ],
      "stateMutability": "view",
      "type": "function"
    },
    {
      "inputs": [
        {
          "internalType": "uint256",
          "name": "tokenId",
          "type": "uint256"
        },
        {
          "internalType": "uint256",
          "name": "percent",
          "type": "uint256"
        }
      ],
      "name": "getRepairCost",
      "outputs": [
        {
          "internalType": "uint256[5]",
          "name": "",
          "type": "uint256[5]"
        }
      ],
      "stateMutability": "view",
      "type": "function"
    },
    {
      "inputs": [
        {
          "internalType": "uint256",
          "name": "tokenId",
          "type": "uint256"
        },
        {
          "internalType": "uint256",
          "name": "percent",
          "type": "uint256"
        }
      ],
      "name": "getRepairData",
      "outputs": [
        {
          "internalType": "uint256",
          "name": "",
          "type": "uint256"
        },
        {
          "internalType": "uint256",
          "name": "",
          "type": "uint256"
        },
        {
          "internalType": "uint256[5]",
          "name": "",
          "type": "uint256[5]"
        }
      ],
      "stateMutability": "view",
      "type": "function"
    },
    {
      "inputs": [],
      "name": "owner",
      "outputs": [
        {
          "internalType": "address",
          "name": "",
          "type": "address"
        }
      ],
      "stateMutability": "view",
      "type": "function"
    },
    {
      "inputs": [],
      "name": "renounceOwnership",
      "outputs": [],
      "stateMutability": "nonpayable",
      "type": "function"
    },
    {
      "inputs": [
        {
          "internalType": "address",
          "name": "_settingAddress",
          "type": "address"
        },
        {
          "internalType": "address",
          "name": "_houseAddress",
          "type": "address"
        }
      ],
      "name": "setSettingAndHouseContractAddress",
      "outputs": [],
      "stateMutability": "nonpayable",
      "type": "function"
    },
    {
      "inputs": [
        {
          "internalType": "address",
          "name": "newOwner",
          "type": "address"
        }
      ],
      "name": "transferOwnership",
      "outputs": [],
      "stateMutability": "nonpayable",
      "type": "function"
    }
  ],
  "bytecode": "0x60806040523480156200001157600080fd5b5060405162002952380380620029528339810160408190526200003491620005ee565b6200003f3362000527565b600180546001600160a01b038481166001600160a01b03199283161790925560028054928416929091169190911781556040805160a0810182526014815260208101929092526000908201819052606082018190526080820152620000a990600390600562000577565b506040518060a0016040528060148152602001600081526020016005815260200160008152602001600081525060036001600c8110620000f957634e487b7160e01b600052603260045260246000fd5b600502019060056200010d92919062000577565b506040518060a00160405280601e8152602001600081526020016000815260200160008152602001600081525060036002600c81106200015d57634e487b7160e01b600052603260045260246000fd5b600502019060056200017192919062000577565b506040518060a00160405280601481526020016003815260200160008152602001600081526020016000815250600380600c8110620001c057634e487b7160e01b600052603260045260246000fd5b60050201906005620001d492919062000577565b506040518060a0016040528060148152602001600681526020016006815260200160038152602001600081525060036004600c81106200022457634e487b7160e01b600052603260045260246000fd5b600502019060056200023892919062000577565b506040518060a0016040528060148152602001600681526020016004815260200160058152602001600081525060036005600c81106200028857634e487b7160e01b600052603260045260246000fd5b600502019060056200029c92919062000577565b506040518060a0016040528060148152602001600081526020016000815260200160088152602001600081525060036006600c8110620002ec57634e487b7160e01b600052603260045260246000fd5b600502019060056200030092919062000577565b506040518060a0016040528060148152602001600081526020016000815260200160008152602001600881525060036007600c81106200035057634e487b7160e01b600052603260045260246000fd5b600502019060056200036492919062000577565b506040518060a0016040528060148152602001600081526020016000815260200160008152602001600681525060036008600c8110620003b457634e487b7160e01b600052603260045260246000fd5b60050201906005620003c892919062000577565b506040805160a081018252601481526006602082015260089181019190915260006060820152600260808201526200040590603090600562000577565b506040518060a00160405280601e815260200160088152602001600881526020016008815260200160088152506003600a600c81106200045557634e487b7160e01b600052603260045260246000fd5b600502019060056200046992919062000577565b506040518060a001604052806014815260200160008152602001600281526020016000815260200160008152506003600b600c8110620004b957634e487b7160e01b600052603260045260246000fd5b60050201906005620004cd92919062000577565b5050606e603f8190556069604081905560418190556042829055604382905560736044819055604582905560468390556047919091556048919091556049819055604a555060026052556001605455600360555562000625565b600080546001600160a01b038381166001600160a01b0319831681178455604051919092169283917f8be0079c531659141344cd1fd0a4f28419497f9722a3daafe3b4186f6b6457e09190a35050565b8260058101928215620005a8579160200282015b82811115620005a85782518255916020019190600101906200058b565b50620005b6929150620005ba565b5090565b5b80821115620005b65760008155600101620005bb565b80516001600160a01b0381168114620005e957600080fd5b919050565b6000806040838503121562000601578182fd5b6200060c83620005d1565b91506200061c60208401620005d1565b90509250929050565b61231d80620006356000396000f3fe608060405234801561001057600080fd5b50600436106100ea5760003560e01c806397d9dc571161008c578063c949f1bf11610066578063c949f1bf146101db578063c995e9a5146101ee578063e890834614610201578063f2fde38b1461022657600080fd5b806397d9dc5714610186578063c09f218d14610199578063c8f7789c146101b957600080fd5b8063678091f7116100c8578063678091f71461013d578063715018a6146101505780637b55c57f146101585780638da5cb5b1461016b57600080fd5b80631ef61f61146100ef57806335e3f227146101045780635e61537f1461012a575b600080fd5b6101026100fd366004611bf6565b610239565b005b610117610112366004611e89565b61029a565b6040519081526020015b60405180910390f35b610117610138366004612036565b6102b1565b61011761014b366004611f51565b6103c6565b610102610712565b610117610166366004611eb9565b610748565b6000546040516001600160a01b039091168152602001610121565b610117610194366004611f30565b610871565b6101ac6101a7366004611f30565b610a4b565b60405161012191906120dd565b6101cc6101c7366004611f30565b610e17565b60405161012193929190612120565b6101176101e9366004611e89565b610e4c565b6101176101fc366004611e89565b610e5c565b61021461020f366004611e89565b610ea3565b60405161012196959493929190612143565b610102610234366004611bd3565b6112f2565b6000546001600160a01b0316331461026c5760405162461bcd60e51b8152600401610263906120eb565b60405180910390fd5b600180546001600160a01b039384166001600160a01b03199182161790915560028054929093169116179055565b604b81600c81106102aa57600080fd5b0154905081565b60008060c884600360200201516102c89089612266565b6102d29190612227565b905060005b8181101561031057868410156102f2576000925050506103bd565b6102fc8785612266565b9350806103088161227d565b9150506102d7565b506000805b600381101561036a5786816003811061033e57634e487b7160e01b600052603260045260246000fd5b602002015189101561035857816103548161227d565b9250505b806103628161227d565b915050610315565b506000670de0b6b3a764000061038183600a612247565b61038b9190612247565b61039e670de0b6b3a76400006064612247565b6103a8919061220f565b9050848110156103b6578094505b8493505050505b95945050505050565b6000808060c885600360200201516103de9042612266565b6103e89190612227565b6103f390600161220f565b600154604051633cb03fd960e01b81528b1515600482015289151560248201529192506000916001600160a01b0390911690633cb03fd99060440160806040518083038186803b15801561044657600080fd5b505afa15801561045a573d6000803e3d6000fd5b505050506040513d601f19601f8201168201806040525081019061047e9190611d13565b905081600114156104dd57606086015161049c908c8b8a8a8661138d565b606080880151908301516104b391908a8a8a6102b1565b60608801516104c29042612266565b6104cc9190612247565b6104d69190612247565b92506106bb565b60608101516000906104ef9087612227565b6104fa90600161220f565b83116106085760608201516002906105128286612266565b61051d600187612266565b6105279190612247565b6105319190612247565b61053b9190612227565b86610547600186612266565b6105519190612247565b61055b9190612266565b905060c861056a600185612266565b6105749190612247565b60608801516105839042612266565b61058d9190612266565b61059b428e8d8c8c8861138d565b60608401516105ab600187612266565b6105b59190612247565b6105bf9089612266565b6105c99190612247565b6105d39190612247565b60c86105e3428f8e8d8d8961138d565b6105ed9084612247565b6105f79190612247565b610601919061220f565b93506106b9565b60608201516106179087612227565b61062290600161220f565b92508260011415610634575084610692565b60608201516002906106468286612266565b610651600187612266565b61065b9190612247565b6106659190612247565b61066f9190612227565b8661067b600186612266565b6106859190612247565b61068f9190612266565b90505b60c86106a2428e8d8c8c8861138d565b6106ac9083612247565b6106b69190612247565b93505b505b618ead60646106d2670de0b6b3a764000086612227565b6106dc9190612227565b6106e6908f612247565b6106f09190612227565b9250828c116106ff578b610701565b825b9d9c50505050505050505050505050565b6000546001600160a01b0316331461073c5760405162461bcd60e51b8152600401610263906120eb565b6107466000611547565b565b60008060005b60058110156107a15783816005811061077757634e487b7160e01b600052603260045260246000fd5b60200201511561078f578161078b8161227d565b9250505b806107998161227d565b91505061074e565b5060025460405163a5dd678960e01b8152600481018690526001600160a01b039091169063a5dd67899060240160206040518083038186803b1580156107e657600080fd5b505afa1580156107fa573d6000803e3d6000fd5b505050506040513d601f19601f8201168201806040525081019061081e9190611dc5565b1561084957670de0b6b3a7640000610837826005612247565b6108419190612247565b91505061086b565b670de0b6b3a764000061085d82600a612247565b6108679190612247565b9150505b92915050565b600254604051637aab84bd60e01b8152600481018490526000918291829182916001600160a01b0390911690637aab84bd906024016101606040518083038186803b1580156108bf57600080fd5b505afa1580156108d3573d6000803e3d6000fd5b505050506040513d601f19601f820116820180604052508101906108f79190611de1565b50600154604051639f7cc62d60e01b81528215156004820152959d50929b50995060009850506001600160a01b03169550639f7cc62d945050602401915061093c9050565b60206040518083038186803b15801561095457600080fd5b505afa158015610968573d6000803e3d6000fd5b505050506040513d601f19601f8201168201806040525081019061098c9190611ea1565b9050600060c861099c8689612266565b6109a69190612227565b905060005b818110156109e857828510156109ca576000965050505050505061086b565b6109d48386612266565b9450806109e08161227d565b9150506109ab565b506000670de0b6b3a76400006109fe8a8a611597565b610a0990600a612247565b610a139190612247565b610a26670de0b6b3a76400006064612247565b610a30919061220f565b905084811015610a3e578094505b5092979650505050505050565b610a53611a92565b610a5b611ab0565b60025460405163a92aed0d60e01b8152600481018690526000916001600160a01b03169063a92aed0d906024016101a06040518083038186803b158015610aa157600080fd5b505afa158015610ab5573d6000803e3d6000fd5b505050506040513d601f19601f82011682018060405250810190610ad99190611c8c565b6040805160a08101909152919350915060009080610b00670de0b6b3a7640000600a612247565b81526020016000815260200160008152602001600081526020016000815250905060005b6005811015610bb357670de0b6b3a7640000600a87848460058110610b5957634e487b7160e01b600052603260045260246000fd5b6020020151610b689190612247565b610b729190612227565b610b7c9190612227565b828260058110610b9c57634e487b7160e01b600052603260045260246000fd5b602002015280610bab8161227d565b915050610b24565b5060005b600c811015610caa578381600c8110610be057634e487b7160e01b600052603260045260246000fd5b602002015115610c985760015b6005811015610c96576000600383600c8110610c1957634e487b7160e01b600052603260045260246000fd5b600502018260058110610c3c57634e487b7160e01b600052603260045260246000fd5b01541115610c8457610c4f600a88612227565b838260058110610c6f57634e487b7160e01b600052603260045260246000fd5b60200201818151610c80919061220f565b9052505b80610c8e8161227d565b915050610bed565b505b80610ca28161227d565b915050610bb7565b5081156103bd57600154604051632bc86d1960e11b8152600481018490526000916001600160a01b031690635790da329060240160a06040518083038186803b158015610cf657600080fd5b505afa158015610d0a573d6000803e3d6000fd5b505050506040513d601f19601f82011682018060405250810190610d2e9190611d6c565b905060005b6005811015610e0c576000828260058110610d5e57634e487b7160e01b600052603260045260246000fd5b60200201511115610dfa576064828260058110610d8b57634e487b7160e01b600052603260045260246000fd5b6020020151610d9b906064612266565b848360058110610dbb57634e487b7160e01b600052603260045260246000fd5b6020020151610dca9190612247565b610dd49190612227565b838260058110610df457634e487b7160e01b600052603260045260246000fd5b60200201525b80610e048161227d565b915050610d33565b505095945050505050565b600080610e22611a92565b610e2b85610e5c565b610e358642610871565b610e3f8787610a4b565b9250925092509250925092565b603f81600c81106102aa57600080fd5b6000670de0b6b3a7640000610e718342611597565b610e7c90600a612247565b610e869190612247565b610e99670de0b6b3a76400006064612247565b61086b919061220f565b6000806000610eb0611a92565b6002546040516318b9af1f60e01b815260048101879052600091829182916001600160a01b0316906318b9af1f9060240160606040518083038186803b158015610ef957600080fd5b505afa158015610f0d573d6000803e3d6000fd5b505050506040513d601f19601f82011682018060405250810190610f319190611c2e565b50600254604051637aab84bd60e01b8152600481018c9052919350600092506001600160a01b031690637aab84bd906024016101606040518083038186803b158015610f7c57600080fd5b505afa158015610f90573d6000803e3d6000fd5b505050506040513d601f19601f82011682018060405250810190610fb49190611de1565b50989950505088151596506111489550505050505057610fdd670de0b6b3a76400006064612247565b610ff0670de0b6b3a76400006064612247565b8261108057600160009054906101000a90046001600160a01b03166001600160a01b03166383f04aa86040518163ffffffff1660e01b815260040160206040518083038186803b15801561104357600080fd5b505afa158015611057573d6000803e3d6000fd5b505050506040513d601f19601f8201168201806040525081019061107b9190611ea1565b611106565b600160009054906101000a90046001600160a01b03166001600160a01b031663fb0a45696040518163ffffffff1660e01b815260040160206040518083038186803b1580156110ce57600080fd5b505afa1580156110e2573d6000803e3d6000fd5b505050506040513d601f19601f820116820180604052508101906111069190611ea1565b6040518060a0016040528060008152602001600081526020016000815260200160008152602001600081525060008097509750975097509750975050506112e9565b6111528942610871565b61115b8a610e5c565b6111658b4261167c565b600254604051635f88926760e01b8152600481018e90526001600160a01b0390911690635f8892679060240160a06040518083038186803b1580156111a957600080fd5b505afa1580156111bd573d6000803e3d6000fd5b505050506040513d601f19601f820116820180604052508101906111e19190611d6c565b60025460405163075a295360e11b8152600481018f90526001600160a01b0390911690630eb452a69060240160206040518083038186803b15801561122557600080fd5b505afa158015611239573d6000803e3d6000fd5b505050506040513d601f19601f8201168201806040525081019061125d9190611ea1565b60015460405163e43bb28d60e01b815287151560048201526001600160a01b039091169063e43bb28d9060240160206040518083038186803b1580156112a257600080fd5b505afa1580156112b6573d6000803e3d6000fd5b505050506040513d601f19601f820116820180604052508101906112da9190611ea1565b97509750975097509750975050505b91939550919395565b6000546001600160a01b0316331461131c5760405162461bcd60e51b8152600401610263906120eb565b6001600160a01b0381166113815760405162461bcd60e51b815260206004820152602660248201527f4f776e61626c653a206e6577206f776e657220697320746865207a65726f206160448201526564647265737360d01b6064820152608401610263565b61138a81611547565b50565b805160009085156113b75760408301516064906113aa9083612247565b6113b49190612227565b90505b60005b600c81101561153b578781600c81106113e357634e487b7160e01b600052603260045260246000fd5b602002015115611529578060021480156113fd5750845189115b1561140757611529565b80600b14801561141a5750602085015189115b1561142457611529565b6000604b82600c811061144757634e487b7160e01b600052603260045260246000fd5b01541180156114a8575088866001604b84600c811061147657634e487b7160e01b600052603260045260246000fd5b01546114829190612266565b600381106114a057634e487b7160e01b600052603260045260246000fd5b602002015111155b156114b257611529565b8060021480156114c55750604085015189105b156114ed5760208401516064906114dc9084612247565b6114e69190612227565b9150611529565b6064603f82600c811061151057634e487b7160e01b600052603260045260246000fd5b015461151c9084612247565b6115269190612227565b91505b806115338161227d565b9150506113ba565b50979650505050505050565b600080546001600160a01b038381166001600160a01b0319831681178455604051919092169283917f8be0079c531659141344cd1fd0a4f28419497f9722a3daafe3b4186f6b6457e09190a35050565b60025460405163de3aa52360e01b81526004810184905260009182916001600160a01b039091169063de3aa5239060240160606040518083038186803b1580156115e057600080fd5b505afa1580156115f4573d6000803e3d6000fd5b505050506040513d601f19601f820116820180604052508101906116189190611cba565b90506000805b60038110156116735782816003811061164757634e487b7160e01b600052603260045260246000fd5b6020020151851015611661578161165d8161227d565b9250505b8061166b8161227d565b91505061161e565b50949350505050565b600080600080600080600080600080600260009054906101000a90046001600160a01b03166001600160a01b0316637aab84bd8d6040518263ffffffff1660e01b81526004016116ce91815260200190565b6101606040518083038186803b1580156116e757600080fd5b505afa1580156116fb573d6000803e3d6000fd5b505050506040513d601f19601f8201168201806040525081019061171f9190611de1565b909192939450909192935090919250909150905050809a50819b50829c508397508498505050505050600160009054906101000a90046001600160a01b03166001600160a01b031663ac331545856040518263ffffffff1660e01b815260040161178d911515815260200190565b60606040518083038186803b1580156117a557600080fd5b505afa1580156117b9573d6000803e3d6000fd5b505050506040513d601f19601f820116820180604052508101906117dd9190612087565b919a509550899250905082156118065760646117f9828b612247565b6118039190612227565b98505b5050600254604051631b0a628960e11b8152600481018c9052600093506001600160a01b039091169150633614c512906024016101806040518083038186803b15801561185257600080fd5b505afa158015611866573d6000803e3d6000fd5b505050506040513d601f19601f8201168201806040525081019061188a9190611c70565b60025460405163de3aa52360e01b8152600481018c90529192506000916001600160a01b039091169063de3aa5239060240160606040518083038186803b1580156118d457600080fd5b505afa1580156118e8573d6000803e3d6000fd5b505050506040513d601f19601f8201168201806040525081019061190c9190611cba565b905060005b600c811015611a83578281600c811061193a57634e487b7160e01b600052603260045260246000fd5b602002015115611a715780600214801561195357508987105b1561195d57611a71565b80600b14801561196c57508986105b1561197657611a71565b6000604b82600c811061199957634e487b7160e01b600052603260045260246000fd5b01541180156119fa575089826001604b84600c81106119c857634e487b7160e01b600052603260045260246000fd5b01546119d49190612266565b600381106119f257634e487b7160e01b600052603260045260246000fd5b602002015111155b15611a0457611a71565b806002148015611a1357508985115b15611a35576064611a24858a612247565b611a2e9190612227565b9750611a71565b6064603f82600c8110611a5857634e487b7160e01b600052603260045260246000fd5b0154611a64908a612247565b611a6e9190612227565b97505b80611a7b8161227d565b915050611911565b50959998505050505050505050565b6040518060a001604052806005906020820280368337509192915050565b604051806101800160405280600c906020820280368337509192915050565b600082601f830112611adf578081fd5b611ae761217c565b80838561018086011115611af9578384fd5b835b600c811015611b24578151611b0f816122d9565b84526020938401939190910190600101611afb565b509095945050505050565b600082601f830112611b3f578081fd5b611b476121a6565b808385606086011115611b58578384fd5b835b6003811015611b24578135845260209384019390910190600101611b5a565b600082601f830112611b89578081fd5b611b916121c9565b808385608086011115611ba2578384fd5b835b6004811015611b24578135845260209384019390910190600101611ba4565b8035611bce816122d9565b919050565b600060208284031215611be4578081fd5b8135611bef816122c4565b9392505050565b60008060408385031215611c08578081fd5b8235611c13816122c4565b91506020830135611c23816122c4565b809150509250929050565b600080600060608486031215611c42578081fd5b8351611c4d816122c4565b6020850151909350611c5e816122d9565b80925050604084015190509250925092565b60006101808284031215611c82578081fd5b611bef8383611acf565b6000806101a08385031215611c9f578182fd5b611ca98484611acf565b915061018083015190509250929050565b600060608284031215611ccb578081fd5b82601f830112611cd9578081fd5b611ce16121a6565b808385606086011115611cf2578384fd5b835b6003811015611b24578151845260209384019390910190600101611cf4565b600060808284031215611d24578081fd5b82601f830112611d32578081fd5b611d3a6121c9565b808385608086011115611d4b578384fd5b835b6004811015611b24578151845260209384019390910190600101611d4d565b600060a08284031215611d7d578081fd5b82601f830112611d8b578081fd5b611d936121ec565b80838560a086011115611da4578384fd5b835b6005811015611b24578151845260209384019390910190600101611da6565b600060208284031215611dd6578081fd5b8151611bef816122d9565b60008060008060008060008060008060006101608c8e031215611e02578889fd5b8b51611e0d816122d9565b60208d0151909b50611e1e816122d9565b809a505060408c0151985060608c0151975060808c0151965060a08c0151955060c08c0151945060e08c015193506101008c015192506101208c0151611e63816122d9565b6101408d0151909250611e75816122d9565b809150509295989b509295989b9093969950565b600060208284031215611e9a578081fd5b5035919050565b600060208284031215611eb2578081fd5b5051919050565b60008060c08385031215611ecb578182fd5b82359150602084603f850112611edf578182fd5b611ee76121ec565b808286018760c088011115611efa578485fd5b845b6005811015611f22578135611f10816122d9565b84529284019290840190600101611efc565b509497909650945050505050565b60008060408385031215611f42578182fd5b50508035926020909101359150565b60008060008060008060008060006103208a8c031215611f6f578283fd5b893598506020808b013598508b605f8c0112611f89578384fd5b611f9161217c565b8060408d016101c08e018f811115611fa7578788fd5b875b600c811015611fcf578235611fbd816122d9565b85529385019391850191600101611fa9565b50829b50611fdc81611bc3565b9a505050505050611ff06101e08b01611bc3565b9450611fff6102008b01611bc3565b935061200f8b6102208c01611b2f565b925061201f8b6102808c01611b79565b91506103008a013590509295985092959850929598565b6000806000806000610140868803121561204e578283fd5b85359450602086013593506120668760408801611b2f565b92506120758760a08801611b79565b94979396509194610120013592915050565b60008060006060848603121561209b578081fd5b8351925060208401519150604084015190509250925092565b8060005b60058110156120d75781518452602093840193909101906001016120b8565b50505050565b60a0810161086b82846120b4565b6020808252818101527f4f776e61626c653a2063616c6c6572206973206e6f7420746865206f776e6572604082015260600190565b8381526020810183905260e0810161213b60408301846120b4565b949350505050565b8681526020810186905260408101859052610140810161216660608301866120b4565b6101008201939093526101200152949350505050565b604051610180810167ffffffffffffffff811182821017156121a0576121a06122ae565b60405290565b6040516060810167ffffffffffffffff811182821017156121a0576121a06122ae565b6040516080810167ffffffffffffffff811182821017156121a0576121a06122ae565b60405160a0810167ffffffffffffffff811182821017156121a0576121a06122ae565b6000821982111561222257612222612298565b500190565b60008261224257634e487b7160e01b81526012600452602481fd5b500490565b600081600019048311821515161561226157612261612298565b500290565b60008282101561227857612278612298565b500390565b600060001982141561229157612291612298565b5060010190565b634e487b7160e01b600052601160045260246000fd5b634e487b7160e01b600052604160045260246000fd5b6001600160a01b038116811461138a57600080fd5b801515811461138a57600080fdfea264697066735822122051449fbda9a7d4a06901bcfe6302637cdc88bad5c46af0b461f61aa2b1b582ad64736f6c63430008040033",
  "linkReferences": {},
  "deployedLinkReferences": {}
}