{
  "_format": "hh-sol-artifact-1",
  "contractName": "HouseNFT",
  "sourceName": "contracts/core/HouseNFT.sol",
  "abi": [
    {
      "inputs": [
        {
          "internalType": "string",
          "name": "name",
          "type": "string"
        },
        {
          "internalType": "string",
          "name": "symbol",
          "type": "string"
        },
        {
          "internalType": "uint256",
          "name": "_maxRare",
          "type": "uint256"
        },
        {
          "internalType": "address",
          "name": "_settingAddress",
          "type": "address"
        }
      ],
      "stateMutability": "nonpayable",
      "type": "constructor"
    },
    {
      "anonymous": false,
      "inputs": [
        {
          "indexed": true,
          "internalType": "address",
          "name": "owner",
          "type": "address"
        },
        {
          "indexed": true,
          "internalType": "address",
          "name": "approved",
          "type": "address"
        },
        {
          "indexed": true,
          "internalType": "uint256",
          "name": "tokenId",
          "type": "uint256"
        }
      ],
      "name": "Approval",
      "type": "event"
    },
    {
      "anonymous": false,
      "inputs": [
        {
          "indexed": true,
          "internalType": "address",
          "name": "owner",
          "type": "address"
        },
        {
          "indexed": true,
          "internalType": "address",
          "name": "operator",
          "type": "address"
        },
        {
          "indexed": false,
          "internalType": "bool",
          "name": "approved",
          "type": "bool"
        }
      ],
      "name": "ApprovalForAll",
      "type": "event"
    },
    {
      "anonymous": false,
      "inputs": [
        {
          "indexed": true,
          "internalType": "address",
          "name": "previousOwner",
          "type": "address"
        },
        {
          "indexed": true,
          "internalType": "address",
          "name": "newOwner",
          "type": "address"
        }
      ],
      "name": "OwnershipTransferred",
      "type": "event"
    },
    {
      "anonymous": false,
      "inputs": [
        {
          "indexed": true,
          "internalType": "address",
          "name": "from",
          "type": "address"
        },
        {
          "indexed": true,
          "internalType": "address",
          "name": "to",
          "type": "address"
        },
        {
          "indexed": true,
          "internalType": "uint256",
          "name": "tokenId",
          "type": "uint256"
        }
      ],
      "name": "Transfer",
      "type": "event"
    },
    {
      "inputs": [
        {
          "internalType": "uint256",
          "name": "tokenId",
          "type": "uint256"
        }
      ],
      "name": "activate",
      "outputs": [],
      "stateMutability": "nonpayable",
      "type": "function"
    },
    {
      "inputs": [
        {
          "internalType": "address",
          "name": "to",
          "type": "address"
        },
        {
          "internalType": "uint256",
          "name": "tokenId",
          "type": "uint256"
        }
      ],
      "name": "approve",
      "outputs": [],
      "stateMutability": "nonpayable",
      "type": "function"
    },
    {
      "inputs": [
        {
          "internalType": "address",
          "name": "owner",
          "type": "address"
        }
      ],
      "name": "balanceOf",
      "outputs": [
        {
          "internalType": "uint256",
          "name": "",
          "type": "uint256"
        }
      ],
      "stateMutability": "view",
      "type": "function"
    },
    {
      "inputs": [
        {
          "internalType": "uint256",
          "name": "tokenId",
          "type": "uint256"
        },
        {
          "internalType": "uint256",
          "name": "facilityType",
          "type": "uint256"
        }
      ],
      "name": "buyResourceOverdrive",
      "outputs": [],
      "stateMutability": "nonpayable",
      "type": "function"
    },
    {
      "inputs": [
        {
          "internalType": "uint256",
          "name": "tokenId",
          "type": "uint256"
        }
      ],
      "name": "buyTokenOverdrive",
      "outputs": [],
      "stateMutability": "nonpayable",
      "type": "function"
    },
    {
      "inputs": [
        {
          "internalType": "uint256",
          "name": "tokenId",
          "type": "uint256"
        }
      ],
      "name": "calculateMaxPowerLimitByUser",
      "outputs": [
        {
          "internalType": "uint256",
          "name": "",
          "type": "uint256"
        }
      ],
      "stateMutability": "view",
      "type": "function"
    },
    {
      "inputs": [
        {
          "internalType": "uint256",
          "name": "tokenId",
          "type": "uint256"
        },
        {
          "internalType": "uint256",
          "name": "userPowerAmount",
          "type": "uint256"
        }
      ],
      "name": "calculateUserPower",
      "outputs": [
        {
          "internalType": "uint256",
          "name": "",
          "type": "uint256"
        }
      ],
      "stateMutability": "view",
      "type": "function"
    },
    {
      "inputs": [
        {
          "internalType": "uint256",
          "name": "tokenId",
          "type": "uint256"
        },
        {
          "internalType": "uint256",
          "name": "boostType",
          "type": "uint256"
        }
      ],
      "name": "canOverDrive",
      "outputs": [
        {
          "internalType": "bool",
          "name": "",
          "type": "bool"
        }
      ],
      "stateMutability": "view",
      "type": "function"
    },
    {
      "inputs": [
        {
          "internalType": "uint256",
          "name": "tokenId",
          "type": "uint256"
        }
      ],
      "name": "checkHavingTree",
      "outputs": [
        {
          "internalType": "bool",
          "name": "",
          "type": "bool"
        }
      ],
      "stateMutability": "view",
      "type": "function"
    },
    {
      "inputs": [
        {
          "internalType": "uint256",
          "name": "tokenId",
          "type": "uint256"
        },
        {
          "internalType": "uint256",
          "name": "balance",
          "type": "uint256"
        }
      ],
      "name": "deposit",
      "outputs": [],
      "stateMutability": "nonpayable",
      "type": "function"
    },
    {
      "inputs": [
        {
          "internalType": "uint256",
          "name": "tokenId",
          "type": "uint256"
        }
      ],
      "name": "fertilizeGarden",
      "outputs": [],
      "stateMutability": "nonpayable",
      "type": "function"
    },
    {
      "inputs": [
        {
          "internalType": "address",
          "name": "_owner",
          "type": "address"
        }
      ],
      "name": "getActiveHouseByOwner",
      "outputs": [
        {
          "internalType": "uint256",
          "name": "",
          "type": "uint256"
        }
      ],
      "stateMutability": "view",
      "type": "function"
    },
    {
      "inputs": [
        {
          "internalType": "uint256",
          "name": "tokenId",
          "type": "uint256"
        }
      ],
      "name": "getActiveToolshedType",
      "outputs": [
        {
          "internalType": "uint256",
          "name": "",
          "type": "uint256"
        }
      ],
      "stateMutability": "view",
      "type": "function"
    },
    {
      "inputs": [
        {
          "internalType": "uint256",
          "name": "tokenId",
          "type": "uint256"
        },
        {
          "internalType": "uint256",
          "name": "addonId",
          "type": "uint256"
        }
      ],
      "name": "getAddonSalvageCost",
      "outputs": [
        {
          "internalType": "uint256[5]",
          "name": "",
          "type": "uint256[5]"
        },
        {
          "internalType": "uint256[5]",
          "name": "",
          "type": "uint256[5]"
        }
      ],
      "stateMutability": "view",
      "type": "function"
    },
    {
      "inputs": [
        {
          "internalType": "uint256",
          "name": "tokenId",
          "type": "uint256"
        }
      ],
      "name": "getApproved",
      "outputs": [
        {
          "internalType": "address",
          "name": "",
          "type": "address"
        }
      ],
      "stateMutability": "view",
      "type": "function"
    },
    {
      "inputs": [
        {
          "internalType": "uint256",
          "name": "tokenId",
          "type": "uint256"
        }
      ],
      "name": "getBuyAddonDetails",
      "outputs": [
        {
          "internalType": "address",
          "name": "",
          "type": "address"
        },
        {
          "internalType": "bool",
          "name": "",
          "type": "bool"
        },
        {
          "internalType": "uint256",
          "name": "",
          "type": "uint256"
        },
        {
          "internalType": "bool[12]",
          "name": "",
          "type": "bool[12]"
        },
        {
          "internalType": "uint256",
          "name": "",
          "type": "uint256"
        },
        {
          "internalType": "uint256[3]",
          "name": "",
          "type": "uint256[3]"
        }
      ],
      "stateMutability": "view",
      "type": "function"
    },
    {
      "inputs": [
        {
          "internalType": "uint256",
          "name": "tokenId",
          "type": "uint256"
        }
      ],
      "name": "getDepositedBalance",
      "outputs": [
        {
          "internalType": "uint256",
          "name": "",
          "type": "uint256"
        }
      ],
      "stateMutability": "view",
      "type": "function"
    },
    {
      "inputs": [
        {
          "internalType": "uint256",
          "name": "tokenId",
          "type": "uint256"
        },
        {
          "internalType": "uint256",
          "name": "_type",
          "type": "uint256"
        }
      ],
      "name": "getFacilityLevel",
      "outputs": [
        {
          "internalType": "uint256",
          "name": "",
          "type": "uint256"
        }
      ],
      "stateMutability": "view",
      "type": "function"
    },
    {
      "inputs": [
        {
          "internalType": "uint256",
          "name": "tokenId",
          "type": "uint256"
        }
      ],
      "name": "getFirepitRemainDays",
      "outputs": [
        {
          "internalType": "uint256",
          "name": "",
          "type": "uint256"
        }
      ],
      "stateMutability": "view",
      "type": "function"
    },
    {
      "inputs": [
        {
          "internalType": "uint256",
          "name": "tokenId",
          "type": "uint256"
        },
        {
          "internalType": "uint256",
          "name": "addonId",
          "type": "uint256"
        }
      ],
      "name": "getHasAddon",
      "outputs": [
        {
          "internalType": "bool",
          "name": "",
          "type": "bool"
        }
      ],
      "stateMutability": "view",
      "type": "function"
    },
    {
      "inputs": [
        {
          "internalType": "uint256",
          "name": "tokenId",
          "type": "uint256"
        }
      ],
      "name": "getHasAddons",
      "outputs": [
        {
          "internalType": "bool[12]",
          "name": "",
          "type": "bool[12]"
        }
      ],
      "stateMutability": "view",
      "type": "function"
    },
    {
      "inputs": [
        {
          "internalType": "uint256",
          "name": "tokenId",
          "type": "uint256"
        }
      ],
      "name": "getHasConcreteFoundation",
      "outputs": [
        {
          "internalType": "bool",
          "name": "",
          "type": "bool"
        }
      ],
      "stateMutability": "view",
      "type": "function"
    },
    {
      "inputs": [
        {
          "internalType": "uint256",
          "name": "tokenId",
          "type": "uint256"
        }
      ],
      "name": "getHasFireplace",
      "outputs": [
        {
          "internalType": "bool",
          "name": "",
          "type": "bool"
        }
      ],
      "stateMutability": "view",
      "type": "function"
    },
    {
      "inputs": [
        {
          "internalType": "uint256",
          "name": "tokenId",
          "type": "uint256"
        }
      ],
      "name": "getHasHarvester",
      "outputs": [
        {
          "internalType": "bool",
          "name": "",
          "type": "bool"
        }
      ],
      "stateMutability": "view",
      "type": "function"
    },
    {
      "inputs": [
        {
          "internalType": "uint256",
          "name": "tokenId",
          "type": "uint256"
        }
      ],
      "name": "getHasaddonAndToolshedType",
      "outputs": [
        {
          "internalType": "bool[12]",
          "name": "",
          "type": "bool[12]"
        },
        {
          "internalType": "uint256",
          "name": "",
          "type": "uint256"
        }
      ],
      "stateMutability": "view",
      "type": "function"
    },
    {
      "inputs": [
        {
          "internalType": "uint256",
          "name": "tokenId",
          "type": "uint256"
        }
      ],
      "name": "getHelperDetails",
      "outputs": [
        {
          "internalType": "bool",
          "name": "",
          "type": "bool"
        },
        {
          "internalType": "bool",
          "name": "",
          "type": "bool"
        },
        {
          "internalType": "uint256",
          "name": "",
          "type": "uint256"
        },
        {
          "internalType": "uint256",
          "name": "",
          "type": "uint256"
        },
        {
          "internalType": "uint256",
          "name": "",
          "type": "uint256"
        },
        {
          "internalType": "uint256",
          "name": "",
          "type": "uint256"
        },
        {
          "internalType": "uint256",
          "name": "",
          "type": "uint256"
        },
        {
          "internalType": "uint256",
          "name": "",
          "type": "uint256"
        },
        {
          "internalType": "uint256",
          "name": "",
          "type": "uint256"
        },
        {
          "internalType": "bool",
          "name": "",
          "type": "bool"
        },
        {
          "internalType": "bool",
          "name": "",
          "type": "bool"
        }
      ],
      "stateMutability": "view",
      "type": "function"
    },
    {
      "inputs": [
        {
          "internalType": "uint256",
          "name": "tokenId",
          "type": "uint256"
        }
      ],
      "name": "getHireHandymanHiredTime",
      "outputs": [
        {
          "internalType": "uint256",
          "name": "",
          "type": "uint256"
        }
      ],
      "stateMutability": "view",
      "type": "function"
    },
    {
      "inputs": [
        {
          "internalType": "uint256",
          "name": "tokenId",
          "type": "uint256"
        }
      ],
      "name": "getHouse",
      "outputs": [
        {
          "components": [
            {
              "internalType": "string",
              "name": "name",
              "type": "string"
            },
            {
              "internalType": "string",
              "name": "series",
              "type": "string"
            },
            {
              "internalType": "uint256",
              "name": "depositedBalance",
              "type": "uint256"
            },
            {
              "internalType": "uint256",
              "name": "tokenReward",
              "type": "uint256"
            },
            {
              "internalType": "uint256[5]",
              "name": "resourceReward",
              "type": "uint256[5]"
            },
            {
              "internalType": "uint256[5]",
              "name": "lastResourceRewardTime",
              "type": "uint256[5]"
            },
            {
              "internalType": "uint256",
              "name": "lastRepairTime",
              "type": "uint256"
            },
            {
              "internalType": "uint256",
              "name": "lastDurability",
              "type": "uint256"
            },
            {
              "internalType": "uint256",
              "name": "expireGardenTime",
              "type": "uint256"
            },
            {
              "internalType": "uint256",
              "name": "lastFertilizedGardenTime",
              "type": "uint256"
            },
            {
              "internalType": "uint256[3]",
              "name": "lastFortificationTime",
              "type": "uint256[3]"
            },
            {
              "internalType": "uint256",
              "name": "lastFirepitTime",
              "type": "uint256"
            },
            {
              "internalType": "uint256",
              "name": "lastHandymanHiredTime",
              "type": "uint256"
            },
            {
              "internalType": "uint256",
              "name": "totalHarvestedToken",
              "type": "uint256"
            },
            {
              "internalType": "uint256",
              "name": "deadTime",
              "type": "uint256"
            },
            {
              "internalType": "uint256",
              "name": "colorId",
              "type": "uint256"
            },
            {
              "internalType": "uint8",
              "name": "rareId",
              "type": "uint8"
            },
            {
              "internalType": "uint8",
              "name": "activeToolshedType",
              "type": "uint8"
            },
            {
              "internalType": "uint8[5]",
              "name": "facilityLevel",
              "type": "uint8[5]"
            },
            {
              "internalType": "bool",
              "name": "isRare",
              "type": "bool"
            },
            {
              "internalType": "bool",
              "name": "activated",
              "type": "bool"
            },
            {
              "internalType": "bool[12]",
              "name": "hasAddon",
              "type": "bool[12]"
            },
            {
              "internalType": "bool",
              "name": "hasFireplace",
              "type": "bool"
            },
            {
              "internalType": "bool",
              "name": "hasHarvester",
              "type": "bool"
            },
            {
              "internalType": "bool[5]",
              "name": "hasToolshed",
              "type": "bool[5]"
            },
            {
              "internalType": "bool[5]",
              "name": "hasBoost",
              "type": "bool[5]"
            },
            {
              "internalType": "bool",
              "name": "hasConcreteFoundation",
              "type": "bool"
            },
            {
              "internalType": "bool",
              "name": "onSale",
              "type": "bool"
            }
          ],
          "internalType": "struct HouseNFT.House",
          "name": "",
          "type": "tuple"
        }
      ],
      "stateMutability": "view",
      "type": "function"
    },
    {
      "inputs": [
        {
          "internalType": "address",
          "name": "_owner",
          "type": "address"
        }
      ],
      "name": "getHousesByOwner",
      "outputs": [
        {
          "internalType": "uint256[]",
          "name": "",
          "type": "uint256[]"
        }
      ],
      "stateMutability": "view",
      "type": "function"
    },
    {
      "inputs": [
        {
          "internalType": "uint256",
          "name": "tokenId",
          "type": "uint256"
        }
      ],
      "name": "getLastFortificationTime",
      "outputs": [
        {
          "internalType": "uint256[3]",
          "name": "",
          "type": "uint256[3]"
        }
      ],
      "stateMutability": "view",
      "type": "function"
    },
    {
      "inputs": [
        {
          "internalType": "uint256",
          "name": "tokenId",
          "type": "uint256"
        }
      ],
      "name": "getOwnerAndStatus",
      "outputs": [
        {
          "internalType": "address",
          "name": "",
          "type": "address"
        },
        {
          "internalType": "bool",
          "name": "",
          "type": "bool"
        },
        {
          "internalType": "uint256",
          "name": "",
          "type": "uint256"
        }
      ],
      "stateMutability": "view",
      "type": "function"
    },
    {
      "inputs": [
        {
          "internalType": "uint256",
          "name": "tokenId",
          "type": "uint256"
        }
      ],
      "name": "getResourceReward",
      "outputs": [
        {
          "internalType": "uint256[5]",
          "name": "",
          "type": "uint256[5]"
        }
      ],
      "stateMutability": "view",
      "type": "function"
    },
    {
      "inputs": [
        {
          "internalType": "uint256",
          "name": "tokenId",
          "type": "uint256"
        }
      ],
      "name": "getTokenReward",
      "outputs": [
        {
          "internalType": "uint256",
          "name": "",
          "type": "uint256"
        }
      ],
      "stateMutability": "view",
      "type": "function"
    },
    {
      "inputs": [
        {
          "internalType": "uint256",
          "name": "tokenId",
          "type": "uint256"
        }
      ],
      "name": "getToolshed",
      "outputs": [
        {
          "internalType": "bool[5]",
          "name": "",
          "type": "bool[5]"
        }
      ],
      "stateMutability": "view",
      "type": "function"
    },
    {
      "inputs": [
        {
          "internalType": "address",
          "name": "owner",
          "type": "address"
        },
        {
          "internalType": "address",
          "name": "operator",
          "type": "address"
        }
      ],
      "name": "isApprovedForAll",
      "outputs": [
        {
          "internalType": "bool",
          "name": "",
          "type": "bool"
        }
      ],
      "stateMutability": "view",
      "type": "function"
    },
    {
      "inputs": [
        {
          "internalType": "address",
          "name": "to",
          "type": "address"
        },
        {
          "internalType": "bool",
          "name": "isRare",
          "type": "bool"
        },
        {
          "internalType": "string",
          "name": "tokenURI",
          "type": "string"
        }
      ],
      "name": "mint",
      "outputs": [],
      "stateMutability": "nonpayable",
      "type": "function"
    },
    {
      "inputs": [],
      "name": "name",
      "outputs": [
        {
          "internalType": "string",
          "name": "",
          "type": "string"
        }
      ],
      "stateMutability": "view",
      "type": "function"
    },
    {
      "inputs": [],
      "name": "owner",
      "outputs": [
        {
          "internalType": "address",
          "name": "",
          "type": "address"
        }
      ],
      "stateMutability": "view",
      "type": "function"
    },
    {
      "inputs": [
        {
          "internalType": "uint256",
          "name": "tokenId",
          "type": "uint256"
        }
      ],
      "name": "ownerOf",
      "outputs": [
        {
          "internalType": "address",
          "name": "",
          "type": "address"
        }
      ],
      "stateMutability": "view",
      "type": "function"
    },
    {
      "inputs": [],
      "name": "renounceOwnership",
      "outputs": [],
      "stateMutability": "nonpayable",
      "type": "function"
    },
    {
      "inputs": [
        {
          "internalType": "uint256",
          "name": "tokenId",
          "type": "uint256"
        }
      ],
      "name": "repairByHandyman",
      "outputs": [],
      "stateMutability": "nonpayable",
      "type": "function"
    },
    {
      "inputs": [
        {
          "internalType": "address",
          "name": "from",
          "type": "address"
        },
        {
          "internalType": "address",
          "name": "to",
          "type": "address"
        },
        {
          "internalType": "uint256",
          "name": "tokenId",
          "type": "uint256"
        }
      ],
      "name": "safeTransferFrom",
      "outputs": [],
      "stateMutability": "nonpayable",
      "type": "function"
    },
    {
      "inputs": [
        {
          "internalType": "address",
          "name": "from",
          "type": "address"
        },
        {
          "internalType": "address",
          "name": "to",
          "type": "address"
        },
        {
          "internalType": "uint256",
          "name": "tokenId",
          "type": "uint256"
        },
        {
          "internalType": "bytes",
          "name": "_data",
          "type": "bytes"
        }
      ],
      "name": "safeTransferFrom",
      "outputs": [],
      "stateMutability": "nonpayable",
      "type": "function"
    },
    {
      "inputs": [
        {
          "internalType": "uint256",
          "name": "tokenId",
          "type": "uint256"
        },
        {
          "internalType": "uint256",
          "name": "_type",
          "type": "uint256"
        }
      ],
      "name": "setAfterFortify",
      "outputs": [],
      "stateMutability": "nonpayable",
      "type": "function"
    },
    {
      "inputs": [
        {
          "internalType": "uint256",
          "name": "tokenId",
          "type": "uint256"
        },
        {
          "internalType": "bool[5]",
          "name": "harvestingReward",
          "type": "bool[5]"
        },
        {
          "internalType": "uint256",
          "name": "harvestTokenAmount",
          "type": "uint256"
        }
      ],
      "name": "setAfterHarvest",
      "outputs": [],
      "stateMutability": "nonpayable",
      "type": "function"
    },
    {
      "inputs": [
        {
          "internalType": "uint256",
          "name": "tokenId",
          "type": "uint256"
        },
        {
          "internalType": "uint256",
          "name": "repairedDurability",
          "type": "uint256"
        }
      ],
      "name": "setAfterRepair",
      "outputs": [],
      "stateMutability": "nonpayable",
      "type": "function"
    },
    {
      "inputs": [
        {
          "internalType": "address",
          "name": "operator",
          "type": "address"
        },
        {
          "internalType": "bool",
          "name": "approved",
          "type": "bool"
        }
      ],
      "name": "setApprovalForAll",
      "outputs": [],
      "stateMutability": "nonpayable",
      "type": "function"
    },
    {
      "inputs": [
        {
          "internalType": "string",
          "name": "baseURI_",
          "type": "string"
        }
      ],
      "name": "setBaseURI",
      "outputs": [],
      "stateMutability": "nonpayable",
      "type": "function"
    },
    {
      "inputs": [
        {
          "internalType": "address",
          "name": "_settingAddress",
          "type": "address"
        },
        {
          "internalType": "address",
          "name": "_helperAddress",
          "type": "address"
        },
        {
          "internalType": "address",
          "name": "_gameAddress",
          "type": "address"
        },
        {
          "internalType": "address",
          "name": "_stakeAddress",
          "type": "address"
        },
        {
          "internalType": "address",
          "name": "_whitelistAddress",
          "type": "address"
        }
      ],
      "name": "setContractAddress",
      "outputs": [],
      "stateMutability": "nonpayable",
      "type": "function"
    },
    {
      "inputs": [
        {
          "internalType": "uint256",
          "name": "tokenId",
          "type": "uint256"
        }
      ],
      "name": "setDeadTime",
      "outputs": [],
      "stateMutability": "nonpayable",
      "type": "function"
    },
    {
      "inputs": [
        {
          "internalType": "uint256",
          "name": "tokenId",
          "type": "uint256"
        },
        {
          "internalType": "uint256",
          "name": "_type",
          "type": "uint256"
        }
      ],
      "name": "setFacilityLevel",
      "outputs": [],
      "stateMutability": "nonpayable",
      "type": "function"
    },
    {
      "inputs": [
        {
          "internalType": "uint256",
          "name": "tokenId",
          "type": "uint256"
        },
        {
          "internalType": "bool",
          "name": "addon",
          "type": "bool"
        },
        {
          "internalType": "uint256",
          "name": "addonId",
          "type": "uint256"
        }
      ],
      "name": "setHasAddon",
      "outputs": [],
      "stateMutability": "nonpayable",
      "type": "function"
    },
    {
      "inputs": [
        {
          "internalType": "uint256",
          "name": "tokenId",
          "type": "uint256"
        },
        {
          "internalType": "bool",
          "name": "hasConcreteFoundation",
          "type": "bool"
        }
      ],
      "name": "setHasConcreteFoundation",
      "outputs": [],
      "stateMutability": "nonpayable",
      "type": "function"
    },
    {
      "inputs": [
        {
          "internalType": "uint256",
          "name": "tokenId",
          "type": "uint256"
        },
        {
          "internalType": "bool",
          "name": "hasFireplace",
          "type": "bool"
        }
      ],
      "name": "setHasFireplace",
      "outputs": [],
      "stateMutability": "nonpayable",
      "type": "function"
    },
    {
      "inputs": [
        {
          "internalType": "uint256",
          "name": "tokenId",
          "type": "uint256"
        },
        {
          "internalType": "bool",
          "name": "hasHarvester",
          "type": "bool"
        }
      ],
      "name": "setHasHarvester",
      "outputs": [],
      "stateMutability": "nonpayable",
      "type": "function"
    },
    {
      "inputs": [
        {
          "internalType": "uint256",
          "name": "tokenId",
          "type": "uint256"
        },
        {
          "internalType": "string",
          "name": "_name",
          "type": "string"
        }
      ],
      "name": "setHouseName",
      "outputs": [],
      "stateMutability": "nonpayable",
      "type": "function"
    },
    {
      "inputs": [
        {
          "internalType": "uint256",
          "name": "tokenId",
          "type": "uint256"
        },
        {
          "internalType": "uint256",
          "name": "amount",
          "type": "uint256"
        }
      ],
      "name": "setLastFirepitTime",
      "outputs": [],
      "stateMutability": "nonpayable",
      "type": "function"
    },
    {
      "inputs": [
        {
          "internalType": "uint256",
          "name": "tokenId",
          "type": "uint256"
        },
        {
          "internalType": "bool",
          "name": "isSale",
          "type": "bool"
        }
      ],
      "name": "setOnsale",
      "outputs": [],
      "stateMutability": "nonpayable",
      "type": "function"
    },
    {
      "inputs": [
        {
          "internalType": "uint256",
          "name": "tokenId",
          "type": "uint256"
        }
      ],
      "name": "setPowerRewardTime",
      "outputs": [],
      "stateMutability": "nonpayable",
      "type": "function"
    },
    {
      "inputs": [
        {
          "internalType": "uint256",
          "name": "tokenId",
          "type": "uint256"
        },
        {
          "internalType": "uint256",
          "name": "_type",
          "type": "uint256"
        }
      ],
      "name": "setToolshed",
      "outputs": [],
      "stateMutability": "nonpayable",
      "type": "function"
    },
    {
      "inputs": [
        {
          "internalType": "bytes4",
          "name": "interfaceId",
          "type": "bytes4"
        }
      ],
      "name": "supportsInterface",
      "outputs": [
        {
          "internalType": "bool",
          "name": "",
          "type": "bool"
        }
      ],
      "stateMutability": "view",
      "type": "function"
    },
    {
      "inputs": [],
      "name": "symbol",
      "outputs": [
        {
          "internalType": "string",
          "name": "",
          "type": "string"
        }
      ],
      "stateMutability": "view",
      "type": "function"
    },
    {
      "inputs": [
        {
          "internalType": "uint256",
          "name": "tokenId",
          "type": "uint256"
        }
      ],
      "name": "tokenURI",
      "outputs": [
        {
          "internalType": "string",
          "name": "",
          "type": "string"
        }
      ],
      "stateMutability": "view",
      "type": "function"
    },
    {
      "inputs": [],
      "name": "totalSupply",
      "outputs": [
        {
          "internalType": "uint256",
          "name": "",
          "type": "uint256"
        }
      ],
      "stateMutability": "view",
      "type": "function"
    },
    {
      "inputs": [
        {
          "internalType": "address",
          "name": "from",
          "type": "address"
        },
        {
          "internalType": "address",
          "name": "to",
          "type": "address"
        },
        {
          "internalType": "uint256",
          "name": "tokenId",
          "type": "uint256"
        }
      ],
      "name": "transferFrom",
      "outputs": [],
      "stateMutability": "nonpayable",
      "type": "function"
    },
    {
      "inputs": [
        {
          "internalType": "address",
          "name": "newOwner",
          "type": "address"
        }
      ],
      "name": "transferOwnership",
      "outputs": [],
      "stateMutability": "nonpayable",
      "type": "function"
    },
    {
      "inputs": [
        {
          "internalType": "uint256",
          "name": "tokenId",
          "type": "uint256"
        },
        {
          "internalType": "uint256",
          "name": "balance",
          "type": "uint256"
        }
      ],
      "name": "withdraw",
      "outputs": [],
      "stateMutability": "nonpayable",
      "type": "function"
    }
  ],
  "bytecode": "0x60806040526000600d556000600e55633b9aca006010553480156200002357600080fd5b5060405162005f8838038062005f8883398101604081905262000046916200029b565b8351849084906200005f90600090602085019062000142565b5080516200007590600190602084019062000142565b505050620000926200008c620000ec60201b60201c565b620000f0565b600780546001600160a01b0319166001600160a01b038316178155600f8390556040805180820190915281815266697066733a2f2f60c81b6020909101908152620000e191600c919062000142565b50505050506200037f565b3390565b600680546001600160a01b038381166001600160a01b0319831681179093556040519116919082907f8be0079c531659141344cd1fd0a4f28419497f9722a3daafe3b4186f6b6457e090600090a35050565b82805462000150906200032c565b90600052602060002090601f016020900481019282620001745760008555620001bf565b82601f106200018f57805160ff1916838001178555620001bf565b82800160010185558215620001bf579182015b82811115620001bf578251825591602001919060010190620001a2565b50620001cd929150620001d1565b5090565b5b80821115620001cd5760008155600101620001d2565b600082601f830112620001f9578081fd5b81516001600160401b038082111562000216576200021662000369565b604051601f8301601f19908116603f0116810190828211818310171562000241576200024162000369565b816040528381526020925086838588010111156200025d578485fd5b8491505b8382101562000280578582018301518183018401529082019062000261565b838211156200029157848385830101525b9695505050505050565b60008060008060808587031215620002b1578384fd5b84516001600160401b0380821115620002c8578586fd5b620002d688838901620001e8565b95506020870151915080821115620002ec578485fd5b50620002fb87828801620001e8565b60408701516060880151919550935090506001600160a01b038116811462000321578182fd5b939692955090935050565b600181811c908216806200034157607f821691505b602082108114156200036357634e487b7160e01b600052602260045260246000fd5b50919050565b634e487b7160e01b600052604160045260246000fd5b615bf9806200038f6000396000f3fe608060405234801561001057600080fd5b50600436106103f15760003560e01c80638229ea5d11610215578063c647f86911610125578063e7b065a5116100b8578063ee2c90c911610087578063ee2c90c914610ab0578063f041c79914610ac3578063f0e221b614610ad6578063f2406fd914610ae9578063f2fde38b14610afc57600080fd5b8063e7b065a514610a3b578063e978691f14610a4e578063e985e9c514610a61578063edf63cd014610a9d57600080fd5b8063d043640a116100f4578063d043640a146109e2578063d5957f6d146109f5578063de3aa52314610a08578063e2bbb15814610a2857600080fd5b8063c647f86914610996578063c782702b146109a9578063c87b56dd146109bc578063c906a77a146109cf57600080fd5b8063a22cb465116101a8578063b260c42a11610177578063b260c42a14610912578063b2a0153214610925578063b36003d71461094b578063b88d4fde14610970578063c02113791461098357600080fd5b8063a22cb465146108a0578063a5dd6789146108b3578063a92aed0d146108de578063ad5f2665146108ff57600080fd5b806395d89b41116101e457806395d89b411461085f578063988489b8146108675780639bac0b631461087a5780639d6aa1721461088d57600080fd5b80638229ea5d146107e25780638acbf0b4146108085780638da5cb5b1461082b57806390facd5a1461083c57600080fd5b806342d691a5116103105780636352211e116102a3578063734a884e11610272578063734a884e146106b257806373d48e9e146106c557806375e6c709146106d85780637aab84bd146106f857806381696c6b146107cf57600080fd5b80636352211e1461067157806363b2b0c71461068457806370a0823114610697578063715018a6146106aa57600080fd5b80634c6dd00e116102df5780634c6dd00e146105f35780634d5aa2541461061e57806355f804b31461063e5780635f8892671461065157600080fd5b806342d691a5146105a75780634400f16b146105ba578063441a3e70146105cd57806344d98c8e146105e057600080fd5b806318b9af1f116103885780633614c512116103575780633614c5121461054e57806338bb54c31461056e5780634069c7bf1461058157806342842e0e1461059457600080fd5b806318b9af1f146104c257806323b872dd146104fa5780632f06dba81461050d5780633107c99d1461052e57600080fd5b8063081812fc116103c4578063081812fc1461045b578063095ea7b3146104865780630eb452a61461049957806318160ddd146104ba57600080fd5b806301ffc9a7146103f657806303ec20de1461041e5780630656df1f1461043357806306fdde0314610446575b600080fd5b610409610404366004615057565b610b0f565b60405190151581526020015b60405180910390f35b61043161042c3660046150c2565b610b61565b005b61043161044136600461520f565b610bcb565b61044e610c90565b6040516104159190615644565b61046e6104693660046150c2565b610d22565b6040516001600160a01b039091168152602001610415565b610431610494366004614f3e565b610db7565b6104ac6104a73660046150c2565b610ec8565b604051908152602001610415565b600d546104ac565b6104d56104d03660046150c2565b611077565b604080516001600160a01b039094168452911515602084015290820152606001610415565b610431610508366004614df6565b6110b2565b61052061051b36600461520f565b6110e3565b6040516104159291906155e4565b61054161053c3660046150c2565b611192565b604051610415919061575a565b61056161055c3660046150c2565b6115e0565b604051610415919061558e565b61043161057c3660046150c2565b61164b565b61043161058f3660046150c2565b6116fe565b6104316105a2366004614df6565b6118f4565b6104316105b536600461520f565b61190f565b6104316105c836600461520f565b611b3b565b6104316105db36600461520f565b611bff565b6104316105ee366004614d92565b611c7b565b6104ac6106013660046150c2565b6000908152600a60205260409020601a0154610100900460ff1690565b61063161062c3660046150c2565b611d04565b60405161041591906155ba565b61043161064c36600461508f565b611d59565b61066461065f3660046150c2565b611d96565b60405161041591906155d6565b61046e61067f3660046150c2565b612133565b6104096106923660046150c2565b6121aa565b6104ac6106a5366004614d46565b6121db565b610431612262565b6104316106c03660046151ca565b612298565b6104ac6106d33660046150c2565b612313565b6106eb6106e6366004614d46565b6123dc565b6040516104159190615600565b6107766107063660046150c2565b6000908152600a60209081526040909120601c81015491810154601082015460158301546011840154600e850154600f860154601a8701546021880154601e9098015460ff998a169a978a1699969895979496939586959394610100938490048116949181169390920490911690565b604080519b15158c5299151560208c0152988a01979097526060890195909552608088019390935260a087019190915260c086015260e08501526101008401521515610120830152151561014082015261016001610415565b6104316107dd3660046150c2565b612503565b6104096107f03660046150c2565b6000908152600a602052604090206021015460ff1690565b6104ac6108163660046150c2565b6000908152600a602052604090206016015490565b6006546001600160a01b031661046e565b6104ac61084a3660046150c2565b6000908152600a602052604090206002015490565b61044e612675565b610431610875366004614ee0565b612684565b61043161088836600461516f565b612bc1565b61040961089b36600461520f565b612c79565b6104316108ae366004614eaa565b612cd5565b6104096108c13660046150c2565b6000908152600a60205260409020601e0154610100900460ff1690565b6108f16108ec3660046150c2565b612ce0565b60405161041592919061559d565b6104ac61090d36600461520f565b612d66565b6104316109203660046150c2565b612db4565b6104096109333660046150c2565b6000908152600a60205260409020601e015460ff1690565b61095e6109593660046150c2565b612e59565b60405161041596959493929190615541565b61043161097e366004614e31565b612f40565b6104ac61099136600461520f565b612f72565b6104316109a436600461520f565b613134565b6104316109b736600461520f565b6131ee565b61044e6109ca3660046150c2565b61325b565b6104316109dd36600461516f565b613340565b6104316109f0366004615193565b6133a2565b610409610a0336600461520f565b6135fd565b610a1b610a163660046150c2565b61369e565b60405161041591906155c8565b610431610a3636600461520f565b6136ed565b6104ac610a493660046150c2565b61375f565b610431610a5c36600461516f565b6137b2565b610409610a6f366004614d60565b6001600160a01b03918216600090815260056020908152604080832093909416825291909152205460ff1690565b610431610aab36600461520f565b61381b565b6104ac610abe366004614d46565b613906565b610431610ad136600461516f565b613973565b610431610ae43660046150f2565b6139d5565b610431610af73660046150c2565b613bea565b610431610b0a366004614d46565b613cd7565b60006001600160e01b031982166380ac58cd60e01b1480610b4057506001600160e01b03198216635b5e139f60e01b145b80610b5b57506301ffc9a760e01b6001600160e01b03198316145b92915050565b6011546001600160a01b0316331480610b8457506012546001600160a01b031633145b610ba95760405162461bcd60e51b8152600401610ba0906156a9565b60405180910390fd5b6010548114610bc8576000818152600a60205260409020426009909101555b50565b6011546001600160a01b0316331480610bee57506012546001600160a01b031633145b610c0a5760405162461bcd60e51b8152600401610ba0906156a9565b610c1382613d6f565b6000828152600a6020526040902060158101544210610c5e57670de0b6b3a7640000610c40603c84615ac7565b610c4a9190615aa7565b610c549042615a8f565b6015820155505050565b670de0b6b3a7640000610c72603c84615ac7565b610c7c9190615aa7565b8160150154610c549190615a8f565b505050565b606060008054610c9f90615afd565b80601f0160208091040260200160405190810160405280929190818152602001828054610ccb90615afd565b8015610d185780601f10610ced57610100808354040283529160200191610d18565b820191906000526020600020905b815481529060010190602001808311610cfb57829003601f168201915b5050505050905090565b6000818152600260205260408120546001600160a01b0316610d9b5760405162461bcd60e51b815260206004820152602c60248201527f4552433732313a20617070726f76656420717565727920666f72206e6f6e657860448201526b34b9ba32b73a103a37b5b2b760a11b6064820152608401610ba0565b506000908152600460205260409020546001600160a01b031690565b6000610dc282612133565b9050806001600160a01b0316836001600160a01b03161415610e305760405162461bcd60e51b815260206004820152602160248201527f4552433732313a20617070726f76616c20746f2063757272656e74206f776e656044820152603960f91b6064820152608401610ba0565b336001600160a01b0382161480610e4c5750610e4c8133610a6f565b610ebe5760405162461bcd60e51b815260206004820152603860248201527f4552433732313a20617070726f76652063616c6c6572206973206e6f74206f7760448201527f6e6572206e6f7220617070726f76656420666f7220616c6c00000000000000006064820152608401610ba0565b610c8b8383613ed1565b6000818152600a602052604080822060038101546017820154600754601c840154945163e43bb28d60e01b815260ff90951615156004860152929385936001600160a01b03169063e43bb28d9060240160206040518083038186803b158015610f3057600080fd5b505afa158015610f44573d6000803e3d6000fd5b505050506040513d601f19601f82011682018060405250810190610f6891906150da565b610f729190615ae6565b610f7c9190615ae6565b6008546002840154601c85015460208087015460218801546040805160808101825260108b0154815260158b01549481019490945260118a015484820152600e8a01546060850152600f8a0154905163678091f760e01b81529798506001600160a01b039096169663678091f79661101096958a95601d8d019560ff928316959083169492169260128e0192600401615993565b60206040518083038186803b15801561102857600080fd5b505afa15801561103c573d6000803e3d6000fd5b505050506040513d601f19601f8201168201806040525081019061106091906150da565b826003015461106f9190615a8f565b949350505050565b600080600061108584612133565b6000948552600a6020526040909420601c810154601890910154949561010090910460ff16949350915050565b6110bc3382613f3f565b6110d85760405162461bcd60e51b8152600401610ba090615709565b610c8b838383614032565b6110eb614939565b6110f3614939565b6007546000858152600a6020526040908190209051630550290b60e31b81526001600160a01b0390921691632a81485891611136918791601d019060040161597e565b6101406040518083038186803b15801561114f57600080fd5b505afa158015611163573d6000803e3d6000fd5b505050506040513d601f19601f820116820180604052508101906111879190614f67565b915091509250929050565b61119a614957565b6000828152600a602052604090819020815161038081019092528054829082906111c390615afd565b80601f01602080910402602001604051908101604052809291908181526020018280546111ef90615afd565b801561123c5780601f106112115761010080835404028352916020019161123c565b820191906000526020600020905b81548152906001019060200180831161121f57829003601f168201915b5050505050815260200160018201805461125590615afd565b80601f016020809104026020016040519081016040528092919081815260200182805461128190615afd565b80156112ce5780601f106112a3576101008083540402835291602001916112ce565b820191906000526020600020905b8154815290600101906020018083116112b157829003601f168201915b5050509183525050600282015460208201526003820154604080830191909152805160a081019182905260609092019190600484019060059082845b81548152602001906001019080831161130a5750505091835250506040805160a081019182905260209092019190600984019060059082845b8154815260200190600101908083116113435750505050508152602001600e8201548152602001600f82015481526020016010820154815260200160118201548152602001601282016003806020026040519081016040528092919082600380156113c3576020028201915b8154815260200190600101908083116113af575b50505091835250506015820154602082015260168201546040808301919091526017830154606083015260188301546080830152601983015460a080840191909152601a84015460ff80821660c0860152610100918290041660e08501528251918201928390529092019190601b840190600590826000855b825461010083900a900460ff1681526020600192830181810494850194909303909202910180841161143c57505050928452505050601c82015460ff80821615156020840152610100909104161515604080830191909152805161018081019182905260609092019190601d840190600c90826000855b825461010083900a900460ff1615158152602060019283018181049485019490930390920291018084116114b357505050928452505050601e82015460ff80821615156020840152610100909104161515604080830191909152805160a081019182905260609092019190601f840190600590826000855b825461010083900a900460ff16151581526020600192830181810494850194909303909202910180841161152b5750505092845250506040805160a0810191829052602093840193909250840190600590826000855b825461010083900a900460ff161515815260206001928301818104948501949093039092029101808411611581575050509284525050506021919091015460ff8082161515602084015261010090910416151560409091015292915050565b6115e8614a58565b6000828152600a6020526040808220815161018081019283905292601d90910191600c918390855b825461010083900a900460ff161515815260206001928301818104948501949093039092029101808411611610575094979650505050505050565b6011546001600160a01b031633148061166e57506012546001600160a01b031633145b61168a5760405162461bcd60e51b8152600401610ba0906156a9565b61169381613d6f565b61169c816141dd565b6040805160a081018252600080825260208083018290528284018290526060830182905260808301829052848252600a81529290206116de9201906005614a77565b506000908152600a6020908152604090912001805460ff19166001179055565b6011546001600160a01b031633148061172157506012546001600160a01b031633145b61173d5760405162461bcd60e51b8152600401610ba0906156a9565b6000818152600a602052604080822060038101546017820154600754601c840154945163e43bb28d60e01b815260ff90951615156004860152929493919290916001600160a01b039091169063e43bb28d9060240160206040518083038186803b1580156117aa57600080fd5b505afa1580156117be573d6000803e3d6000fd5b505050506040513d601f19601f820116820180604052508101906117e291906150da565b6117ec9190615ae6565b6117f69190615ae6565b60408051608081018252601085015481526015850154602080830191909152601186015482840152600e86015460608301526008546002870154601c880154928801546021890154600f8a0154965163678091f760e01b8152979850949688966001600160a01b039094169563678091f795611891958994601d8e019460ff93841694918416939091169160128f01918d9190600401615993565b60206040518083038186803b1580156118a957600080fd5b505afa1580156118bd573d6000803e3d6000fd5b505050506040513d601f19601f820116820180604052508101906118e191906150da565b14156118ee574260188401555b50505050565b610c8b83838360405180602001604052806000815250612f40565b6011546001600160a01b031633148061193257506012546001600160a01b031633145b61194e5760405162461bcd60e51b8152600401610ba0906156a9565b6000828152600a6020526040902061196583610ec8565b600382015560075460408051634c6b4c0d60e11b815290516001600160a01b03909216916398d6981a91600480820192602092909190829003018186803b1580156119af57600080fd5b505afa1580156119c3573d6000803e3d6000fd5b505050506040513d601f19601f820116820180604052508101906119e791906150da565b6119f19042615a8f565b816012018360038110611a1457634e487b7160e01b600052603260045260246000fd5b0155611a29670de0b6b3a7640000600a615ac7565b60085460218301546001600160a01b0390911690635e61537f90429060ff16611a6457611a5f670de0b6b3a76400006014615ac7565b611a77565b611a77670de0b6b3a76400006012615ac7565b604080516080810182526010880154815260158801546020820152601188015481830152600e8801546060820152600f88015491516001600160e01b031960e087901b168152611ad194939260128a0192916004016159fb565b60206040518083038186803b158015611ae957600080fd5b505afa158015611afd573d6000803e3d6000fd5b505050506040513d601f19601f82011682018060405250810190611b2191906150da565b611b2b9190615a8f565b600f82015542600e909101555050565b6011546001600160a01b0316331480611b5e57506012546001600160a01b031633145b611b7a5760405162461bcd60e51b8152600401610ba0906156a9565b6000828152600a60205260409020600190601f018260058110611bad57634e487b7160e01b600052603260045260246000fd5b602091828204019190066101000a81548160ff02191690831515021790555080600a6000848152602001908152602001600020601a0160016101000a81548160ff021916908360ff1602179055505050565b6011546001600160a01b0316331480611c2257506012546001600160a01b031633145b611c3e5760405162461bcd60e51b8152600401610ba0906156a9565b611c4782613d6f565b6000828152600a602052604081206002018054839290611c68908490615ae6565b90915550611c779050826116fe565b5050565b6006546001600160a01b03163314611ca55760405162461bcd60e51b8152600401610ba0906156d4565b600780546001600160a01b03199081166001600160a01b03978816179091556008805482169587169590951790945560098054851691861691909117905560118054841692851692909217909155601280549092169216919091179055565b611d0c614939565b6000828152600a6020908152604091829020825160a0810193849052601f909101805460ff1615158252909290916005919083906001908601808411611610575094979650505050505050565b6006546001600160a01b03163314611d835760405162461bcd60e51b8152600401610ba0906156d4565b8051611c7790600c906020840190614b09565b611d9e614939565b6000828152600a60205260409020611db4614939565b601882015415611df7576040805160a081019182905290600484019060059082845b815481526020019060010190808311611dd657505050505092505050919050565b60015b600581101561212b5782601b018160058110611e2657634e487b7160e01b600052603260045260246000fd5b602081049091015460ff601f9092166101000a900416611e4557612119565b826004018160058110611e6857634e487b7160e01b600052603260045260246000fd5b0154828260058110611e8a57634e487b7160e01b600052603260045260246000fd5b60200201526007546000906001600160a01b0316639be541f783601b87018160058110611ec757634e487b7160e01b600052603260045260246000fd5b60208104909101546040516001600160e01b031960e086901b168152600481019390935260ff601f9092166101000a900416602482015260440160206040518083038186803b158015611f1957600080fd5b505afa158015611f2d573d6000803e3d6000fd5b505050506040513d601f19601f82011682018060405250810190611f5191906150da565b9050836020018260058110611f7657634e487b7160e01b600052603260045260246000fd5b602081049091015460ff601f9092166101000a9004161561202657603c6064856009018460058110611fb857634e487b7160e01b600052603260045260246000fd5b0154611fc49042615ae6565b611fce9084615ac7565b611fd9906082615ac7565b611fe39190615aa7565b611fed9190615aa7565b83836005811061200d57634e487b7160e01b600052603260045260246000fd5b6020020181815161201e9190615a8f565b9052506120a0565b603c84600901836005811061204b57634e487b7160e01b600052603260045260246000fd5b01546120579042615ae6565b6120619083615ac7565b61206b9190615aa7565b83836005811061208b57634e487b7160e01b600052603260045260246000fd5b6020020181815161209c9190615a8f565b9052505b6120b3670de0b6b3a7640000600a615ac7565b8383600581106120d357634e487b7160e01b600052603260045260246000fd5b60200201511115612117576120f1670de0b6b3a7640000600a615ac7565b83836005811061211157634e487b7160e01b600052603260045260246000fd5b60200201525b505b8061212381615b38565b915050611dfa565b509392505050565b6000818152600260205260408120546001600160a01b031680610b5b5760405162461bcd60e51b815260206004820152602960248201527f4552433732313a206f776e657220717565727920666f72206e6f6e657869737460448201526832b73a103a37b5b2b760b91b6064820152608401610ba0565b6000818152600a60205260408120601d01546301000000900460ff16156121d357506001919050565b506000919050565b60006001600160a01b0382166122465760405162461bcd60e51b815260206004820152602a60248201527f4552433732313a2062616c616e636520717565727920666f7220746865207a65604482015269726f206164647265737360b01b6064820152608401610ba0565b506001600160a01b031660009081526003602052604090205490565b6006546001600160a01b0316331461228c5760405162461bcd60e51b8152600401610ba0906156d4565b6122966000614297565b565b6122a182612133565b6001600160a01b0316336001600160a01b0316146122f05760405162461bcd60e51b815260206004820152600c60248201526b14d95d0813985b594e88141160a21b6044820152606401610ba0565b6000828152600a60209081526040909120825190916118ee918391850190614b09565b6000806010548314610b5b576000838152600a60205260409020601c0154610100900460ff166123435792915050565b6007546000848152600a602052604090819020601b01549051630fe393af60e31b815260ff90911660048201526001600160a01b0390911690637f1c9d789060240160206040518083038186803b15801561239d57600080fd5b505afa1580156123b1573d6000803e3d6000fd5b505050506040513d601f19601f820116820180604052508101906123d591906150da565b9392505050565b60606000805b600d5481101561242e57836001600160a01b03166123ff82612133565b6001600160a01b0316141561241c578161241881615b38565b9250505b8061242681615b38565b9150506123e2565b5060008167ffffffffffffffff81111561245857634e487b7160e01b600052604160045260246000fd5b604051908082528060200260200182016040528015612481578160200160208202803683370190505b5090506000915060005b600d5481101561212b57846001600160a01b03166124a882612133565b6001600160a01b031614156124f157808284815181106124d857634e487b7160e01b600052603260045260246000fd5b6020908102919091010152826124ed81615b38565b9350505b806124fb81615b38565b91505061248b565b6011546001600160a01b031633148061252657506012546001600160a01b031633145b6125425760405162461bcd60e51b8152600401610ba0906156a9565b6000818152600a6020526040902061255982610ec8565b600382015560085460405163c995e9a560e01b8152600481018490526001600160a01b039091169063c995e9a59060240160206040518083038186803b1580156125a257600080fd5b505afa1580156125b6573d6000803e3d6000fd5b505050506040513d601f19601f820116820180604052508101906125da91906150da565b600f82015542600e8201556007546040805163519e69d960e11b815290516001600160a01b039092169163a33cd3b291600480820192602092909190829003018186803b15801561262a57600080fd5b505afa15801561263e573d6000803e3d6000fd5b505050506040513d601f19601f8201168201806040525081019061266291906150da565b61266c9042615a8f565b60169091015550565b606060018054610c9f90615afd565b6006546001600160a01b031633146126ae5760405162461bcd60e51b8152600401610ba0906156d4565b811561270757600f54600e54106127075760405162461bcd60e51b815260206004820152601b60248201527f4c696d6974656420746f206d696e74207261726520686f7573657300000000006044820152606401610ba0565b61271383600d546142e9565b61271f600d5482614303565b604051806103800160405280604051806040016040528060048152602001632629a72360e11b81525081526020016040518060400160405280600e81526020016d1c189b9018993a341020bb32902760911b815250815260200160008152602001600081526020016040518060a0016040528060008152602001600081526020016000815260200160008152602001600081525081526020016040518060a00160405280428152602001428152602001428152602001428152602001428152508152602001428152602001670de0b6b3a764000060646127ff9190615ac7565b815260006020808301829052604080840183905280516060818101835284825281840185905281830185905280860191909152608080860185905260a080870186905260c080880187905260e0808901889052610100808a01899052600e5460ff16610120808c0191909152610140808c018b905288518087018a5260018152808b018c9052808a018c90528089018c90528088018c9052610160808e01919091528f1515610180808f01919091526101a08e018d90528a519081018b528c8152808c018d9052808b018d9052808a018d90528089018d90528088018d90529586018c90529385018b90529184018a90528301899052820188905281018790526101c08801526101e0870186905261020087018690528351808201855286815280860187905280850187905280840187905280830187905261022088015283519081018452858152938401859052918301849052820183905281018290526102408301526102608201819052610280909101819052600d8054600a92918261298683615b38565b9091555081526020808201929092526040016000208251805191926129b092849290910190614b09565b5060208281015180516129c99260018501920190614b09565b50604082015160028201556060820151600382015560808201516129f39060048301906005614b7d565b5060a0820151612a099060098301906005614b7d565b5060c0820151600e82015560e0820151600f82015561010082015160108201556101208201516011820155610140820151612a4a9060128301906003614baa565b50610160820151601582015561018082015160168201556101a082015160178201556101c082015160188201556101e08201516019820155610200820151601a8201805461022085015160ff9081166101000261ffff19909216931692909217919091179055610240820151612ac690601b8301906005614bd7565b50610260820151601c8201805461028085015115156101000261ff00199315159390931661ffff19909116179190911790556102a0820151612b0e90601d830190600c614a77565b506102c0820151601e820180546102e085015115156101000261ff00199315159390931661ffff1990911617919091179055610300820151612b5690601f8301906005614a77565b50610320820151612b6d9060208301906005614a77565b50610340820151602190910180546103609093015115156101000261ff00199215159290921661ffff19909316929092171790558115610c8b57600e8054906000612bb783615b38565b9190505550505050565b6011546001600160a01b0316331480612be457506012546001600160a01b031633145b612c005760405162461bcd60e51b8152600401610ba0906156a9565b6000828152600a602052604090206018015415612c4f5760405162461bcd60e51b815260206004820152600d60248201526c121bdd5cd9481a5cc819195859609a1b6044820152606401610ba0565b6000918252600a602052604090912060210180549115156101000261ff0019909216919091179055565b6000828152600a602090815260408220018260058110612ca957634e487b7160e01b600052603260045260246000fd5b602081049091015460ff601f9092166101000a90041615612ccc57506000610b5b565b50600192915050565b611c7733838361439b565b612ce8614a58565b6000828152600a6020526040808220601a8101548251610180810193849052601d9092019261010090910460ff1691908390600c908287855b825461010083900a900460ff161515815260206001928301818104948501949093039092029101808411612d2157905050939960ff9095169850939650505050505050565b6000828152600a60205260408120601b018260058110612d9657634e487b7160e01b600052603260045260246000fd5b602081049091015460ff601f9092166101000a900416905092915050565b6011546001600160a01b0316331480612dd757506012546001600160a01b031633145b612df35760405162461bcd60e51b8152600401610ba0906156a9565b6000818152600a6020908152604091829020601c8101805461ff001916610100179055825160a0810184524280825292810183905292830182905260608301829052608083019190915290612e4e9060098301906005614b7d565b5042600e9091015550565b6000806000612e66614a58565b6000612e70614c2b565b6000878152600a60205260409020612e8788612133565b601c820154601883015460108401546040805161018081019182905261010090940460ff1693601d870192916012880191908490600c90826000855b825461010083900a900460ff161515815260206001928301818104948501949093039092029101808411612ec3575050604080516060810191829052959850869450600393509150839050845b815481526020019060010190808311612f1057505050505090509650965096509650965096505091939550919395565b612f4a3383613f3f565b612f665760405162461bcd60e51b8152600401610ba090615709565b6118ee8484848461446a565b60008060006010548514613109576000858152600a60205260409020601c0154610100900460ff16612fa957600092505050610b5b565b6000858152600a6020526040902060090154603c90612fc89042615ae6565b6007546000888152600a6020526040808220601b01549051639be541f760e01b8152600481019290925260ff1660248201526001600160a01b0390911690639be541f79060440160206040518083038186803b15801561302757600080fd5b505afa15801561303b573d6000803e3d6000fd5b505050506040513d601f19601f8201168201806040525081019061305f91906150da565b6130699190615ac7565b6130739190615aa7565b6007546000878152600a602052604090819020601b01549051630fe393af60e31b815260ff90911660048201529192506001600160a01b031690637f1c9d789060240160206040518083038186803b1580156130ce57600080fd5b505afa1580156130e2573d6000803e3d6000fd5b505050506040513d601f19601f8201168201806040525081019061310691906150da565b91505b816131148583615a8f565b1061312157509050610b5b565b61312b8185615a8f565b92505050610b5b565b6011546001600160a01b031633148061315757506012546001600160a01b031633145b6131735760405162461bcd60e51b8152600401610ba0906156a9565b61317c826141dd565b6000828152600a60205260409020601b0181600581106131ac57634e487b7160e01b600052603260045260246000fd5b6020918282040191900681819054906101000a900460ff16809291906131d190615b53565b91906101000a81548160ff021916908360ff160217905550505050565b6011546001600160a01b031633148061321157506012546001600160a01b031633145b61322d5760405162461bcd60e51b8152600401610ba0906156a9565b6000828152600a6020526040902061324483610ec8565b6003820155600f81019190915542600e9091015550565b6000818152600260205260409020546060906001600160a01b03166132da5760405162461bcd60e51b815260206004820152602f60248201527f4552433732314d657461646174613a2055524920717565727920666f72206e6f60448201526e3732bc34b9ba32b73a103a37b5b2b760891b6064820152608401610ba0565b6000600c80546132e990615afd565b9050116133055760405180602001604052806000815250610b5b565b600c600b600084815260200190815260200160002060405160200161332b9291906154ef565b60405160208183030381529060405292915050565b6011546001600160a01b031633148061336357506012546001600160a01b031633145b61337f5760405162461bcd60e51b8152600401610ba0906156a9565b6000918252600a6020526040909120602101805460ff1916911515919091179055565b6011546001600160a01b03163314806133c557506012546001600160a01b031633145b6133e15760405162461bcd60e51b8152600401610ba0906156a9565b6133ea83613d6f565b6000838152600a6020526040902082601d820183600c811061341c57634e487b7160e01b600052603260045260246000fd5b602091828204019190066101000a81548160ff0219169083151502179055508280156134485750816002145b156134e357600760009054906101000a90046001600160a01b03166001600160a01b0316635250cfce6040518163ffffffff1660e01b815260040160206040518083038186803b15801561349b57600080fd5b505afa1580156134af573d6000803e3d6000fd5b505050506040513d601f19601f820116820180604052508101906134d391906150da565b6134dd9042615a8f565b60108201555b826118ee57600754604051633154eb0360e11b8152600481018490526000916001600160a01b0316906362a9d6069060240160006040518083038186803b15801561352d57600080fd5b505afa158015613541573d6000803e3d6000fd5b505050506040513d6000823e601f3d908101601f191682016040526135699190810190614f93565b905060005b81518110156135f557600083601d0183838151811061359d57634e487b7160e01b600052603260045260246000fd5b6020026020010151600c81106135c357634e487b7160e01b600052603260045260246000fd5b602091828204019190066101000a81548160ff02191690831515021790555080806135ed90615b38565b91505061356e565b505050505050565b6000828152600a60205260408120600283146136515780601d0183600c811061363657634e487b7160e01b600052603260045260246000fd5b602081049091015460ff601f9092166101000a90041661106f565b80601d0183600c811061367457634e487b7160e01b600052603260045260246000fd5b602081049091015460ff601f9092166101000a900416801561106f57506010015442109392505050565b6136a6614c2b565b6000828152600a60205260409081902081516060810190925260120160038282826020028201915b8154815260200190600101908083116136ce5750505050509050919050565b6011546001600160a01b031633148061371057506012546001600160a01b031633145b61372c5760405162461bcd60e51b8152600401610ba0906156a9565b61373582613d6f565b6000828152600a602052604081206002018054839290613756908490615a8f565b90915550505050565b6000818152600a6020526040812060158101548291904210156137ab57603c670de0b6b3a76400004283601501546137979190615ae6565b6137a19190615ac7565b61106f9190615aa7565b5092915050565b6011546001600160a01b03163314806137d557506012546001600160a01b031633145b6137f15760405162461bcd60e51b8152600401610ba0906156a9565b6000918252600a6020526040909120601e0180549115156101000261ff0019909216919091179055565b6011546001600160a01b031633148061383e57506012546001600160a01b031633145b61385a5760405162461bcd60e51b8152600401610ba0906156a9565b613863826141dd565b61386c82613d6f565b6040805160a081018252600080825260208083018290528284018290526060830182905260808301829052858252600a81529290206138ae9201906005614a77565b506000828152600a602090815260409091206001910182600581106138e357634e487b7160e01b600052603260045260246000fd5b602091828204019190066101000a81548160ff0219169083151502179055505050565b6000805b600d5481101561396957826001600160a01b031661392782612133565b6001600160a01b031614801561394c57506000818152600a6020526040902060180154155b156139575792915050565b8061396181615b38565b91505061390a565b5050601054919050565b6011546001600160a01b031633148061399657506012546001600160a01b031633145b6139b25760405162461bcd60e51b8152600401610ba0906156a9565b6000918252600a6020526040909120601e01805460ff1916911515919091179055565b6011546001600160a01b03163314806139f857506012546001600160a01b031633145b613a145760405162461bcd60e51b8152600401610ba0906156a9565b6000838152600a60205260409020825115613b4d5781816017016000828254613a3d9190615a8f565b90915550506000600382015560085460218201546001600160a01b0390911690635e61537f90429060ff16613a8457613a7f670de0b6b3a76400006014615ac7565b613a97565b613a97670de0b6b3a76400006012615ac7565b604080516080810182526010870154815260158701546020820152601187015481830152600e8701546060820152600f87015491516001600160e01b031960e087901b168152613af19493926012890192916004016159fb565b60206040518083038186803b158015613b0957600080fd5b505afa158015613b1d573d6000803e3d6000fd5b505050506040513d601f19601f82011682018060405250810190613b4191906150da565b600f82015542600e8201555b60015b6005811015613be357838160058110613b7957634e487b7160e01b600052603260045260246000fd5b602002015115613bd1576000826004018260058110613ba857634e487b7160e01b600052603260045260246000fd5b015542600983018260058110613bce57634e487b7160e01b600052603260045260246000fd5b01555b80613bdb81615b38565b915050613b50565b5050505050565b6011546001600160a01b0316331480613c0d57506012546001600160a01b031633145b613c295760405162461bcd60e51b8152600401610ba0906156a9565b613c3281613d6f565b600760009054906101000a90046001600160a01b03166001600160a01b031663bfe8a4196040518163ffffffff1660e01b815260040160206040518083038186803b158015613c8057600080fd5b505afa158015613c94573d6000803e3d6000fd5b505050506040513d601f19601f82011682018060405250810190613cb891906150da565b613cc29042615a8f565b6000918252600a602052604090912060110155565b6006546001600160a01b03163314613d015760405162461bcd60e51b8152600401610ba0906156d4565b6001600160a01b038116613d665760405162461bcd60e51b815260206004820152602660248201527f4f776e61626c653a206e6577206f776e657220697320746865207a65726f206160448201526564647265737360d01b6064820152608401610ba0565b610bc881614297565b6011546001600160a01b0316331480613d9257506012546001600160a01b031633145b613dae5760405162461bcd60e51b8152600401610ba0906156a9565b6000818152600a60205260409020613dc582610ec8565b600382015560085460218201546001600160a01b0390911690635e61537f90429060ff16613e0557613e00670de0b6b3a76400006014615ac7565b613e18565b613e18670de0b6b3a76400006012615ac7565b604080516080810182526010870154815260158701546020820152601187015481830152600e8701546060820152600f87015491516001600160e01b031960e087901b168152613e729493926012890192916004016159fb565b60206040518083038186803b158015613e8a57600080fd5b505afa158015613e9e573d6000803e3d6000fd5b505050506040513d601f19601f82011682018060405250810190613ec291906150da565b600f82015542600e9091015550565b600081815260046020526040902080546001600160a01b0319166001600160a01b0384169081179091558190613f0682612133565b6001600160a01b03167f8c5be1e5ebec7d5bd14f71427d1e84f3dd0314c0f7b2291e5b200ac8c7c3b92560405160405180910390a45050565b6000818152600260205260408120546001600160a01b0316613fb85760405162461bcd60e51b815260206004820152602c60248201527f4552433732313a206f70657261746f7220717565727920666f72206e6f6e657860448201526b34b9ba32b73a103a37b5b2b760a11b6064820152608401610ba0565b6000613fc383612133565b9050806001600160a01b0316846001600160a01b03161480613ffe5750836001600160a01b0316613ff384610d22565b6001600160a01b0316145b8061106f57506001600160a01b0380821660009081526005602090815260408083209388168352929052205460ff1661106f565b826001600160a01b031661404582612133565b6001600160a01b0316146140ad5760405162461bcd60e51b815260206004820152602960248201527f4552433732313a207472616e73666572206f6620746f6b656e2074686174206960448201526839903737ba1037bbb760b91b6064820152608401610ba0565b6001600160a01b03821661410f5760405162461bcd60e51b8152602060048201526024808201527f4552433732313a207472616e7366657220746f20746865207a65726f206164646044820152637265737360e01b6064820152608401610ba0565b61411a83838361449d565b614125600082613ed1565b6001600160a01b038316600090815260036020526040812080546001929061414e908490615ae6565b90915550506001600160a01b038216600090815260036020526040812080546001929061417c908490615a8f565b909155505060008181526002602052604080822080546001600160a01b0319166001600160a01b0386811691821790925591518493918716917fddf252ad1be2c89b69c2b068fc378daa952ba7f163c4a11628f55a4df523b3ef91a4505050565b6011546001600160a01b031633148061420057506012546001600160a01b031633145b61421c5760405162461bcd60e51b8152600401610ba0906156a9565b61422581611d96565b6000828152600a60205260409020614244916004909101906005614b7d565b5060015b6005811015611c77576000828152600a602052604090204290600901826005811061428357634e487b7160e01b600052603260045260246000fd5b01558061428f81615b38565b915050614248565b600680546001600160a01b038381166001600160a01b0319831681179093556040519116919082907f8be0079c531659141344cd1fd0a4f28419497f9722a3daafe3b4186f6b6457e090600090a35050565b611c7782826040518060200160405280600081525061461d565b6000828152600260205260409020546001600160a01b031661437c5760405162461bcd60e51b815260206004820152602c60248201527f4552433732314d657461646174613a2055524920736574206f66206e6f6e657860448201526b34b9ba32b73a103a37b5b2b760a11b6064820152608401610ba0565b6000828152600b602090815260409091208251610c8b92840190614b09565b816001600160a01b0316836001600160a01b031614156143fd5760405162461bcd60e51b815260206004820152601960248201527f4552433732313a20617070726f766520746f2063616c6c6572000000000000006044820152606401610ba0565b6001600160a01b03838116600081815260056020908152604080832094871680845294825291829020805460ff191686151590811790915591519182527f17307eab39ab6107e8899845ad3d59bd9653f200f220920489ca2b5937696c31910160405180910390a3505050565b614475848484614032565b61448184848484614650565b6118ee5760405162461bcd60e51b8152600401610ba090615657565b6000818152600a602052604090206002810154156144fd5760405162461bcd60e51b815260206004820152601b60248201527f506c6561736520756e7374616b6520617373657420746f6b656e7300000000006044820152606401610ba0565b600954604051632fd702bb60e11b81526001600160a01b03858116600483015290911690635fae05769060240160206040518083038186803b15801561454257600080fd5b505afa158015614556573d6000803e3d6000fd5b505050506040513d601f19601f8201168201806040525081019061457a919061503b565b15156001146145c25760405162461bcd60e51b8152602060048201526014602482015273155cd95c881b9bdd081dda1a5d195b1a5cdd195960621b6044820152606401610ba0565b6003810154156146145760405162461bcd60e51b815260206004820152601c60248201527f506c65617365206861727665737420746f6b656e2072657761726473000000006044820152606401610ba0565b6118ee8261475d565b61462783836147eb565b6146346000848484614650565b610c8b5760405162461bcd60e51b8152600401610ba090615657565b60006001600160a01b0384163b1561475257604051630a85bd0160e11b81526001600160a01b0385169063150b7a0290614694903390899088908890600401615504565b602060405180830381600087803b1580156146ae57600080fd5b505af19250505080156146de575060408051601f3d908101601f191682019092526146db91810190615073565b60015b614738573d80801561470c576040519150601f19603f3d011682016040523d82523d6000602084013e614711565b606091505b5080516147305760405162461bcd60e51b8152600401610ba090615657565b805181602001fd5b6001600160e01b031916630a85bd0160e11b14905061106f565b506001949350505050565b6000818152600a602090815260408083206003810184905542600e820155815160a0810183528481529283018490529082018390526060820183905260808201929092526147b19060048301906005614b7d565b506040518060a001604052804281526020014281526020014281526020014281526020014281525081600901906005610c8b929190614b7d565b6001600160a01b0382166148415760405162461bcd60e51b815260206004820181905260248201527f4552433732313a206d696e7420746f20746865207a65726f20616464726573736044820152606401610ba0565b6000818152600260205260409020546001600160a01b0316156148a65760405162461bcd60e51b815260206004820152601c60248201527f4552433732313a20746f6b656e20616c7265616479206d696e746564000000006044820152606401610ba0565b6148b26000838361449d565b6001600160a01b03821660009081526003602052604081208054600192906148db908490615a8f565b909155505060008181526002602052604080822080546001600160a01b0319166001600160a01b03861690811790915590518392907fddf252ad1be2c89b69c2b068fc378daa952ba7f163c4a11628f55a4df523b3ef908290a45050565b6040518060a001604052806005906020820280368337509192915050565b60405180610380016040528060608152602001606081526020016000815260200160008152602001614987614939565b8152602001614994614939565b8152602001600081526020016000815260200160008152602001600081526020016149bd614c2b565b81526020016000815260200160008152602001600081526020016000815260200160008152602001600060ff168152602001600060ff168152602001614a01614939565b81526000602082018190526040820152606001614a1c614a58565b81526000602082018190526040820152606001614a37614939565b8152602001614a44614939565b815260006020820181905260409091015290565b604051806101800160405280600c906020820280368337509192915050565b600183019183908215614af95791602002820160005b83821115614aca57835183826101000a81548160ff0219169083151502179055509260200192600101602081600001049283019260010302614a8d565b8015614af75782816101000a81549060ff0219169055600101602081600001049283019260010302614aca565b505b50614b05929150614c49565b5090565b828054614b1590615afd565b90600052602060002090601f016020900481019282614b375760008555614af9565b82601f10614b5057805160ff1916838001178555614af9565b82800160010185558215614af9579182015b82811115614af9578251825591602001919060010190614b62565b8260058101928215614af95791602002820182811115614af9578251825591602001919060010190614b62565b8260038101928215614af95791602002820182811115614af9578251825591602001919060010190614b62565b600183019183908215614af95791602002820160005b83821115614aca57835183826101000a81548160ff021916908360ff1602179055509260200192600101602081600001049283019260010302614bed565b60405180606001604052806003906020820280368337509192915050565b5b80821115614b055760008155600101614c4a565b600067ffffffffffffffff831115614c7857614c78615b89565b614c8b601f8401601f1916602001615a5e565b9050828152838383011115614c9f57600080fd5b828260208301376000602084830101529392505050565b80356001600160a01b0381168114614ccd57600080fd5b919050565b600082601f830112614ce2578081fd5b614cea615a35565b80838560a086011115614cfb578384fd5b835b6005811015614d1c578151845260209384019390910190600101614cfd565b509095945050505050565b600082601f830112614d37578081fd5b6123d583833560208501614c5e565b600060208284031215614d57578081fd5b6123d582614cb6565b60008060408385031215614d72578081fd5b614d7b83614cb6565b9150614d8960208401614cb6565b90509250929050565b600080600080600060a08688031215614da9578081fd5b614db286614cb6565b9450614dc060208701614cb6565b9350614dce60408701614cb6565b9250614ddc60608701614cb6565b9150614dea60808701614cb6565b90509295509295909350565b600080600060608486031215614e0a578283fd5b614e1384614cb6565b9250614e2160208501614cb6565b9150604084013590509250925092565b60008060008060808587031215614e46578384fd5b614e4f85614cb6565b9350614e5d60208601614cb6565b925060408501359150606085013567ffffffffffffffff811115614e7f578182fd5b8501601f81018713614e8f578182fd5b614e9e87823560208401614c5e565b91505092959194509250565b60008060408385031215614ebc578182fd5b614ec583614cb6565b91506020830135614ed581615b9f565b809150509250929050565b600080600060608486031215614ef4578081fd5b614efd84614cb6565b92506020840135614f0d81615b9f565b9150604084013567ffffffffffffffff811115614f28578182fd5b614f3486828701614d27565b9150509250925092565b60008060408385031215614f50578182fd5b614f5983614cb6565b946020939093013593505050565b6000806101408385031215614f7a578182fd5b614f848484614cd2565b9150614d898460a08501614cd2565b60006020808385031215614fa5578182fd5b825167ffffffffffffffff80821115614fbc578384fd5b818501915085601f830112614fcf578384fd5b815181811115614fe157614fe1615b89565b8060051b9150614ff2848301615a5e565b8181528481019084860184860187018a101561500c578788fd5b8795505b8386101561502e578051835260019590950194918601918601615010565b5098975050505050505050565b60006020828403121561504c578081fd5b81516123d581615b9f565b600060208284031215615068578081fd5b81356123d581615bad565b600060208284031215615084578081fd5b81516123d581615bad565b6000602082840312156150a0578081fd5b813567ffffffffffffffff8111156150b6578182fd5b61106f84828501614d27565b6000602082840312156150d3578081fd5b5035919050565b6000602082840312156150eb578081fd5b5051919050565b600080600060e08486031215615106578081fd5b83359250602085603f86011261511a578182fd5b615122615a35565b8082870160c0880189811115615136578586fd5b855b600581101561515e57823561514c81615b9f565b85529385019391850191600101615138565b509699919850509435955050505050565b60008060408385031215615181578182fd5b823591506020830135614ed581615b9f565b6000806000606084860312156151a7578081fd5b8335925060208401356151b981615b9f565b929592945050506040919091013590565b600080604083850312156151dc578182fd5b82359150602083013567ffffffffffffffff8111156151f9578182fd5b61520585828601614d27565b9150509250929050565b60008060408385031215615221578182fd5b50508035926020909101359150565b8060005b600c8110156118ee5781511515845260209384019390910190600101615234565b805460ff8082161515845261527360208501828460081c1615159052565b61528660408501828460101c1615159052565b61529960608501828460181c1615159052565b6152ac60808501828460201c1615159052565b6152bf60a08501828460281c1615159052565b6152d260c08501828460301c1615159052565b6152e560e08501828460381c1615159052565b6152f96101008501828460401c1615159052565b61530d6101208501828460481c1615159052565b6153216101408501828460501c1615159052565b6118ee6101608501828460581c1615159052565b8060005b60058110156118ee5781511515845260209384019390910190600101615339565b8060005b60038110156118ee57815184526020938401939091019060010161535e565b8060005b60038110156118ee578154845260209093019260019182019101615381565b8060005b60048110156118ee5781518452602093840193909101906001016153a4565b8060005b60058110156118ee5781518452602093840193909101906001016153c7565b8060005b60058110156118ee57815160ff168452602093840193909101906001016153ea565b60008151808452815b8181101561543157602081850181015186830182015201615415565b818111156154425782602083870101525b50601f01601f19169290920160200192915050565b8054600090600181811c908083168061547157607f831692505b602080841082141561549157634e487b7160e01b86526022600452602486fd5b8180156154a557600181146154b6576154e3565b60ff198616895284890196506154e3565b60008881526020902060005b868110156154db5781548b8201529085019083016154c2565b505084890196505b50505050505092915050565b600061106f6154fe8386615457565b84615457565b6001600160a01b03858116825284166020820152604081018390526080606082018190526000906155379083018461540c565b9695505050505050565b6001600160a01b0387168152851515602082015260408101859052610260810161556e6060830186615230565b836101e083015261558361020083018461535a565b979650505050505050565b6101808101610b5b8284615230565b6101a081016155ac8285615230565b826101808301529392505050565b60a08101610b5b8284615335565b60608101610b5b828461535a565b60a08101610b5b82846153c3565b61014081016155f382856153c3565b6123d560a08301846153c3565b6020808252825182820181905260009190848201906040850190845b818110156156385783518352928401929184019160010161561c565b50909695505050505050565b6020815260006123d5602083018461540c565b60208082526032908201527f4552433732313a207472616e7366657220746f206e6f6e20455243373231526560408201527131b2b4bb32b91034b6b83632b6b2b73a32b960711b606082015260800190565b60208082526011908201527014195c9b5a5cdcda5bdb8819195b9a5959607a1b604082015260600190565b6020808252818101527f4f776e61626c653a2063616c6c6572206973206e6f7420746865206f776e6572604082015260600190565b60208082526031908201527f4552433732313a207472616e736665722063616c6c6572206973206e6f74206f6040820152701ddb995c881b9bdc88185c1c1c9bdd9959607a1b606082015260800190565b60208152600082516107a08060208501526157796107c085018361540c565b91506020850151601f19858403016040860152615796838261540c565b925050604085015160608501526060850151608085015260808501516157bf60a08601826153c3565b5060a08501516101406157d4818701836153c3565b60c08701516101e08781019190915260e088015161020080890191909152610100890151610220808a01919091526101208a0151610240808b0191909152938a0151945061026093615828858b018761535a565b6101608b015195506102c086818c01526101808c015196506102e087818d01526101a08d0151975061030088818e01526101c08e0151985061032089818f0152878f01519950610340975089888f0152868f015199506103609650615891878f018b60ff169052565b858f015199506158a76103808f018b60ff169052565b848f015199506158bb6103a08f018b6153e6565b888f015199506158d06104408f018b15159052565b6102808f015199506158e76104608f018b15159052565b6102a08f015199506158fd6104808f018b615230565b838f015199506159126106008f018b15159052565b828f015199506159276106208f018b15159052565b818f0151995061593b6106408f018b615335565b808f015199505050505050506159556106e0890185615335565b9088015115156107808801528701518015158488015291506159749050565b5090949350505050565b8281526101a081016123d56020830184615255565b8981526020810189905261032081016159af604083018a615255565b8715156101c08301528615156101e08301528515156102008301526159d861022083018661537d565b6159e66102808301856153a0565b826103008301529a9950505050505050505050565b858152602081018590526101408101615a17604083018661537d565b615a2460a08301856153a0565b826101208301529695505050505050565b60405160a0810167ffffffffffffffff81118282101715615a5857615a58615b89565b60405290565b604051601f8201601f1916810167ffffffffffffffff81118282101715615a8757615a87615b89565b604052919050565b60008219821115615aa257615aa2615b73565b500190565b600082615ac257634e487b7160e01b81526012600452602481fd5b500490565b6000816000190483118215151615615ae157615ae1615b73565b500290565b600082821015615af857615af8615b73565b500390565b600181811c90821680615b1157607f821691505b60208210811415615b3257634e487b7160e01b600052602260045260246000fd5b50919050565b6000600019821415615b4c57615b4c615b73565b5060010190565b600060ff821660ff811415615b6a57615b6a615b73565b60010192915050565b634e487b7160e01b600052601160045260246000fd5b634e487b7160e01b600052604160045260246000fd5b8015158114610bc857600080fd5b6001600160e01b031981168114610bc857600080fdfea26469706673582212208408bb84f0213215583f55dc02dd101bfd97424b542dd40a7f30419e4969d64564736f6c63430008040033",
  "linkReferences": {},
  "deployedLinkReferences": {}
}