{
    "_format": "hh-sol-artifact-1",
    "contractName": "Validator",
    "sourceName": "contracts/game/Validator.sol",
    "abi": [
        {
            "inputs": [
                {
                    "internalType": "address",
                    "name": "_landToken",
                    "type": "address"
                },
                {
                    "internalType": "address",
                    "name": "_settingAddress",
                    "type": "address"
                },
                {
                    "internalType": "address",
                    "name": "_houseAddress",
                    "type": "address"
                },
                {
                    "internalType": "address",
                    "name": "_helperAddres",
                    "type": "address"
                }
            ],
            "stateMutability": "nonpayable",
            "type": "constructor"
        },
        {
            "anonymous": false,
            "inputs": [
                {
                    "indexed": true,
                    "internalType": "address",
                    "name": "previousOwner",
                    "type": "address"
                },
                {
                    "indexed": true,
                    "internalType": "address",
                    "name": "newOwner",
                    "type": "address"
                }
            ],
            "name": "OwnershipTransferred",
            "type": "event"
        },
        {
            "inputs": [
                {
                    "internalType": "uint256",
                    "name": "tokenId",
                    "type": "uint256"
                },
                {
                    "internalType": "uint256",
                    "name": "lumber",
                    "type": "uint256"
                },
                {
                    "internalType": "uint256",
                    "name": "userLumberResource",
                    "type": "uint256"
                },
                {
                    "internalType": "uint256",
                    "name": "totalPowerAmout",
                    "type": "uint256"
                },
                {
                    "internalType": "address",
                    "name": "sender",
                    "type": "address"
                }
            ],
            "name": "canBurnLumber",
            "outputs": [
                {
                    "internalType": "bool",
                    "name": "",
                    "type": "bool"
                },
                {
                    "internalType": "uint256",
                    "name": "",
                    "type": "uint256"
                }
            ],
            "stateMutability": "view",
            "type": "function"
        },
        {
            "inputs": [
                {
                    "internalType": "uint256",
                    "name": "tokenId",
                    "type": "uint256"
                },
                {
                    "internalType": "uint256",
                    "name": "addonId",
                    "type": "uint256"
                },
                {
                    "internalType": "address",
                    "name": "sender",
                    "type": "address"
                }
            ],
            "name": "canBuyAddon",
            "outputs": [
                {
                    "internalType": "bool",
                    "name": "",
                    "type": "bool"
                }
            ],
            "stateMutability": "view",
            "type": "function"
        },
        {
            "inputs": [
                {
                    "internalType": "uint256",
                    "name": "tokenId",
                    "type": "uint256"
                },
                {
                    "internalType": "address",
                    "name": "sender",
                    "type": "address"
                }
            ],
            "name": "canBuyConcreteFoundation",
            "outputs": [
                {
                    "internalType": "bool",
                    "name": "",
                    "type": "bool"
                }
            ],
            "stateMutability": "view",
            "type": "function"
        },
        {
            "inputs": [
                {
                    "internalType": "uint256",
                    "name": "tokenId",
                    "type": "uint256"
                },
                {
                    "internalType": "address",
                    "name": "sender",
                    "type": "address"
                }
            ],
            "name": "canBuyFireplace",
            "outputs": [
                {
                    "internalType": "bool",
                    "name": "",
                    "type": "bool"
                }
            ],
            "stateMutability": "view",
            "type": "function"
        },
        {
            "inputs": [
                {
                    "internalType": "uint256",
                    "name": "tokenId",
                    "type": "uint256"
                },
                {
                    "internalType": "address",
                    "name": "sender",
                    "type": "address"
                }
            ],
            "name": "canBuyHarvester",
            "outputs": [
                {
                    "internalType": "bool",
                    "name": "",
                    "type": "bool"
                }
            ],
            "stateMutability": "view",
            "type": "function"
        },
        {
            "inputs": [
                {
                    "internalType": "uint256",
                    "name": "tokenId",
                    "type": "uint256"
                },
                {
                    "internalType": "uint256",
                    "name": "amount",
                    "type": "uint256"
                },
                {
                    "internalType": "uint256",
                    "name": "totalPowerAmount",
                    "type": "uint256"
                },
                {
                    "internalType": "address",
                    "name": "sender",
                    "type": "address"
                }
            ],
            "name": "canBuyPowerWithLandtoken",
            "outputs": [
                {
                    "internalType": "bool",
                    "name": "",
                    "type": "bool"
                },
                {
                    "internalType": "uint256",
                    "name": "",
                    "type": "uint256"
                }
            ],
            "stateMutability": "view",
            "type": "function"
        },
        {
            "inputs": [
                {
                    "internalType": "uint256",
                    "name": "tokenId",
                    "type": "uint256"
                },
                {
                    "internalType": "uint256",
                    "name": "facilityType",
                    "type": "uint256"
                },
                {
                    "internalType": "address",
                    "name": "sender",
                    "type": "address"
                }
            ],
            "name": "canBuyResourceOverdrive",
            "outputs": [
                {
                    "internalType": "bool",
                    "name": "",
                    "type": "bool"
                }
            ],
            "stateMutability": "view",
            "type": "function"
        },
        {
            "inputs": [
                {
                    "internalType": "uint256",
                    "name": "tokenId",
                    "type": "uint256"
                },
                {
                    "internalType": "address",
                    "name": "sender",
                    "type": "address"
                }
            ],
            "name": "canBuyTokenOverdrive",
            "outputs": [
                {
                    "internalType": "bool",
                    "name": "",
                    "type": "bool"
                }
            ],
            "stateMutability": "view",
            "type": "function"
        },
        {
            "inputs": [
                {
                    "internalType": "uint256",
                    "name": "tokenId",
                    "type": "uint256"
                },
                {
                    "internalType": "uint256",
                    "name": "_type",
                    "type": "uint256"
                },
                {
                    "internalType": "address",
                    "name": "sender",
                    "type": "address"
                }
            ],
            "name": "canBuyToolshed",
            "outputs": [
                {
                    "internalType": "bool",
                    "name": "",
                    "type": "bool"
                }
            ],
            "stateMutability": "view",
            "type": "function"
        },
        {
            "inputs": [
                {
                    "internalType": "uint256",
                    "name": "tokenId",
                    "type": "uint256"
                },
                {
                    "internalType": "address",
                    "name": "sender",
                    "type": "address"
                }
            ],
            "name": "canFertilizeGarden",
            "outputs": [
                {
                    "internalType": "bool",
                    "name": "",
                    "type": "bool"
                }
            ],
            "stateMutability": "view",
            "type": "function"
        },
        {
            "inputs": [
                {
                    "internalType": "uint256",
                    "name": "tokenId",
                    "type": "uint256"
                },
                {
                    "internalType": "uint256",
                    "name": "lumberAmount",
                    "type": "uint256"
                },
                {
                    "internalType": "address",
                    "name": "sender",
                    "type": "address"
                }
            ],
            "name": "canFrontloadFirepit",
            "outputs": [
                {
                    "internalType": "bool",
                    "name": "",
                    "type": "bool"
                }
            ],
            "stateMutability": "view",
            "type": "function"
        },
        {
            "inputs": [
                {
                    "internalType": "uint256",
                    "name": "tokenId",
                    "type": "uint256"
                },
                {
                    "internalType": "uint256",
                    "name": "amount",
                    "type": "uint256"
                },
                {
                    "internalType": "uint256[3]",
                    "name": "lastGatherLumberTime",
                    "type": "uint256[3]"
                },
                {
                    "internalType": "address",
                    "name": "sender",
                    "type": "address"
                }
            ],
            "name": "canGatherLumberWithPower",
            "outputs": [
                {
                    "internalType": "bool",
                    "name": "",
                    "type": "bool"
                }
            ],
            "stateMutability": "view",
            "type": "function"
        },
        {
            "inputs": [
                {
                    "internalType": "uint256",
                    "name": "tokenId",
                    "type": "uint256"
                },
                {
                    "internalType": "bool[5]",
                    "name": "harvestingReward",
                    "type": "bool[5]"
                },
                {
                    "internalType": "address",
                    "name": "sender",
                    "type": "address"
                }
            ],
            "name": "canHarvest",
            "outputs": [
                {
                    "internalType": "bool",
                    "name": "",
                    "type": "bool"
                },
                {
                    "internalType": "uint256",
                    "name": "",
                    "type": "uint256"
                },
                {
                    "internalType": "uint256",
                    "name": "",
                    "type": "uint256"
                }
            ],
            "stateMutability": "view",
            "type": "function"
        },
        {
            "inputs": [
                {
                    "internalType": "uint256",
                    "name": "tokenId",
                    "type": "uint256"
                },
                {
                    "internalType": "address",
                    "name": "sender",
                    "type": "address"
                }
            ],
            "name": "canHireHandyman",
            "outputs": [
                {
                    "internalType": "bool",
                    "name": "",
                    "type": "bool"
                },
                {
                    "internalType": "uint256",
                    "name": "",
                    "type": "uint256"
                }
            ],
            "stateMutability": "view",
            "type": "function"
        },
        {
            "inputs": [
                {
                    "internalType": "uint256",
                    "name": "tokenId",
                    "type": "uint256"
                },
                {
                    "internalType": "uint256",
                    "name": "percent",
                    "type": "uint256"
                },
                {
                    "internalType": "address",
                    "name": "sender",
                    "type": "address"
                }
            ],
            "name": "canRepair",
            "outputs": [
                {
                    "internalType": "bool",
                    "name": "",
                    "type": "bool"
                }
            ],
            "stateMutability": "view",
            "type": "function"
        },
        {
            "inputs": [
                {
                    "internalType": "uint256",
                    "name": "tokenId",
                    "type": "uint256"
                },
                {
                    "internalType": "uint256",
                    "name": "addonId",
                    "type": "uint256"
                },
                {
                    "internalType": "address",
                    "name": "sender",
                    "type": "address"
                }
            ],
            "name": "canSalvageAddon",
            "outputs": [
                {
                    "internalType": "bool",
                    "name": "",
                    "type": "bool"
                }
            ],
            "stateMutability": "view",
            "type": "function"
        },
        {
            "inputs": [
                {
                    "internalType": "uint256",
                    "name": "tokenId",
                    "type": "uint256"
                },
                {
                    "internalType": "uint256",
                    "name": "_type",
                    "type": "uint256"
                },
                {
                    "internalType": "address",
                    "name": "sender",
                    "type": "address"
                }
            ],
            "name": "canSwitchToolshed",
            "outputs": [
                {
                    "internalType": "bool",
                    "name": "",
                    "type": "bool"
                },
                {
                    "internalType": "uint256",
                    "name": "",
                    "type": "uint256"
                }
            ],
            "stateMutability": "view",
            "type": "function"
        },
        {
            "inputs": [
                {
                    "internalType": "uint256",
                    "name": "tokenId",
                    "type": "uint256"
                },
                {
                    "internalType": "uint256",
                    "name": "facilityType",
                    "type": "uint256"
                },
                {
                    "internalType": "address",
                    "name": "sender",
                    "type": "address"
                }
            ],
            "name": "canUpgradeFacility",
            "outputs": [
                {
                    "internalType": "bool",
                    "name": "",
                    "type": "bool"
                }
            ],
            "stateMutability": "view",
            "type": "function"
        },
        {
            "inputs": [],
            "name": "owner",
            "outputs": [
                {
                    "internalType": "address",
                    "name": "",
                    "type": "address"
                }
            ],
            "stateMutability": "view",
            "type": "function"
        },
        {
            "inputs": [],
            "name": "renounceOwnership",
            "outputs": [],
            "stateMutability": "nonpayable",
            "type": "function"
        },
        {
            "inputs": [
                {
                    "internalType": "address",
                    "name": "_address",
                    "type": "address"
                }
            ],
            "name": "setGameContractAddress",
            "outputs": [],
            "stateMutability": "nonpayable",
            "type": "function"
        },
        {
            "inputs": [
                {
                    "internalType": "address",
                    "name": "newOwner",
                    "type": "address"
                }
            ],
            "name": "transferOwnership",
            "outputs": [],
            "stateMutability": "nonpayable",
            "type": "function"
        }
    ],
    "bytecode": "0x60806040523480156200001157600080fd5b50604051620039bc380380620039bc833981016040819052620000349162000100565b6200003f3362000093565b600180546001600160a01b039586166001600160a01b03199182161790915560028054948616948216949094179093556003805492851692841692909217909155600480549190931691161790556200015c565b600080546001600160a01b038381166001600160a01b0319831681178455604051919092169283917f8be0079c531659141344cd1fd0a4f28419497f9722a3daafe3b4186f6b6457e09190a35050565b80516001600160a01b0381168114620000fb57600080fd5b919050565b6000806000806080858703121562000116578384fd5b6200012185620000e3565b93506200013160208601620000e3565b92506200014160408601620000e3565b91506200015160608601620000e3565b905092959194509250565b613850806200016c6000396000f3fe608060405234801561001057600080fd5b50600436106101425760003560e01c80638da5cb5b116100b8578063b34866e81161007c578063b34866e8146102a2578063da852df9146102b5578063e20a7ca2146102e5578063ed4c7efd146102f8578063f2fde38b1461030b578063fc2f39c41461031e57600080fd5b80638da5cb5b1461023b578063a299932c14610256578063a422f4e114610269578063ae267a2a1461027c578063af5a91e41461028f57600080fd5b806344efd0441161010a57806344efd044146101d25780635edf904e146101e5578063715018a6146101f857806377f08cd61461020257806388000a61146102155780638d4704a21461022857600080fd5b8063062e7b3414610147578063071565191461016f5780630b77f84914610199578063339a0cf1146101ac5780634349a7e8146101bf575b600080fd5b61015a6101553660046134e1565b610331565b60405190151581526020015b60405180910390f35b61018261017d3660046134e1565b610593565b604080519215158352602083019190915201610166565b6101826101a7366004613428565b6108ce565b61015a6101ba366004613428565b610b8c565b61015a6101cd3660046134e1565b610d89565b61015a6101e036600461350e565b610fcc565b6101826101f33660046135cc565b6112e9565b6102006116d9565b005b6102006102103660046131c7565b61170f565b61015a6102233660046134e1565b61175b565b61015a6102363660046134e1565b611b6f565b6000546040516001600160a01b039091168152602001610166565b61015a6102643660046134e1565b611d4a565b61015a6102773660046134e1565b611ea8565b61018261028a366004613597565b612006565b61015a61029d366004613428565b612370565b61015a6102b0366004613428565b61254d565b6102c86102c3366004613457565b61272f565b604080519315158452602084019290925290820152606001610166565b61015a6102f33660046134e1565b6129d5565b61015a610306366004613428565b612c7f565b6102006103193660046131c7565b612e5c565b61015a61032c366004613428565b612ef7565b6003546040516318b9af1f60e01b8152600481018590526000918291829182916001600160a01b03909116906318b9af1f9060240160606040518083038186803b15801561037e57600080fd5b505afa158015610392573d6000803e3d6000fd5b505050506040513d601f19601f820116820180604052508101906103b691906131ea565b9194509250905080156103e45760405162461bcd60e51b81526004016103db90613618565b60405180910390fd5b816104015760405162461bcd60e51b81526004016103db90613674565b826001600160a01b0316856001600160a01b0316146104545760405162461bcd60e51b815260206004820152600f60248201526e109d5e551bdbdb1cda19590e881411608a1b60448201526064016103db565b6000861180156104645750600586105b6104a35760405162461bcd60e51b815260206004820152601060248201526f125b9d985b1a5908151bdbdb1cda195960821b60448201526064016103db565b600354604051631356a89560e21b8152600481018990526000916001600160a01b031690634d5aa2549060240160a06040518083038186803b1580156104e857600080fd5b505afa1580156104fc573d6000803e3d6000fd5b505050506040513d601f19601f8201168201806040525081019061052091906132e9565b905080876005811061054257634e487b7160e01b600052603260045260246000fd5b6020020151156105855760405162461bcd60e51b815260206004820152600e60248201526d105b1c9958591e48189bdd59da1d60921b60448201526064016103db565b506001979650505050505050565b6003546040516318b9af1f60e01b81526004810185905260009182918291829182916001600160a01b0316906318b9af1f9060240160606040518083038186803b1580156105e057600080fd5b505afa1580156105f4573d6000803e3d6000fd5b505050506040513d601f19601f8201168201806040525081019061061891906131ea565b91945092509050801561063d5760405162461bcd60e51b81526004016103db90613618565b8161065a5760405162461bcd60e51b81526004016103db90613674565b826001600160a01b0316866001600160a01b0316146106b05760405162461bcd60e51b815260206004820152601260248201527114ddda5d18da151bdbdb1cda19590e88141160721b60448201526064016103db565b8660001080156106c05750600587105b6106fb5760405162461bcd60e51b815260206004820152600c60248201526b496e76616c6964207479706560a01b60448201526064016103db565b600354604051632636e80760e11b8152600481018a90526000916001600160a01b031690634c6dd00e9060240160206040518083038186803b15801561074057600080fd5b505afa158015610754573d6000803e3d6000fd5b505050506040513d601f19601f820116820180604052508101906107789190613410565b905080600010801561078a5750600581105b6107d65760405162461bcd60e51b815260206004820152601a60248201527f446f65736e2774206861766520616e20616374697665206f6e6500000000000060448201526064016103db565b600354604051631356a89560e21b8152600481018b90526000916001600160a01b031690634d5aa2549060240160a06040518083038186803b15801561081b57600080fd5b505afa15801561082f573d6000803e3d6000fd5b505050506040513d601f19601f8201168201806040525081019061085391906132e9565b905080896005811061087557634e487b7160e01b600052603260045260246000fd5b602002015115156001146108bd5760405162461bcd60e51b815260206004820152600f60248201526e111a59081b9bdd08189d5e481e595d608a1b60448201526064016103db565b506001999098509650505050505050565b6003546040516318b9af1f60e01b81526004810184905260009182918291829182916001600160a01b0316906318b9af1f9060240160606040518083038186803b15801561091b57600080fd5b505afa15801561092f573d6000803e3d6000fd5b505050506040513d601f19601f8201168201806040525081019061095391906131ea565b9194509250905080156109785760405162461bcd60e51b81526004016103db90613618565b816109955760405162461bcd60e51b81526004016103db90613674565b826001600160a01b0316866001600160a01b0316146109e95760405162461bcd60e51b815260206004820152601060248201526f121a5c9952185b991e5b585b8e88141160821b60448201526064016103db565b6003546040516322b2fc2d60e21b81526004810189905242916001600160a01b031690638acbf0b49060240160206040518083038186803b158015610a2d57600080fd5b505afa158015610a41573d6000803e3d6000fd5b505050506040513d601f19601f82011682018060405250810190610a659190613410565b10610aa15760405162461bcd60e51b815260206004820152600c60248201526b105b1c9958591e481d5cd95960a21b60448201526064016103db565b6000610ab6670de0b6b3a7640000600161377a565b6001546040516370a0823160e01b81526001600160a01b038a811660048301529293508392909116906370a082319060240160206040518083038186803b158015610b0057600080fd5b505afa158015610b14573d6000803e3d6000fd5b505050506040513d601f19601f82011682018060405250810190610b389190613410565b1015610b7d5760405162461bcd60e51b81526020600482015260146024820152732737ba1032b737bab3b4103630b7323a37b5b2b760611b60448201526064016103db565b60019890975095505050505050565b6003546040516318b9af1f60e01b8152600481018490526000918291829182916001600160a01b03909116906318b9af1f9060240160606040518083038186803b158015610bd957600080fd5b505afa158015610bed573d6000803e3d6000fd5b505050506040513d601f19601f82011682018060405250810190610c1191906131ea565b919450925090508015610c365760405162461bcd60e51b81526004016103db90613618565b81610c535760405162461bcd60e51b81526004016103db90613674565b826001600160a01b0316856001600160a01b031614610cb45760405162461bcd60e51b815260206004820152601760248201527f436f6e637265746520466f756e646174696f6e3a20504400000000000000000060448201526064016103db565b600354604051638229ea5d60e01b8152600481018890526001600160a01b0390911690638229ea5d9060240160206040518083038186803b158015610cf857600080fd5b505afa158015610d0c573d6000803e3d6000fd5b505050506040513d601f19601f82011682018060405250810190610d3091906133f4565b15610d7d5760405162461bcd60e51b815260206004820152601960248201527f436f6e637265746520466f756e646174696f6e2045786973740000000000000060448201526064016103db565b50600195945050505050565b6003546040516318b9af1f60e01b8152600481018590526000918291829182916001600160a01b03909116906318b9af1f9060240160606040518083038186803b158015610dd657600080fd5b505afa158015610dea573d6000803e3d6000fd5b505050506040513d601f19601f82011682018060405250810190610e0e91906131ea565b919450925090508015610e335760405162461bcd60e51b81526004016103db90613618565b81610e505760405162461bcd60e51b81526004016103db90613674565b826001600160a01b0316856001600160a01b031614610ea55760405162461bcd60e51b8152602060048201526011602482015270109d5e4813dd995c991c9a5d994e881411607a1b60448201526064016103db565b856000108015610eb55750600586105b610ef95760405162461bcd60e51b8152602060048201526015602482015274496e76616c696420666163696c697479207479706560581b60448201526064016103db565b600354604051634eb550b960e11b815260048101899052602481018890526001600160a01b0390911690639d6aa1729060440160206040518083038186803b158015610f4457600080fd5b505afa158015610f58573d6000803e3d6000fd5b505050506040513d601f19601f82011682018060405250810190610f7c91906133f4565b610fbf5760405162461bcd60e51b8152602060048201526014602482015273416c726561647920696e204f766572647269766560601b60448201526064016103db565b5060019695505050505050565b6003546040516318b9af1f60e01b8152600481018690526000918291829182916001600160a01b03909116906318b9af1f9060240160606040518083038186803b15801561101957600080fd5b505afa15801561102d573d6000803e3d6000fd5b505050506040513d601f19601f8201168201806040525081019061105191906131ea565b91945092509050816110755760405162461bcd60e51b81526004016103db90613674565b826001600160a01b0316856001600160a01b0316146110c95760405162461bcd60e51b815260206004820152601060248201526f11d85d1a195c931d5b58995c8e88141160821b60448201526064016103db565b6003546040516363b2b0c760e01b8152600481018a90526000916001600160a01b0316906363b2b0c79060240160206040518083038186803b15801561110e57600080fd5b505afa158015611122573d6000803e3d6000fd5b505050506040513d601f19601f8201168201806040525081019061114691906133f4565b905080156111b457876001148061115d5750876002145b806111685750876003145b6111af5760405162461bcd60e51b815260206004820152601860248201527724b73b30b4b6321030b6b7bab73a103a379033b0ba3432b960411b60448201526064016103db565b61120a565b87600114806111c35750876002145b61120a5760405162461bcd60e51b815260206004820152601860248201527724b73b30b4b6321030b6b7bab73a103a379033b0ba3432b960411b60448201526064016103db565b60008161121857600261121b565b60035b60ff1690506000805b60038110156112855742603c8b836003811061125057634e487b7160e01b600052603260045260246000fd5b602002015161125f9190613742565b1115611273578161126f816137b0565b9250505b8061127d816137b0565b915050611224565b50816112918b83613742565b11156112d85760405162461bcd60e51b8152602060048201526016602482015275115e18d959590811d85d1a195c9a5b99c81b1a5b5a5d60521b60448201526064016103db565b5060019a9950505050505050505050565b6003546040516318b9af1f60e01b81526004810187905260009182918291829182916001600160a01b0316906318b9af1f9060240160606040518083038186803b15801561133657600080fd5b505afa15801561134a573d6000803e3d6000fd5b505050506040513d601f19601f8201168201806040525081019061136e91906131ea565b9194509250905080156113935760405162461bcd60e51b81526004016103db90613618565b816113b05760405162461bcd60e51b81526004016103db90613674565b826001600160a01b0316866001600160a01b0316146114025760405162461bcd60e51b815260206004820152600e60248201526d109d5c9b931d5b58995c8e88141160921b60448201526064016103db565b600089116114465760405162461bcd60e51b815260206004820152601160248201527027379030b6b7bab73a103a3790313ab93760791b60448201526064016103db565b6003546040516359500a9960e11b8152600481018c90526001600160a01b039091169063b2a015329060240160206040518083038186803b15801561148a57600080fd5b505afa15801561149e573d6000803e3d6000fd5b505050506040513d601f19601f820116820180604052508101906114c291906133f4565b61150e5760405162461bcd60e51b815260206004820152601e60248201527f46697265706c616365206e65656420746f20626520707572636861736564000060448201526064016103db565b888810156115545760405162461bcd60e51b815260206004820152601360248201527224b739bab33334b1b4b2b73a10363ab6b132b960691b60448201526064016103db565b60006064600260009054906101000a90046001600160a01b03166001600160a01b031663016b43f56040518163ffffffff1660e01b815260040160206040518083038186803b1580156115a657600080fd5b505afa1580156115ba573d6000803e3d6000fd5b505050506040513d601f19601f820116820180604052508101906115de9190613410565b6115e8908c61377a565b6115f2919061375a565b6003546040516339ea474f60e11b8152600481018e90529192506001600160a01b0316906373d48e9e9060240160206040518083038186803b15801561163757600080fd5b505afa15801561164b573d6000803e3d6000fd5b505050506040513d601f19601f8201168201806040525081019061166f9190613410565b611679828a613742565b11156116c75760405162461bcd60e51b815260206004820152601a60248201527f45786365656420746865206d617820706f776572206c696d697400000000000060448201526064016103db565b60019b909a5098505050505050505050565b6000546001600160a01b031633146117035760405162461bcd60e51b81526004016103db9061363f565b61170d60006130e5565b565b6000546001600160a01b031633146117395760405162461bcd60e51b81526004016103db9061363f565b600580546001600160a01b0319166001600160a01b0392909216919091179055565b6000806000611768613135565b600080611773613154565b60035460405163b36003d760e01b8152600481018c90526001600160a01b039091169063b36003d7906024016102606040518083038186803b1580156117b857600080fd5b505afa1580156117cc573d6000803e3d6000fd5b505050506040513d601f19601f820116820180604052508101906117f0919061322c565b949a509298509650945092509050821561181c5760405162461bcd60e51b81526004016103db90613618565b846118395760405162461bcd60e51b81526004016103db90613674565b856001600160a01b0316886001600160a01b0316146118895760405162461bcd60e51b815260206004820152600c60248201526b109d5e5059191bdb8e88141160a21b60448201526064016103db565b8389600c81106118a957634e487b7160e01b600052603260045260246000fd5b602002015115806118d157508860021480156118c6575060408401515b80156118d157504282105b6119145760405162461bcd60e51b81526020600482015260146024820152731059191bdb88185b1c9958591e48189bdd59da1d60621b60448201526064016103db565b6002546040516312542ccf60e11b8152600481018b90526000916001600160a01b0316906324a8599e9060240160006040518083038186803b15801561195957600080fd5b505afa15801561196d573d6000803e3d6000fd5b505050506040513d6000823e601f3d908101601f19168201604052611995919081019061334c565b9050600160005b8251811015611a0c57868382815181106119c657634e487b7160e01b600052603260045260246000fd5b6020026020010151600c81106119ec57634e487b7160e01b600052603260045260246000fd5b60200201516119fa57600091505b80611a04816137b0565b91505061199c565b5080611a5a5760405162461bcd60e51b815260206004820152601d60248201527f4e65656420746f2062757920646570656e64656e6379206164646f6e7300000060448201526064016103db565b6002546040516375e2df4f60e11b8152600481018d90526000916001600160a01b03169063ebc5be9e9060240160206040518083038186803b158015611a9f57600080fd5b505afa158015611ab3573d6000803e3d6000fd5b505050506040513d601f19601f82011682018060405250810190611ad79190613410565b90508015611b5c574284611aec600184613799565b60038110611b0a57634e487b7160e01b600052603260045260246000fd5b602002015111611b5c5760405162461bcd60e51b815260206004820152601a60248201527f446f65736e2774206d65657420666f7274696669636174696f6e00000000000060448201526064016103db565b5060019c9b505050505050505050505050565b6003546040516318b9af1f60e01b8152600481018590526000918291829182916001600160a01b03909116906318b9af1f9060240160606040518083038186803b158015611bbc57600080fd5b505afa158015611bd0573d6000803e3d6000fd5b505050506040513d601f19601f82011682018060405250810190611bf491906131ea565b919450925090508015611c195760405162461bcd60e51b81526004016103db90613618565b81611c365760405162461bcd60e51b81526004016103db90613674565b826001600160a01b0316856001600160a01b031614611c855760405162461bcd60e51b815260206004820152600b60248201526a14d85b1d9859d94e88141160aa1b60448201526064016103db565b60035460405163d5957f6d60e01b815260048101899052602481018890526001600160a01b039091169063d5957f6d9060440160206040518083038186803b158015611cd057600080fd5b505afa158015611ce4573d6000803e3d6000fd5b505050506040513d601f19601f82011682018060405250810190611d0891906133f4565b610fbf5760405162461bcd60e51b81526020600482015260136024820152721059191bdb88191bd95cdb89dd08195e1a5cdd606a1b60448201526064016103db565b6003546040516318b9af1f60e01b8152600481018590526000918291829182916001600160a01b03909116906318b9af1f9060240160606040518083038186803b158015611d9757600080fd5b505afa158015611dab573d6000803e3d6000fd5b505050506040513d601f19601f82011682018060405250810190611dcf91906131ea565b919450925090508015611df45760405162461bcd60e51b81526004016103db90613618565b81611e115760405162461bcd60e51b81526004016103db90613674565b826001600160a01b0316856001600160a01b031614611e5f5760405162461bcd60e51b815260206004820152600a60248201526914995c185a5c8e88141160b21b60448201526064016103db565b60008611610fbf5760405162461bcd60e51b8152602060048201526016602482015275050657263656e742073686f756c642061626f766520360541b60448201526064016103db565b6003546040516318b9af1f60e01b8152600481018590526000918291829182916001600160a01b03909116906318b9af1f9060240160606040518083038186803b158015611ef557600080fd5b505afa158015611f09573d6000803e3d6000fd5b505050506040513d601f19601f82011682018060405250810190611f2d91906131ea565b919450925090508015611f525760405162461bcd60e51b81526004016103db90613618565b81611f6f5760405162461bcd60e51b81526004016103db90613674565b826001600160a01b0316856001600160a01b031614611fbf5760405162461bcd60e51b815260206004820152600c60248201526b119858da5b1a5d1e4e88141160a21b60448201526064016103db565b60058610610fbf5760405162461bcd60e51b8152602060048201526014602482015273496e76616c696420666163696c7479207479706560601b60448201526064016103db565b6003546040516318b9af1f60e01b81526004810186905260009182918291829182916001600160a01b0316906318b9af1f9060240160606040518083038186803b15801561205357600080fd5b505afa158015612067573d6000803e3d6000fd5b505050506040513d601f19601f8201168201806040525081019061208b91906131ea565b91945092509050816120af5760405162461bcd60e51b81526004016103db90613674565b826001600160a01b0316866001600160a01b0316146120ff5760405162461bcd60e51b815260206004820152600c60248201526b109d5e541bddd95c8e88141160a21b60448201526064016103db565b600088116121405760405162461bcd60e51b815260206004820152600e60248201526d139bc8185b5bdd5b9d081c185a5960921b60448201526064016103db565b6002546040805163162aec8160e11b815290516000926001600160a01b031691632c55d902916004808301926020929190829003018186803b15801561218557600080fd5b505afa158015612199573d6000803e3d6000fd5b505050506040513d601f19601f820116820180604052508101906121bd9190613410565b6121c7908a61377a565b6003546040516339ea474f60e11b8152600481018d90529192506001600160a01b0316906373d48e9e9060240160206040518083038186803b15801561220c57600080fd5b505afa158015612220573d6000803e3d6000fd5b505050506040513d601f19601f820116820180604052508101906122449190613410565b61224e828a613742565b111561229c5760405162461bcd60e51b815260206004820152601a60248201527f45786365656420746865206d617820706f776572206c696d697400000000000060448201526064016103db565b6001546040516370a0823160e01b81526001600160a01b0389811660048301528b9216906370a082319060240160206040518083038186803b1580156122e157600080fd5b505afa1580156122f5573d6000803e3d6000fd5b505050506040513d601f19601f820116820180604052508101906123199190613410565b101561235f5760405162461bcd60e51b81526020600482015260156024820152742737ba1032b737bab3b43a103630b7323a37b5b2b760591b60448201526064016103db565b60019a909950975050505050505050565b6003546040516318b9af1f60e01b8152600481018490526000918291829182916001600160a01b03909116906318b9af1f9060240160606040518083038186803b1580156123bd57600080fd5b505afa1580156123d1573d6000803e3d6000fd5b505050506040513d601f19601f820116820180604052508101906123f591906131ea565b91945092509050801561241a5760405162461bcd60e51b81526004016103db90613618565b816124375760405162461bcd60e51b81526004016103db90613674565b826001600160a01b0316856001600160a01b03161461248b5760405162461bcd60e51b815260206004820152601060248201526f109d5e519a5c995c1b1858d94e88141160821b60448201526064016103db565b6003546040516359500a9960e11b8152600481018890526001600160a01b039091169063b2a015329060240160206040518083038186803b1580156124cf57600080fd5b505afa1580156124e3573d6000803e3d6000fd5b505050506040513d601f19601f8201168201806040525081019061250791906133f4565b15610d7d5760405162461bcd60e51b8152602060048201526016602482015275416c726561647920686176652066697265706c61636560501b60448201526064016103db565b6003546040516318b9af1f60e01b8152600481018490526000918291829182916001600160a01b03909116906318b9af1f9060240160606040518083038186803b15801561259a57600080fd5b505afa1580156125ae573d6000803e3d6000fd5b505050506040513d601f19601f820116820180604052508101906125d291906131ea565b9194509250905080156125f75760405162461bcd60e51b81526004016103db90613618565b816126145760405162461bcd60e51b81526004016103db90613674565b826001600160a01b0316856001600160a01b0316146126695760405162461bcd60e51b8152602060048201526011602482015270109d5e4813dd995c991c9a5d994e881411607a1b60448201526064016103db565b600354604051634eb550b960e11b815260048101889052600060248201526001600160a01b0390911690639d6aa1729060440160206040518083038186803b1580156126b457600080fd5b505afa1580156126c8573d6000803e3d6000fd5b505050506040513d601f19601f820116820180604052508101906126ec91906133f4565b610d7d5760405162461bcd60e51b8152602060048201526014602482015273416c726561647920696e204f766572647269766560601b60448201526064016103db565b6003546040516318b9af1f60e01b815260048101859052600091829182918291829182916001600160a01b03909116906318b9af1f9060240160606040518083038186803b15801561278057600080fd5b505afa158015612794573d6000803e3d6000fd5b505050506040513d601f19601f820116820180604052508101906127b891906131ea565b91945092509050816127dc5760405162461bcd60e51b81526004016103db90613674565b826001600160a01b0316876001600160a01b03161461282b5760405162461bcd60e51b815260206004820152600b60248201526a12185c9d995cdd0e88141160aa1b60448201526064016103db565b8751600090156129c35760035460405163075a295360e11b8152600481018c90526001600160a01b0390911690630eb452a69060240160206040518083038186803b15801561287957600080fd5b505afa15801561288d573d6000803e3d6000fd5b505050506040513d601f19601f820116820180604052508101906128b19190613410565b9050600081116128fb5760405162461bcd60e51b8152602060048201526015602482015274139bc8185b5bdd5b9d08199bdc881a185c9d995cdd605a1b60448201526064016103db565b6001546005546040516370a0823160e01b81526001600160a01b039182166004820152839291909116906370a082319060240160206040518083038186803b15801561294657600080fd5b505afa15801561295a573d6000803e3d6000fd5b505050506040513d601f19601f8201168201806040525081019061297e9190613410565b10156129c35760405162461bcd60e51b81526020600482015260146024820152732737ba1032b737bab3b4103630b7323a37b5b2b760611b60448201526064016103db565b60019a90995090975095505050505050565b6003546040516318b9af1f60e01b8152600481018590526000918291829182916001600160a01b03909116906318b9af1f9060240160606040518083038186803b158015612a2257600080fd5b505afa158015612a36573d6000803e3d6000fd5b505050506040513d601f19601f82011682018060405250810190612a5a91906131ea565b919450925090508015612a7f5760405162461bcd60e51b81526004016103db90613618565b81612a9c5760405162461bcd60e51b81526004016103db90613674565b826001600160a01b0316856001600160a01b031614612af55760405162461bcd60e51b8152602060048201526015602482015274119c9bdb9d1b1bd85908119a5c995c1a5d0e881411605a1b60448201526064016103db565b60008611612b3d5760405162461bcd60e51b8152602060048201526015602482015274139bc8185b5bdd5b9d081d1bc8199c9bdb9b1bd859605a1b60448201526064016103db565b612b50670de0b6b3a7640000600a61377a565b861115612b9a5760405162461bcd60e51b81526020600482015260186024820152774578636565642046726f6e746c6f6164204c756d6265727360401b60448201526064016103db565b60035460405163e7b065a560e01b8152600481018990526000916001600160a01b03169063e7b065a59060240160206040518083038186803b158015612bdf57600080fd5b505afa158015612bf3573d6000803e3d6000fd5b505050506040513d601f19601f82011682018060405250810190612c179190613410565b9050612c2c670de0b6b3a7640000600a61377a565b612c368883613742565b11156105855760405162461bcd60e51b81526020600482015260186024820152774578636565642046726f6e746c6f6164204c756d6265727360401b60448201526064016103db565b6003546040516318b9af1f60e01b8152600481018490526000918291829182916001600160a01b03909116906318b9af1f9060240160606040518083038186803b158015612ccc57600080fd5b505afa158015612ce0573d6000803e3d6000fd5b505050506040513d601f19601f82011682018060405250810190612d0491906131ea565b919450925090508015612d295760405162461bcd60e51b81526004016103db90613618565b81612d465760405162461bcd60e51b81526004016103db90613674565b826001600160a01b0316856001600160a01b031614612d9a5760405162461bcd60e51b815260206004820152601060248201526f109d5e52185c9d995cdd195c8e88141160821b60448201526064016103db565b60035460405163a5dd678960e01b8152600481018890526001600160a01b039091169063a5dd67899060240160206040518083038186803b158015612dde57600080fd5b505afa158015612df2573d6000803e3d6000fd5b505050506040513d601f19601f82011682018060405250810190612e1691906133f4565b15610d7d5760405162461bcd60e51b815260206004820152601660248201527520b63932b0b23c903430bb32903430b93b32b9ba32b960511b60448201526064016103db565b6000546001600160a01b03163314612e865760405162461bcd60e51b81526004016103db9061363f565b6001600160a01b038116612eeb5760405162461bcd60e51b815260206004820152602660248201527f4f776e61626c653a206e6577206f776e657220697320746865207a65726f206160448201526564647265737360d01b60648201526084016103db565b612ef4816130e5565b50565b6003546040516318b9af1f60e01b8152600481018490526000918291829182916001600160a01b03909116906318b9af1f9060240160606040518083038186803b158015612f4457600080fd5b505afa158015612f58573d6000803e3d6000fd5b505050506040513d601f19601f82011682018060405250810190612f7c91906131ea565b919450925090508015612fa15760405162461bcd60e51b81526004016103db90613618565b81612fbe5760405162461bcd60e51b81526004016103db90613674565b826001600160a01b0316856001600160a01b0316146130165760405162461bcd60e51b815260206004820152601460248201527311995c9d1a5b1a5e994811d85c99195b8e88141160621b60448201526064016103db565b60035460405163d5957f6d60e01b815260048101889052600260248201526001600160a01b039091169063d5957f6d9060440160206040518083038186803b15801561306157600080fd5b505afa158015613075573d6000803e3d6000fd5b505050506040513d601f19601f8201168201806040525081019061309991906133f4565b610d7d5760405162461bcd60e51b815260206004820152601760248201527f47617264656e2073686f756c642062652061637469766500000000000000000060448201526064016103db565b600080546001600160a01b038381166001600160a01b0319831681178455604051919092169283917f8be0079c531659141344cd1fd0a4f28419497f9722a3daafe3b4186f6b6457e09190a35050565b604051806101800160405280600c906020820280368337509192915050565b60405180606001604052806003906020820280368337509192915050565b600082601f830112613182578081fd5b61318a6136a1565b80838560608601111561319b578384fd5b835b60038110156131bc57815184526020938401939091019060010161319d565b509095945050505050565b6000602082840312156131d8578081fd5b81356131e3816137f7565b9392505050565b6000806000606084860312156131fe578182fd5b8351613209816137f7565b602085015190935061321a8161380c565b80925050604084015190509250925092565b6000806000806000806102608789031215613245578182fd5b8651613250816137f7565b809650506020808801516132638161380c565b809650506040880151945088607f89011261327c578283fd5b6132846136ca565b8060608a016101e08b018c81111561329a578687fd5b865b600c8110156132c25782516132b08161380c565b8552938501939185019160010161329c565b508297508051965050505050506132dd886102008901613172565b90509295509295509295565b600060a082840312156132fa578081fd5b82601f830112613308578081fd5b6133106136ee565b80838560a086011115613321578384fd5b835b60058110156131bc5781516133378161380c565b84526020938401939190910190600101613323565b6000602080838503121561335e578182fd5b825167ffffffffffffffff80821115613375578384fd5b818501915085601f830112613388578384fd5b81518181111561339a5761339a6137e1565b8060051b91506133ab848301613711565b8181528481019084860184860187018a10156133c5578788fd5b8795505b838610156133e75780518352600195909501949186019186016133c9565b5098975050505050505050565b600060208284031215613405578081fd5b81516131e38161380c565b600060208284031215613421578081fd5b5051919050565b6000806040838503121561343a578182fd5b82359150602083013561344c816137f7565b809150509250929050565b600080600060e0848603121561346b578081fd5b83359250602085603f86011261347f578182fd5b6134876136ee565b8082870160c088018981111561349b578586fd5b855b60058110156134c35782356134b18161380c565b8552938501939185019160010161349d565b50919550503591506134d69050816137f7565b809150509250925092565b6000806000606084860312156134f5578081fd5b833592506020840135915060408401356134d6816137f7565b60008060008060c08587031215613523578182fd5b84359350602080860135935086605f87011261353d578283fd5b6135456136a1565b806040880160a089018a81111561355a578687fd5b865b60038110156135795782358552938501939185019160010161355c565b509195505035915061358c9050816137f7565b939692955090935050565b600080600080608085870312156135ac578182fd5b843593506020850135925060408501359150606085013561358c816137f7565b600080600080600060a086880312156135e3578283fd5b85359450602086013593506040860135925060608601359150608086013561360a816137f7565b809150509295509295909350565b6020808252600d908201526c121bdd5cd9481a5cc819195859609a1b604082015260600190565b6020808252818101527f4f776e61626c653a2063616c6c6572206973206e6f7420746865206f776e6572604082015260600190565b6020808252601390820152721058dd1a5d985d1a5bdb881c995c5d5a5c9959606a1b604082015260600190565b6040516060810167ffffffffffffffff811182821017156136c4576136c46137e1565b60405290565b604051610180810167ffffffffffffffff811182821017156136c4576136c46137e1565b60405160a0810167ffffffffffffffff811182821017156136c4576136c46137e1565b604051601f8201601f1916810167ffffffffffffffff8111828210171561373a5761373a6137e1565b604052919050565b60008219821115613755576137556137cb565b500190565b60008261377557634e487b7160e01b81526012600452602481fd5b500490565b6000816000190483118215151615613794576137946137cb565b500290565b6000828210156137ab576137ab6137cb565b500390565b60006000198214156137c4576137c46137cb565b5060010190565b634e487b7160e01b600052601160045260246000fd5b634e487b7160e01b600052604160045260246000fd5b6001600160a01b0381168114612ef457600080fd5b8015158114612ef457600080fdfea2646970667358221220635350ed388ec34b7915092bfb72d13a8d2fcc559fc4666f82c093cf729ea7bd64736f6c63430008040033",
    "linkReferences": {},
    "deployedLinkReferences": {}
}